{
  "address": "0xCD56B7e780C953E66832b8b4378bC145a1aAB511",
  "abi": [
    {
      "anonymous": false,
      "inputs": [
        {
          "indexed": true,
          "internalType": "address",
          "name": "caller",
          "type": "address"
        },
        {
          "indexed": true,
          "internalType": "address",
          "name": "token",
          "type": "address"
        },
        {
          "indexed": true,
          "internalType": "address",
          "name": "to",
          "type": "address"
        },
        {
          "indexed": false,
          "internalType": "uint256",
          "name": "amount",
          "type": "uint256"
        }
      ],
      "name": "EmergencyWithdrawal",
      "type": "event"
    },
    {
      "anonymous": false,
      "inputs": [
        {
          "indexed": true,
          "internalType": "address",
          "name": "previousOwner",
          "type": "address"
        },
        {
          "indexed": true,
          "internalType": "address",
          "name": "newOwner",
          "type": "address"
        }
      ],
      "name": "OwnershipTransferred",
      "type": "event"
    },
    {
      "inputs": [],
      "name": "aero",
      "outputs": [
        {
          "internalType": "contract IERC20",
          "name": "",
          "type": "address"
        }
      ],
      "stateMutability": "view",
      "type": "function"
    },
    {
      "inputs": [
        {
          "internalType": "address",
          "name": "token",
          "type": "address"
        },
        {
          "internalType": "address",
          "name": "to",
          "type": "address"
        },
        {
          "internalType": "uint256",
          "name": "amount",
          "type": "uint256"
        }
      ],
      "name": "emergencyWithdrawal",
      "outputs": [],
      "stateMutability": "nonpayable",
      "type": "function"
    },
    {
      "inputs": [],
      "name": "emissionManager",
      "outputs": [
        {
          "internalType": "contract IEmissionManager",
          "name": "",
          "type": "address"
        }
      ],
      "stateMutability": "view",
      "type": "function"
    },
    {
      "inputs": [
        {
          "internalType": "address",
          "name": "",
          "type": "address"
        }
      ],
      "name": "emissionsNotified",
      "outputs": [
        {
          "internalType": "uint256",
          "name": "",
          "type": "uint256"
        }
      ],
      "stateMutability": "view",
      "type": "function"
    },
    {
      "inputs": [
        {
          "internalType": "address",
          "name": "",
          "type": "address"
        }
      ],
      "name": "emissionsReceived",
      "outputs": [
        {
          "internalType": "uint256",
          "name": "",
          "type": "uint256"
        }
      ],
      "stateMutability": "view",
      "type": "function"
    },
    {
      "inputs": [],
      "name": "getIncentivesController",
      "outputs": [
        {
          "internalType": "address",
          "name": "",
          "type": "address"
        }
      ],
      "stateMutability": "view",
      "type": "function"
    },
    {
      "inputs": [],
      "name": "getRewardsAdmin",
      "outputs": [
        {
          "internalType": "address",
          "name": "",
          "type": "address"
        }
      ],
      "stateMutability": "view",
      "type": "function"
    },
    {
      "inputs": [],
      "name": "incentiveController",
      "outputs": [
        {
          "internalType": "address",
          "name": "",
          "type": "address"
        }
      ],
      "stateMutability": "view",
      "type": "function"
    },
    {
      "inputs": [
        {
          "internalType": "address",
          "name": "_owner",
          "type": "address"
        },
        {
          "internalType": "address",
          "name": "_aero",
          "type": "address"
        },
        {
          "internalType": "address",
          "name": "_oracle",
          "type": "address"
        },
        {
          "internalType": "address",
          "name": "_emissionManager",
          "type": "address"
        },
        {
          "internalType": "address",
          "name": "_incentiveController",
          "type": "address"
        }
      ],
      "name": "initialize",
      "outputs": [],
      "stateMutability": "nonpayable",
      "type": "function"
    },
    {
      "inputs": [
        {
          "internalType": "address",
          "name": "",
          "type": "address"
        }
      ],
      "name": "lastNotified",
      "outputs": [
        {
          "internalType": "uint256",
          "name": "",
          "type": "uint256"
        }
      ],
      "stateMutability": "view",
      "type": "function"
    },
    {
      "inputs": [
        {
          "internalType": "address",
          "name": "reserve",
          "type": "address"
        }
      ],
      "name": "notifyEmissionManager",
      "outputs": [],
      "stateMutability": "nonpayable",
      "type": "function"
    },
    {
      "inputs": [],
      "name": "oracle",
      "outputs": [
        {
          "internalType": "address",
          "name": "",
          "type": "address"
        }
      ],
      "stateMutability": "view",
      "type": "function"
    },
    {
      "inputs": [],
      "name": "owner",
      "outputs": [
        {
          "internalType": "address",
          "name": "",
          "type": "address"
        }
      ],
      "stateMutability": "view",
      "type": "function"
    },
    {
      "inputs": [
        {
          "internalType": "address",
          "name": "to",
          "type": "address"
        },
        {
          "internalType": "address",
          "name": "reward",
          "type": "address"
        },
        {
          "internalType": "uint256",
          "name": "amount",
          "type": "uint256"
        }
      ],
      "name": "performTransfer",
      "outputs": [
        {
          "internalType": "bool",
          "name": "",
          "type": "bool"
        }
      ],
      "stateMutability": "nonpayable",
      "type": "function"
    },
    {
      "inputs": [
        {
          "internalType": "uint256",
          "name": "amount",
          "type": "uint256"
        }
      ],
      "name": "receiveAeroEmission",
      "outputs": [],
      "stateMutability": "nonpayable",
      "type": "function"
    },
    {
      "inputs": [],
      "name": "renounceOwnership",
      "outputs": [],
      "stateMutability": "nonpayable",
      "type": "function"
    },
    {
      "inputs": [
        {
          "internalType": "address",
          "name": "newOwner",
          "type": "address"
        }
      ],
      "name": "transferOwnership",
      "outputs": [],
      "stateMutability": "nonpayable",
      "type": "function"
    },
    {
      "inputs": [
        {
          "internalType": "address",
          "name": "who",
          "type": "address"
        },
        {
          "internalType": "bool",
          "name": "what",
          "type": "bool"
        }
      ],
      "name": "whitelist",
      "outputs": [],
      "stateMutability": "nonpayable",
      "type": "function"
    },
    {
      "inputs": [
        {
          "internalType": "address",
          "name": "",
          "type": "address"
        }
      ],
      "name": "whitelisted",
      "outputs": [
        {
          "internalType": "bool",
          "name": "",
          "type": "bool"
        }
      ],
      "stateMutability": "view",
      "type": "function"
    }
  ],
  "transactionHash": "0xcf9e73797fbf0fcf2cffe403a8a9c0d2400e17bfadc9c953f60378004433d4cf",
  "args": [],
  "numDeployments": 1,
  "solcInputHash": "d777b3037161a9d914dcb09d22e1b164",
  "bytecode": "0x608060405234801561001057600080fd5b5061002d61002261003260201b60201c565b61003a60201b60201c565b610100565b600033905090565b6000603360009054906101000a900473ffffffffffffffffffffffffffffffffffffffff16905081603360006101000a81548173ffffffffffffffffffffffffffffffffffffffff021916908373ffffffffffffffffffffffffffffffffffffffff1602179055508173ffffffffffffffffffffffffffffffffffffffff168173ffffffffffffffffffffffffffffffffffffffff167f8be0079c531659141344cd1fd0a4f28419497f9722a3daafe3b4186f6b6457e060405160405180910390a35050565b611ccf8061010f6000396000f3fe608060405234801561001057600080fd5b50600436106101215760003560e01c80637dc0d1d0116100ad578063d8d496ed11610071578063d8d496ed146102e4578063d936547e14610314578063e307c95214610344578063f2fde38b14610362578063f59c37081461037e57610121565b80637dc0d1d0146102525780638885711a146102705780638d8e5da71461028c5780638da5cb5b146102a8578063c6255443146102c657610121565b80635b9fe37f116100f45780635b9fe37f146101c057806362278463146101de578063715018a61461020e57806375d26413146102185780637c3702b11461023657610121565b80631459457a1461012657806316beb9821461014257806326837eda146101725780632f1f138b14610190575b600080fd5b610140600480360381019061013b9190611221565b61039a565b005b61015c600480360381019061015791906112d2565b6105ec565b6040516101699190611340565b60405180910390f35b61017a610705565b60405161018791906113ba565b60405180910390f35b6101aa60048036038101906101a591906113d5565b61072b565b6040516101b79190611411565b60405180910390f35b6101c8610743565b6040516101d5919061143b565b60405180910390f35b6101f860048036038101906101f391906113d5565b610769565b6040516102059190611411565b60405180910390f35b610216610781565b005b610220610795565b60405161022d919061143b565b60405180910390f35b610250600480360381019061024b9190611456565b6107bf565b005b61025a6108bb565b604051610267919061143b565b60405180910390f35b61028a600480360381019061028591906113d5565b6108e1565b005b6102a660048036038101906102a191906112d2565b610d33565b005b6102b0610e3b565b6040516102bd919061143b565b60405180910390f35b6102ce610e65565b6040516102db919061143b565b60405180910390f35b6102fe60048036038101906102f991906113d5565b610e74565b60405161030b9190611411565b60405180910390f35b61032e600480360381019061032991906113d5565b610e8c565b60405161033b9190611340565b60405180910390f35b61034c610eac565b60405161035991906114a4565b60405180910390f35b61037c600480360381019061037791906113d5565b610ed2565b005b610398600480360381019061039391906114eb565b610f56565b005b600060019054906101000a900460ff16806103b957506103b8610fb9565b5b806103cf575060008054906101000a900460ff16155b61040e576040517f08c379a0000000000000000000000000000000000000000000000000000000008152600401610405906115ae565b60405180910390fd5b60008060019054906101000a900460ff16159050801561045e576001600060016101000a81548160ff02191690831515021790555060016000806101000a81548160ff0219169083151502179055505b84603660006101000a81548173ffffffffffffffffffffffffffffffffffffffff021916908373ffffffffffffffffffffffffffffffffffffffff16021790555082603560006101000a81548173ffffffffffffffffffffffffffffffffffffffff021916908373ffffffffffffffffffffffffffffffffffffffff16021790555081603460006101000a81548173ffffffffffffffffffffffffffffffffffffffff021916908373ffffffffffffffffffffffffffffffffffffffff1602179055506001603a60008873ffffffffffffffffffffffffffffffffffffffff1673ffffffffffffffffffffffffffffffffffffffff16815260200190815260200160002060006101000a81548160ff02191690831515021790555083603b60006101000a81548173ffffffffffffffffffffffffffffffffffffffff021916908373ffffffffffffffffffffffffffffffffffffffff1602179055506105c386610fca565b80156105e45760008060016101000a81548160ff0219169083151502179055505b505050505050565b60003373ffffffffffffffffffffffffffffffffffffffff16603460009054906101000a900473ffffffffffffffffffffffffffffffffffffffff1673ffffffffffffffffffffffffffffffffffffffff161461067e576040517f08c379a00000000000000000000000000000000000000000000000000000000081526004016106759061161a565b60405180910390fd5b8273ffffffffffffffffffffffffffffffffffffffff1663a9059cbb85846040518363ffffffff1660e01b81526004016106b992919061163a565b6020604051808303816000875af11580156106d8573d6000803e3d6000fd5b505050506040513d601f19601f820116820180604052508101906106fc9190611678565b90509392505050565b603660009054906101000a900473ffffffffffffffffffffffffffffffffffffffff1681565b60396020528060005260406000206000915090505481565b603460009054906101000a900473ffffffffffffffffffffffffffffffffffffffff1681565b60386020528060005260406000206000915090505481565b610789611090565b6107936000610fca565b565b6000603460009054906101000a900473ffffffffffffffffffffffffffffffffffffffff16905090565b603660009054906101000a900473ffffffffffffffffffffffffffffffffffffffff1673ffffffffffffffffffffffffffffffffffffffff166323b872dd3330846040518463ffffffff1660e01b815260040161081e939291906116a5565b6020604051808303816000875af115801561083d573d6000803e3d6000fd5b505050506040513d601f19601f820116820180604052508101906108619190611678565b5080603760003373ffffffffffffffffffffffffffffffffffffffff1673ffffffffffffffffffffffffffffffffffffffff16815260200190815260200160002060008282546108b1919061170b565b9250508190555050565b603b60009054906101000a900473ffffffffffffffffffffffffffffffffffffffff1681565b603a60003373ffffffffffffffffffffffffffffffffffffffff1673ffffffffffffffffffffffffffffffffffffffff16815260200190815260200160002060009054906101000a900460ff1661096d576040517f08c379a0000000000000000000000000000000000000000000000000000000008152600401610964906117ad565b60405180910390fd5b6000603760008373ffffffffffffffffffffffffffffffffffffffff1673ffffffffffffffffffffffffffffffffffffffff1681526020019081526020016000205490506000603860008473ffffffffffffffffffffffffffffffffffffffff1673ffffffffffffffffffffffffffffffffffffffff16815260200190815260200160002054905060008183610a0391906117cd565b905060008111610a48576040517f08c379a0000000000000000000000000000000000000000000000000000000008152600401610a3f9061184d565b60405180910390fd5b4262015180603960008773ffffffffffffffffffffffffffffffffffffffff1673ffffffffffffffffffffffffffffffffffffffff16815260200190815260200160002054610a9791906117cd565b1015610ad8576040517f08c379a0000000000000000000000000000000000000000000000000000000008152600401610acf906118b9565b60405180910390fd5b60006201518082610ae99190611908565b905060006040518060e00160405280836affffffffffffffffffffff168152602001600081526020016201518042610b21919061170b565b63ffffffff1681526020018773ffffffffffffffffffffffffffffffffffffffff168152602001603660009054906101000a900473ffffffffffffffffffffffffffffffffffffffff1673ffffffffffffffffffffffffffffffffffffffff1681526020013073ffffffffffffffffffffffffffffffffffffffff168152602001603b60009054906101000a900473ffffffffffffffffffffffffffffffffffffffff1673ffffffffffffffffffffffffffffffffffffffff1681525090506000600167ffffffffffffffff811115610bfd57610bfc611939565b5b604051908082528060200260200182016040528015610c3657816020015b610c23611116565b815260200190600190039081610c1b5790505b5090508181600081518110610c4e57610c4d611968565b5b6020026020010181905250603560009054906101000a900473ffffffffffffffffffffffffffffffffffffffff1673ffffffffffffffffffffffffffffffffffffffff1663955c2ad7826040518263ffffffff1660e01b8152600401610cb49190611b79565b600060405180830381600087803b158015610cce57600080fd5b505af1158015610ce2573d6000803e3d6000fd5b5050505042603960008973ffffffffffffffffffffffffffffffffffffffff1673ffffffffffffffffffffffffffffffffffffffff1681526020019081526020016000208190555050505050505050565b610d3b611090565b8273ffffffffffffffffffffffffffffffffffffffff1663a9059cbb83836040518363ffffffff1660e01b8152600401610d7692919061163a565b6020604051808303816000875af1158015610d95573d6000803e3d6000fd5b505050506040513d601f19601f82011682018060405250810190610db99190611678565b508173ffffffffffffffffffffffffffffffffffffffff168373ffffffffffffffffffffffffffffffffffffffff163373ffffffffffffffffffffffffffffffffffffffff167f7dc4ea712e6400e67a5abca1a983e5c420c386c19936dc120cd860b50b8e257984604051610e2e9190611411565b60405180910390a4505050565b6000603360009054906101000a900473ffffffffffffffffffffffffffffffffffffffff16905090565b6000610e6f610e3b565b905090565b60376020528060005260406000206000915090505481565b603a6020528060005260406000206000915054906101000a900460ff1681565b603560009054906101000a900473ffffffffffffffffffffffffffffffffffffffff1681565b610eda611090565b600073ffffffffffffffffffffffffffffffffffffffff168173ffffffffffffffffffffffffffffffffffffffff161415610f4a576040517f08c379a0000000000000000000000000000000000000000000000000000000008152600401610f4190611c0d565b60405180910390fd5b610f5381610fca565b50565b610f5e611090565b80603a60008473ffffffffffffffffffffffffffffffffffffffff1673ffffffffffffffffffffffffffffffffffffffff16815260200190815260200160002060006101000a81548160ff0219169083151502179055505050565b600080303b90506000811491505090565b6000603360009054906101000a900473ffffffffffffffffffffffffffffffffffffffff16905081603360006101000a81548173ffffffffffffffffffffffffffffffffffffffff021916908373ffffffffffffffffffffffffffffffffffffffff1602179055508173ffffffffffffffffffffffffffffffffffffffff168173ffffffffffffffffffffffffffffffffffffffff167f8be0079c531659141344cd1fd0a4f28419497f9722a3daafe3b4186f6b6457e060405160405180910390a35050565b61109861110e565b73ffffffffffffffffffffffffffffffffffffffff166110b6610e3b565b73ffffffffffffffffffffffffffffffffffffffff161461110c576040517f08c379a000000000000000000000000000000000000000000000000000000000815260040161110390611c79565b60405180910390fd5b565b600033905090565b6040518060e0016040528060006affffffffffffffffffffff16815260200160008152602001600063ffffffff168152602001600073ffffffffffffffffffffffffffffffffffffffff168152602001600073ffffffffffffffffffffffffffffffffffffffff168152602001600073ffffffffffffffffffffffffffffffffffffffff168152602001600073ffffffffffffffffffffffffffffffffffffffff1681525090565b600080fd5b600073ffffffffffffffffffffffffffffffffffffffff82169050919050565b60006111ee826111c3565b9050919050565b6111fe816111e3565b811461120957600080fd5b50565b60008135905061121b816111f5565b92915050565b600080600080600060a0868803121561123d5761123c6111be565b5b600061124b8882890161120c565b955050602061125c8882890161120c565b945050604061126d8882890161120c565b935050606061127e8882890161120c565b925050608061128f8882890161120c565b9150509295509295909350565b6000819050919050565b6112af8161129c565b81146112ba57600080fd5b50565b6000813590506112cc816112a6565b92915050565b6000806000606084860312156112eb576112ea6111be565b5b60006112f98682870161120c565b935050602061130a8682870161120c565b925050604061131b868287016112bd565b9150509250925092565b60008115159050919050565b61133a81611325565b82525050565b60006020820190506113556000830184611331565b92915050565b6000819050919050565b600061138061137b611376846111c3565b61135b565b6111c3565b9050919050565b600061139282611365565b9050919050565b60006113a482611387565b9050919050565b6113b481611399565b82525050565b60006020820190506113cf60008301846113ab565b92915050565b6000602082840312156113eb576113ea6111be565b5b60006113f98482850161120c565b91505092915050565b61140b8161129c565b82525050565b60006020820190506114266000830184611402565b92915050565b611435816111e3565b82525050565b6000602082019050611450600083018461142c565b92915050565b60006020828403121561146c5761146b6111be565b5b600061147a848285016112bd565b91505092915050565b600061148e82611387565b9050919050565b61149e81611483565b82525050565b60006020820190506114b96000830184611495565b92915050565b6114c881611325565b81146114d357600080fd5b50565b6000813590506114e5816114bf565b92915050565b60008060408385031215611502576115016111be565b5b60006115108582860161120c565b9250506020611521858286016114d6565b9150509250929050565b600082825260208201905092915050565b7f436f6e747261637420696e7374616e63652068617320616c726561647920626560008201527f656e20696e697469616c697a6564000000000000000000000000000000000000602082015250565b6000611598602e8361152b565b91506115a38261153c565b604082019050919050565b600060208201905081810360008301526115c78161158b565b9050919050565b7f43414c4c45525f4e4f545f494e43454e54495645535f434f4e54524f4c4c4552600082015250565b600061160460208361152b565b915061160f826115ce565b602082019050919050565b60006020820190508181036000830152611633816115f7565b9050919050565b600060408201905061164f600083018561142c565b61165c6020830184611402565b9392505050565b600081519050611672816114bf565b92915050565b60006020828403121561168e5761168d6111be565b5b600061169c84828501611663565b91505092915050565b60006060820190506116ba600083018661142c565b6116c7602083018561142c565b6116d46040830184611402565b949350505050565b7f4e487b7100000000000000000000000000000000000000000000000000000000600052601160045260246000fd5b60006117168261129c565b91506117218361129c565b9250827fffffffffffffffffffffffffffffffffffffffffffffffffffffffffffffffff03821115611756576117556116dc565b5b828201905092915050565b7f6e6f742077686974656c69737465640000000000000000000000000000000000600082015250565b6000611797600f8361152b565b91506117a282611761565b602082019050919050565b600060208201905081810360008301526117c68161178a565b9050919050565b60006117d88261129c565b91506117e38361129c565b9250828210156117f6576117f56116dc565b5b828203905092915050565b7f6e6f20656d697373696f6e7320746f206e6f7469667900000000000000000000600082015250565b600061183760168361152b565b915061184282611801565b602082019050919050565b600060208201905081810360008301526118668161182a565b9050919050565b7f746f6f20736f6f6e20746f206e6f746966790000000000000000000000000000600082015250565b60006118a360128361152b565b91506118ae8261186d565b602082019050919050565b600060208201905081810360008301526118d281611896565b9050919050565b7f4e487b7100000000000000000000000000000000000000000000000000000000600052601260045260246000fd5b60006119138261129c565b915061191e8361129c565b92508261192e5761192d6118d9565b5b828204905092915050565b7f4e487b7100000000000000000000000000000000000000000000000000000000600052604160045260246000fd5b7f4e487b7100000000000000000000000000000000000000000000000000000000600052603260045260246000fd5b600081519050919050565b600082825260208201905092915050565b6000819050602082019050919050565b60006affffffffffffffffffffff82169050919050565b6119e3816119c3565b82525050565b6119f28161129c565b82525050565b600063ffffffff82169050919050565b611a11816119f8565b82525050565b611a20816111e3565b82525050565b6000611a3182611387565b9050919050565b611a4181611a26565b82525050565b6000611a5282611387565b9050919050565b611a6281611a47565b82525050565b60e082016000820151611a7e60008501826119da565b506020820151611a9160208501826119e9565b506040820151611aa46040850182611a08565b506060820151611ab76060850182611a17565b506080820151611aca6080850182611a17565b5060a0820151611add60a0850182611a38565b5060c0820151611af060c0850182611a59565b50505050565b6000611b028383611a68565b60e08301905092915050565b6000602082019050919050565b6000611b2682611997565b611b3081856119a2565b9350611b3b836119b3565b8060005b83811015611b6c578151611b538882611af6565b9750611b5e83611b0e565b925050600181019050611b3f565b5085935050505092915050565b60006020820190508181036000830152611b938184611b1b565b905092915050565b7f4f776e61626c653a206e6577206f776e657220697320746865207a65726f206160008201527f6464726573730000000000000000000000000000000000000000000000000000602082015250565b6000611bf760268361152b565b9150611c0282611b9b565b604082019050919050565b60006020820190508181036000830152611c2681611bea565b9050919050565b7f4f776e61626c653a2063616c6c6572206973206e6f7420746865206f776e6572600082015250565b6000611c6360208361152b565b9150611c6e82611c2d565b602082019050919050565b60006020820190508181036000830152611c9281611c56565b905091905056fea26469706673582212200aefb85ba0edd6ab66e928304a276b0536fcda2c1e5b4b96da5a3810ca4c198f64736f6c634300080c0033",
  "devdoc": {
    "details": "NOTE That ATokenAerodrome should not be made borrowable",
    "kind": "dev",
    "methods": {
      "emergencyWithdrawal(address,address,uint256)": {
        "details": "Perform an emergency token withdrawal only callable by the Rewards admin",
        "params": {
          "amount": "Amount of the withdrawal",
          "to": "Address of the recipient of the withdrawal",
          "token": "Address of the token to withdraw funds from this contract"
        }
      },
      "getIncentivesController()": {
        "returns": {
          "_0": "Returns the address of the Incentives Controller"
        }
      },
      "getRewardsAdmin()": {
        "returns": {
          "_0": "Returns the address of the Rewards admin"
        }
      },
      "owner()": {
        "details": "Returns the address of the current owner."
      },
      "performTransfer(address,address,uint256)": {
        "details": "Perform custom transfer logic via delegate call from source contract to a TransferStrategy implementation",
        "params": {
          "amount": "Amount to transfer to the \"to\" address parameter",
          "reward": "Address of the reward token",
          "to": "Account to transfer rewards"
        },
        "returns": {
          "_0": "Returns true bool if transfer logic succeeds"
        }
      },
      "renounceOwnership()": {
        "details": "Leaves the contract without owner. It will not be possible to call `onlyOwner` functions. Can only be called by the current owner. NOTE: Renouncing ownership will leave the contract without an owner, thereby disabling any functionality that is only available to the owner."
      },
      "transferOwnership(address)": {
        "details": "Transfers ownership of the contract to a new account (`newOwner`). Can only be called by the current owner."
      }
    },
    "version": 1
  },
  "userdoc": {
    "kind": "user",
    "methods": {},
    "version": 1
  },
  "storageLayout": {
    "storage": [
      {
        "astId": 738,
        "contract": "contracts/aerodrome/AeroEmissionsStrategy.sol:AeroEmissionsStrategy",
        "label": "initialized",
        "offset": 0,
        "slot": "0",
        "type": "t_bool"
      },
      {
        "astId": 741,
        "contract": "contracts/aerodrome/AeroEmissionsStrategy.sol:AeroEmissionsStrategy",
        "label": "initializing",
        "offset": 1,
        "slot": "0",
        "type": "t_bool"
      },
      {
        "astId": 799,
        "contract": "contracts/aerodrome/AeroEmissionsStrategy.sol:AeroEmissionsStrategy",
        "label": "______gap",
        "offset": 0,
        "slot": "1",
        "type": "t_array(t_uint256)50_storage"
      },
      {
        "astId": 7,
        "contract": "contracts/aerodrome/AeroEmissionsStrategy.sol:AeroEmissionsStrategy",
        "label": "_owner",
        "offset": 0,
        "slot": "51",
        "type": "t_address"
      },
      {
        "astId": 5711,
        "contract": "contracts/aerodrome/AeroEmissionsStrategy.sol:AeroEmissionsStrategy",
        "label": "incentiveController",
        "offset": 0,
        "slot": "52",
        "type": "t_address"
      },
      {
        "astId": 5714,
        "contract": "contracts/aerodrome/AeroEmissionsStrategy.sol:AeroEmissionsStrategy",
        "label": "emissionManager",
        "offset": 0,
        "slot": "53",
        "type": "t_contract(IEmissionManager)4861"
      },
      {
        "astId": 5717,
        "contract": "contracts/aerodrome/AeroEmissionsStrategy.sol:AeroEmissionsStrategy",
        "label": "aero",
        "offset": 0,
        "slot": "54",
        "type": "t_contract(IERC20)317"
      },
      {
        "astId": 5721,
        "contract": "contracts/aerodrome/AeroEmissionsStrategy.sol:AeroEmissionsStrategy",
        "label": "emissionsReceived",
        "offset": 0,
        "slot": "55",
        "type": "t_mapping(t_address,t_uint256)"
      },
      {
        "astId": 5725,
        "contract": "contracts/aerodrome/AeroEmissionsStrategy.sol:AeroEmissionsStrategy",
        "label": "emissionsNotified",
        "offset": 0,
        "slot": "56",
        "type": "t_mapping(t_address,t_uint256)"
      },
      {
        "astId": 5729,
        "contract": "contracts/aerodrome/AeroEmissionsStrategy.sol:AeroEmissionsStrategy",
        "label": "lastNotified",
        "offset": 0,
        "slot": "57",
        "type": "t_mapping(t_address,t_uint256)"
      },
      {
        "astId": 5733,
        "contract": "contracts/aerodrome/AeroEmissionsStrategy.sol:AeroEmissionsStrategy",
        "label": "whitelisted",
        "offset": 0,
        "slot": "58",
        "type": "t_mapping(t_address,t_bool)"
      },
      {
        "astId": 5735,
        "contract": "contracts/aerodrome/AeroEmissionsStrategy.sol:AeroEmissionsStrategy",
        "label": "oracle",
        "offset": 0,
        "slot": "59",
        "type": "t_address"
      }
    ],
    "types": {
      "t_address": {
        "encoding": "inplace",
        "label": "address",
        "numberOfBytes": "20"
      },
      "t_array(t_uint256)50_storage": {
        "base": "t_uint256",
        "encoding": "inplace",
        "label": "uint256[50]",
        "numberOfBytes": "1600"
      },
      "t_bool": {
        "encoding": "inplace",
        "label": "bool",
        "numberOfBytes": "1"
      },
      "t_contract(IERC20)317": {
        "encoding": "inplace",
        "label": "contract IERC20",
        "numberOfBytes": "20"
      },
      "t_contract(IEmissionManager)4861": {
        "encoding": "inplace",
        "label": "contract IEmissionManager",
        "numberOfBytes": "20"
      },
      "t_mapping(t_address,t_bool)": {
        "encoding": "mapping",
        "key": "t_address",
        "label": "mapping(address => bool)",
        "numberOfBytes": "32",
        "value": "t_bool"
      },
      "t_mapping(t_address,t_uint256)": {
        "encoding": "mapping",
        "key": "t_address",
        "label": "mapping(address => uint256)",
        "numberOfBytes": "32",
        "value": "t_uint256"
      },
      "t_uint256": {
        "encoding": "inplace",
        "label": "uint256",
        "numberOfBytes": "32"
      }
    }
  }
}