{
  "address": "0xD8e429568F57f21C111faf1Eab1ddB5107Cc9817",
  "abi": [
    {
      "inputs": [
        {
          "internalType": "contract IPool",
          "name": "pool",
          "type": "address"
        }
      ],
      "stateMutability": "nonpayable",
      "type": "constructor"
    },
    {
      "anonymous": false,
      "inputs": [
        {
          "indexed": true,
          "internalType": "address",
          "name": "owner",
          "type": "address"
        },
        {
          "indexed": true,
          "internalType": "address",
          "name": "spender",
          "type": "address"
        },
        {
          "indexed": false,
          "internalType": "uint256",
          "name": "value",
          "type": "uint256"
        }
      ],
      "name": "Approval",
      "type": "event"
    },
    {
      "anonymous": false,
      "inputs": [
        {
          "indexed": true,
          "internalType": "address",
          "name": "from",
          "type": "address"
        },
        {
          "indexed": true,
          "internalType": "address",
          "name": "to",
          "type": "address"
        },
        {
          "indexed": false,
          "internalType": "uint256",
          "name": "value",
          "type": "uint256"
        },
        {
          "indexed": false,
          "internalType": "uint256",
          "name": "index",
          "type": "uint256"
        }
      ],
      "name": "BalanceTransfer",
      "type": "event"
    },
    {
      "anonymous": false,
      "inputs": [
        {
          "indexed": true,
          "internalType": "address",
          "name": "from",
          "type": "address"
        },
        {
          "indexed": true,
          "internalType": "address",
          "name": "target",
          "type": "address"
        },
        {
          "indexed": false,
          "internalType": "uint256",
          "name": "value",
          "type": "uint256"
        },
        {
          "indexed": false,
          "internalType": "uint256",
          "name": "balanceIncrease",
          "type": "uint256"
        },
        {
          "indexed": false,
          "internalType": "uint256",
          "name": "index",
          "type": "uint256"
        }
      ],
      "name": "Burn",
      "type": "event"
    },
    {
      "anonymous": false,
      "inputs": [
        {
          "indexed": true,
          "internalType": "address",
          "name": "underlyingAsset",
          "type": "address"
        },
        {
          "indexed": true,
          "internalType": "address",
          "name": "pool",
          "type": "address"
        },
        {
          "indexed": false,
          "internalType": "address",
          "name": "treasury",
          "type": "address"
        },
        {
          "indexed": false,
          "internalType": "address",
          "name": "incentivesController",
          "type": "address"
        },
        {
          "indexed": false,
          "internalType": "uint8",
          "name": "aTokenDecimals",
          "type": "uint8"
        },
        {
          "indexed": false,
          "internalType": "string",
          "name": "aTokenName",
          "type": "string"
        },
        {
          "indexed": false,
          "internalType": "string",
          "name": "aTokenSymbol",
          "type": "string"
        },
        {
          "indexed": false,
          "internalType": "bytes",
          "name": "params",
          "type": "bytes"
        }
      ],
      "name": "Initialized",
      "type": "event"
    },
    {
      "anonymous": false,
      "inputs": [
        {
          "indexed": true,
          "internalType": "address",
          "name": "caller",
          "type": "address"
        },
        {
          "indexed": true,
          "internalType": "address",
          "name": "onBehalfOf",
          "type": "address"
        },
        {
          "indexed": false,
          "internalType": "uint256",
          "name": "value",
          "type": "uint256"
        },
        {
          "indexed": false,
          "internalType": "uint256",
          "name": "balanceIncrease",
          "type": "uint256"
        },
        {
          "indexed": false,
          "internalType": "uint256",
          "name": "index",
          "type": "uint256"
        }
      ],
      "name": "Mint",
      "type": "event"
    },
    {
      "anonymous": false,
      "inputs": [
        {
          "indexed": true,
          "internalType": "address",
          "name": "from",
          "type": "address"
        },
        {
          "indexed": true,
          "internalType": "address",
          "name": "to",
          "type": "address"
        },
        {
          "indexed": false,
          "internalType": "uint256",
          "name": "value",
          "type": "uint256"
        }
      ],
      "name": "Transfer",
      "type": "event"
    },
    {
      "inputs": [],
      "name": "ATOKEN_REVISION",
      "outputs": [
        {
          "internalType": "uint256",
          "name": "",
          "type": "uint256"
        }
      ],
      "stateMutability": "view",
      "type": "function"
    },
    {
      "inputs": [],
      "name": "DOMAIN_SEPARATOR",
      "outputs": [
        {
          "internalType": "bytes32",
          "name": "",
          "type": "bytes32"
        }
      ],
      "stateMutability": "view",
      "type": "function"
    },
    {
      "inputs": [],
      "name": "EIP712_REVISION",
      "outputs": [
        {
          "internalType": "bytes",
          "name": "",
          "type": "bytes"
        }
      ],
      "stateMutability": "view",
      "type": "function"
    },
    {
      "inputs": [],
      "name": "PERMIT_TYPEHASH",
      "outputs": [
        {
          "internalType": "bytes32",
          "name": "",
          "type": "bytes32"
        }
      ],
      "stateMutability": "view",
      "type": "function"
    },
    {
      "inputs": [],
      "name": "POOL",
      "outputs": [
        {
          "internalType": "contract IPool",
          "name": "",
          "type": "address"
        }
      ],
      "stateMutability": "view",
      "type": "function"
    },
    {
      "inputs": [],
      "name": "RESERVE_TREASURY_ADDRESS",
      "outputs": [
        {
          "internalType": "address",
          "name": "",
          "type": "address"
        }
      ],
      "stateMutability": "view",
      "type": "function"
    },
    {
      "inputs": [],
      "name": "UNDERLYING_ASSET_ADDRESS",
      "outputs": [
        {
          "internalType": "address",
          "name": "",
          "type": "address"
        }
      ],
      "stateMutability": "view",
      "type": "function"
    },
    {
      "inputs": [],
      "name": "aero",
      "outputs": [
        {
          "internalType": "contract IERC20",
          "name": "",
          "type": "address"
        }
      ],
      "stateMutability": "view",
      "type": "function"
    },
    {
      "inputs": [],
      "name": "aeroEmissionReceiver",
      "outputs": [
        {
          "internalType": "address",
          "name": "",
          "type": "address"
        }
      ],
      "stateMutability": "view",
      "type": "function"
    },
    {
      "inputs": [
        {
          "internalType": "address",
          "name": "owner",
          "type": "address"
        },
        {
          "internalType": "address",
          "name": "spender",
          "type": "address"
        }
      ],
      "name": "allowance",
      "outputs": [
        {
          "internalType": "uint256",
          "name": "",
          "type": "uint256"
        }
      ],
      "stateMutability": "view",
      "type": "function"
    },
    {
      "inputs": [
        {
          "internalType": "address",
          "name": "spender",
          "type": "address"
        },
        {
          "internalType": "uint256",
          "name": "amount",
          "type": "uint256"
        }
      ],
      "name": "approve",
      "outputs": [
        {
          "internalType": "bool",
          "name": "",
          "type": "bool"
        }
      ],
      "stateMutability": "nonpayable",
      "type": "function"
    },
    {
      "inputs": [
        {
          "internalType": "address",
          "name": "user",
          "type": "address"
        }
      ],
      "name": "balanceOf",
      "outputs": [
        {
          "internalType": "uint256",
          "name": "",
          "type": "uint256"
        }
      ],
      "stateMutability": "view",
      "type": "function"
    },
    {
      "inputs": [
        {
          "internalType": "address",
          "name": "from",
          "type": "address"
        },
        {
          "internalType": "address",
          "name": "receiverOfUnderlying",
          "type": "address"
        },
        {
          "internalType": "uint256",
          "name": "amount",
          "type": "uint256"
        },
        {
          "internalType": "uint256",
          "name": "index",
          "type": "uint256"
        }
      ],
      "name": "burn",
      "outputs": [],
      "stateMutability": "nonpayable",
      "type": "function"
    },
    {
      "inputs": [],
      "name": "decimals",
      "outputs": [
        {
          "internalType": "uint8",
          "name": "",
          "type": "uint8"
        }
      ],
      "stateMutability": "view",
      "type": "function"
    },
    {
      "inputs": [
        {
          "internalType": "address",
          "name": "spender",
          "type": "address"
        },
        {
          "internalType": "uint256",
          "name": "subtractedValue",
          "type": "uint256"
        }
      ],
      "name": "decreaseAllowance",
      "outputs": [
        {
          "internalType": "bool",
          "name": "",
          "type": "bool"
        }
      ],
      "stateMutability": "nonpayable",
      "type": "function"
    },
    {
      "inputs": [],
      "name": "depositToGauge",
      "outputs": [],
      "stateMutability": "nonpayable",
      "type": "function"
    },
    {
      "inputs": [],
      "name": "gauge",
      "outputs": [
        {
          "internalType": "contract IAerodromeGauge",
          "name": "",
          "type": "address"
        }
      ],
      "stateMutability": "view",
      "type": "function"
    },
    {
      "inputs": [],
      "name": "getIncentivesController",
      "outputs": [
        {
          "internalType": "contract IAaveIncentivesController",
          "name": "",
          "type": "address"
        }
      ],
      "stateMutability": "view",
      "type": "function"
    },
    {
      "inputs": [
        {
          "internalType": "address",
          "name": "user",
          "type": "address"
        }
      ],
      "name": "getPreviousIndex",
      "outputs": [
        {
          "internalType": "uint256",
          "name": "",
          "type": "uint256"
        }
      ],
      "stateMutability": "view",
      "type": "function"
    },
    {
      "inputs": [
        {
          "internalType": "address",
          "name": "user",
          "type": "address"
        }
      ],
      "name": "getScaledUserBalanceAndSupply",
      "outputs": [
        {
          "internalType": "uint256",
          "name": "",
          "type": "uint256"
        },
        {
          "internalType": "uint256",
          "name": "",
          "type": "uint256"
        }
      ],
      "stateMutability": "view",
      "type": "function"
    },
    {
      "inputs": [
        {
          "internalType": "address",
          "name": "user",
          "type": "address"
        },
        {
          "internalType": "address",
          "name": "onBehalfOf",
          "type": "address"
        },
        {
          "internalType": "uint256",
          "name": "amount",
          "type": "uint256"
        }
      ],
      "name": "handleRepayment",
      "outputs": [],
      "stateMutability": "nonpayable",
      "type": "function"
    },
    {
      "inputs": [
        {
          "internalType": "address",
          "name": "spender",
          "type": "address"
        },
        {
          "internalType": "uint256",
          "name": "addedValue",
          "type": "uint256"
        }
      ],
      "name": "increaseAllowance",
      "outputs": [
        {
          "internalType": "bool",
          "name": "",
          "type": "bool"
        }
      ],
      "stateMutability": "nonpayable",
      "type": "function"
    },
    {
      "inputs": [
        {
          "internalType": "contract IPool",
          "name": "initializingPool",
          "type": "address"
        },
        {
          "internalType": "address",
          "name": "treasury",
          "type": "address"
        },
        {
          "internalType": "address",
          "name": "underlyingAsset",
          "type": "address"
        },
        {
          "internalType": "contract IAaveIncentivesController",
          "name": "incentivesController",
          "type": "address"
        },
        {
          "internalType": "uint8",
          "name": "aTokenDecimals",
          "type": "uint8"
        },
        {
          "internalType": "string",
          "name": "aTokenName",
          "type": "string"
        },
        {
          "internalType": "string",
          "name": "aTokenSymbol",
          "type": "string"
        },
        {
          "internalType": "bytes",
          "name": "params",
          "type": "bytes"
        }
      ],
      "name": "initialize",
      "outputs": [],
      "stateMutability": "nonpayable",
      "type": "function"
    },
    {
      "inputs": [
        {
          "internalType": "address",
          "name": "caller",
          "type": "address"
        },
        {
          "internalType": "address",
          "name": "onBehalfOf",
          "type": "address"
        },
        {
          "internalType": "uint256",
          "name": "amount",
          "type": "uint256"
        },
        {
          "internalType": "uint256",
          "name": "index",
          "type": "uint256"
        }
      ],
      "name": "mint",
      "outputs": [
        {
          "internalType": "bool",
          "name": "",
          "type": "bool"
        }
      ],
      "stateMutability": "nonpayable",
      "type": "function"
    },
    {
      "inputs": [
        {
          "internalType": "uint256",
          "name": "amount",
          "type": "uint256"
        },
        {
          "internalType": "uint256",
          "name": "index",
          "type": "uint256"
        }
      ],
      "name": "mintToTreasury",
      "outputs": [],
      "stateMutability": "nonpayable",
      "type": "function"
    },
    {
      "inputs": [],
      "name": "name",
      "outputs": [
        {
          "internalType": "string",
          "name": "",
          "type": "string"
        }
      ],
      "stateMutability": "view",
      "type": "function"
    },
    {
      "inputs": [
        {
          "internalType": "address",
          "name": "owner",
          "type": "address"
        }
      ],
      "name": "nonces",
      "outputs": [
        {
          "internalType": "uint256",
          "name": "",
          "type": "uint256"
        }
      ],
      "stateMutability": "view",
      "type": "function"
    },
    {
      "inputs": [
        {
          "internalType": "address",
          "name": "from",
          "type": "address"
        },
        {
          "internalType": "address",
          "name": "to",
          "type": "address"
        },
        {
          "internalType": "uint256",
          "name": "amount",
          "type": "uint256"
        }
      ],
      "name": "recall",
      "outputs": [],
      "stateMutability": "nonpayable",
      "type": "function"
    },
    {
      "inputs": [],
      "name": "refreshRewards",
      "outputs": [],
      "stateMutability": "nonpayable",
      "type": "function"
    },
    {
      "inputs": [
        {
          "internalType": "address",
          "name": "token",
          "type": "address"
        },
        {
          "internalType": "address",
          "name": "to",
          "type": "address"
        },
        {
          "internalType": "uint256",
          "name": "amount",
          "type": "uint256"
        }
      ],
      "name": "rescueTokens",
      "outputs": [],
      "stateMutability": "nonpayable",
      "type": "function"
    },
    {
      "inputs": [
        {
          "internalType": "address",
          "name": "user",
          "type": "address"
        }
      ],
      "name": "scaledBalanceOf",
      "outputs": [
        {
          "internalType": "uint256",
          "name": "",
          "type": "uint256"
        }
      ],
      "stateMutability": "view",
      "type": "function"
    },
    {
      "inputs": [],
      "name": "scaledTotalSupply",
      "outputs": [
        {
          "internalType": "uint256",
          "name": "",
          "type": "uint256"
        }
      ],
      "stateMutability": "view",
      "type": "function"
    },
    {
      "inputs": [
        {
          "internalType": "address",
          "name": "newManager",
          "type": "address"
        }
      ],
      "name": "setEmissionsManager",
      "outputs": [],
      "stateMutability": "nonpayable",
      "type": "function"
    },
    {
      "inputs": [
        {
          "internalType": "contract IAaveIncentivesController",
          "name": "controller",
          "type": "address"
        }
      ],
      "name": "setIncentivesController",
      "outputs": [],
      "stateMutability": "nonpayable",
      "type": "function"
    },
    {
      "inputs": [],
      "name": "symbol",
      "outputs": [
        {
          "internalType": "string",
          "name": "",
          "type": "string"
        }
      ],
      "stateMutability": "view",
      "type": "function"
    },
    {
      "inputs": [],
      "name": "totalSupply",
      "outputs": [
        {
          "internalType": "uint256",
          "name": "",
          "type": "uint256"
        }
      ],
      "stateMutability": "view",
      "type": "function"
    },
    {
      "inputs": [
        {
          "internalType": "address",
          "name": "recipient",
          "type": "address"
        },
        {
          "internalType": "uint256",
          "name": "amount",
          "type": "uint256"
        }
      ],
      "name": "transfer",
      "outputs": [
        {
          "internalType": "bool",
          "name": "",
          "type": "bool"
        }
      ],
      "stateMutability": "nonpayable",
      "type": "function"
    },
    {
      "inputs": [
        {
          "internalType": "address",
          "name": "sender",
          "type": "address"
        },
        {
          "internalType": "address",
          "name": "recipient",
          "type": "address"
        },
        {
          "internalType": "uint256",
          "name": "amount",
          "type": "uint256"
        }
      ],
      "name": "transferFrom",
      "outputs": [
        {
          "internalType": "bool",
          "name": "",
          "type": "bool"
        }
      ],
      "stateMutability": "nonpayable",
      "type": "function"
    },
    {
      "inputs": [
        {
          "internalType": "address",
          "name": "from",
          "type": "address"
        },
        {
          "internalType": "address",
          "name": "to",
          "type": "address"
        },
        {
          "internalType": "uint256",
          "name": "value",
          "type": "uint256"
        }
      ],
      "name": "transferOnLiquidation",
      "outputs": [],
      "stateMutability": "nonpayable",
      "type": "function"
    },
    {
      "inputs": [
        {
          "internalType": "address",
          "name": "target",
          "type": "address"
        },
        {
          "internalType": "uint256",
          "name": "amount",
          "type": "uint256"
        }
      ],
      "name": "transferUnderlyingTo",
      "outputs": [],
      "stateMutability": "nonpayable",
      "type": "function"
    }
  ],
  "transactionHash": "0x3610c6ef296e5e168d1c7b585a4f4222d4e1394a170be2c48f8df7cb7f7db1f2",
  "args": [
    "0x766f21277087E18967c1b10bF602d8Fe56d0c671"
  ],
  "numDeployments": 1,
  "solcInputHash": "169d251f3a135c95a38cac77822a1aca",
  "bytecode": "0x60e0604052600080553480156200001557600080fd5b50604051620060123803806200601283398181016040528101906200003b919062000323565b80806040518060400160405280600b81526020017f41544f4b454e5f494d504c0000000000000000000000000000000000000000008152506040518060400160405280600b81526020017f41544f4b454e5f494d504c000000000000000000000000000000000000000000815250600083838383838383838373ffffffffffffffffffffffffffffffffffffffff16630542975c6040518163ffffffff1660e01b8152600401602060405180830381865afa158015620000ff573d6000803e3d6000fd5b505050506040513d601f19601f820116820180604052508101906200012591906200039a565b73ffffffffffffffffffffffffffffffffffffffff1660808173ffffffffffffffffffffffffffffffffffffffff1681525050826037908051906020019062000170929190620001f5565b50816038908051906020019062000189929190620001f5565b5080603960006101000a81548160ff021916908360ff1602179055508373ffffffffffffffffffffffffffffffffffffffff1660a08173ffffffffffffffffffffffffffffffffffffffff16815250505050505050505050505050504660c08181525050505062000431565b8280546200020390620003fb565b90600052602060002090601f01602090048101928262000227576000855562000273565b82601f106200024257805160ff191683800117855562000273565b8280016001018555821562000273579182015b828111156200027257825182559160200191906001019062000255565b5b50905062000282919062000286565b5090565b5b80821115620002a157600081600090555060010162000287565b5090565b600080fd5b600073ffffffffffffffffffffffffffffffffffffffff82169050919050565b6000620002d782620002aa565b9050919050565b6000620002eb82620002ca565b9050919050565b620002fd81620002de565b81146200030957600080fd5b50565b6000815190506200031d81620002f2565b92915050565b6000602082840312156200033c576200033b620002a5565b5b60006200034c848285016200030c565b91505092915050565b60006200036282620002ca565b9050919050565b620003748162000355565b81146200038057600080fd5b50565b600081519050620003948162000369565b92915050565b600060208284031215620003b357620003b2620002a5565b5b6000620003c38482850162000383565b91505092915050565b7f4e487b7100000000000000000000000000000000000000000000000000000000600052602260045260246000fd5b600060028204905060018216806200041457607f821691505b602082108114156200042b576200042a620003cc565b5b50919050565b60805160a05160c051615b41620004d16000396000612a9101526000818161089101528181610ece015281816111850152818161125d01528181611337015281816113be0152818161149d015281816118af01528181611c13015281816122c8015281816126370152818161287201528181612b960152612c82015260008181610fef0152818161199501528181611e7701526120410152615b416000f3fe608060405234801561001057600080fd5b50600436106102485760003560e01c8063781603761161013b578063b16a19de116100b8578063dd62ed3e1161007c578063dd62ed3e146106e6578063e075398614610716578063e655dbd814610746578063e856611814610762578063f866c3191461077e57610248565b8063b16a19de14610642578063b1bf962d14610660578063b3f1c93d1461067e578063cea9d26f146106ae578063d7020d0a146106ca57610248565b8063a6f19c84116100ff578063a6f19c84146105c2578063a760b215146105e0578063a9059cbb146105ea578063adad3a741461061a578063ae1673351461062457610248565b8063781603761461050a5780637df5bd3b146105285780637ecebe001461054457806395d89b4114610574578063a457c2d71461059257610248565b8063313ce567116101c957806367b481551161018d57806367b48155146104665780636fd976761461048257806370a082311461049e5780637535d246146104ce57806375d26413146104ec57610248565b8063313ce567146103c05780633644e515146103de57806339509351146103fc5780633acce7c91461042c5780634efecaa51461044a57610248565b8063183fb41311610210578063183fb413146103085780631da24f3e1461032457806323b872dd1461035457806326837eda1461038457806330adf81f146103a257610248565b806306fdde031461024d578063095ea7b31461026b5780630afbcdc91461029b5780630bd7ad3b146102cc57806318160ddd146102ea575b600080fd5b61025561079a565b6040516102629190614960565b60405180910390f35b61028560048036038101906102809190614a20565b61082c565b6040516102929190614a7b565b60405180910390f35b6102b560048036038101906102b09190614a96565b61084a565b6040516102c3929190614ad2565b60405180910390f35b6102d4610867565b6040516102e19190614afb565b60405180910390f35b6102f261086c565b6040516102ff9190614afb565b60405180910390f35b610322600480360381019061031d9190614c86565b610961565b005b61033e60048036038101906103399190614a96565b610ca1565b60405161034b9190614afb565b60405180910390f35b61036e60048036038101906103699190614d9e565b610cb3565b60405161037b9190614a7b565b60405180910390f35b61038c610d8a565b6040516103999190614e50565b60405180910390f35b6103aa610db0565b6040516103b79190614e84565b60405180910390f35b6103c8610dd4565b6040516103d59190614eae565b60405180910390f35b6103e6610deb565b6040516103f39190614e84565b60405180910390f35b61041660048036038101906104119190614a20565b610dfa565b6040516104239190614a7b565b60405180910390f35b610434610ea6565b6040516104419190614ed8565b60405180910390f35b610464600480360381019061045f9190614a20565b610ecc565b005b610480600480360381019061047b9190614d9e565b610feb565b005b61049c60048036038101906104979190614d9e565b611183565b005b6104b860048036038101906104b39190614a96565b611256565b6040516104c59190614afb565b60405180910390f35b6104d6611335565b6040516104e39190614f14565b60405180910390f35b6104f4611359565b6040516105019190614f50565b60405180910390f35b610512611383565b60405161051f9190614fc0565b60405180910390f35b610542600480360381019061053d9190614fe2565b6113bc565b005b61055e60048036038101906105599190614a96565b6114ec565b60405161056b9190614afb565b60405180910390f35b61057c6114fe565b6040516105899190614960565b60405180910390f35b6105ac60048036038101906105a79190614a20565b611590565b6040516105b99190614a7b565b60405180910390f35b6105ca61163c565b6040516105d79190615043565b60405180910390f35b6105e8611662565b005b61060460048036038101906105ff9190614a20565b61178e565b6040516106119190614a7b565b60405180910390f35b6106226117b9565b005b61062c611848565b6040516106399190614ed8565b60405180910390f35b61064a611872565b6040516106579190614ed8565b60405180910390f35b61066861189c565b6040516106759190614afb565b60405180910390f35b6106986004803603810190610693919061505e565b6118ab565b6040516106a59190614a7b565b60405180910390f35b6106c860048036038101906106c39190614d9e565b611991565b005b6106e460048036038101906106df919061505e565b611c11565b005b61070060048036038101906106fb91906150c5565b611d72565b60405161070d9190614afb565b60405180910390f35b610730600480360381019061072b9190614a96565b611df9565b60405161073d9190614afb565b60405180910390f35b610760600480360381019061075b9190615105565b611e73565b005b61077c60048036038101906107779190614a96565b61203d565b005b61079860048036038101906107939190614d9e565b6122c6565b005b6060603780546107a990615161565b80601f01602080910402602001604051908101604052809291908181526020018280546107d590615161565b80156108225780601f106107f757610100808354040283529160200191610822565b820191906000526020600020905b81548152906001019060200180831161080557829003601f168201915b5050505050905090565b60006108406108396123a6565b84846123ae565b6001905092915050565b60008061085683612499565b61085e612513565b91509150915091565b600281565b600080610877612513565b9050600081141561088c57600091505061095e565b61095a7f000000000000000000000000000000000000000000000000000000000000000073ffffffffffffffffffffffffffffffffffffffff1663d15e0053603d60009054906101000a900473ffffffffffffffffffffffffffffffffffffffff166040518263ffffffff1660e01b815260040161090a9190614ed8565b602060405180830381865afa158015610927573d6000803e3d6000fd5b505050506040513d601f19601f8201168201806040525081019061094b91906151a8565b8261251d90919063ffffffff16565b9150505b90565b600061096b612568565b9050600160009054906101000a900460ff168061098c575061098b612571565b5b80610998575060005481115b6109d7576040517f08c379a00000000000000000000000000000000000000000000000000000000081526004016109ce90615247565b60405180910390fd5b6000600160009054906101000a900460ff161590508015610a145760018060006101000a81548160ff021916908315150217905550816000819055505b610a278d8d8d8d8d8d8d8d8d8d8d612582565b6000808585810190610a3991906152a5565b9150915081603e60006101000a81548173ffffffffffffffffffffffffffffffffffffffff021916908373ffffffffffffffffffffffffffffffffffffffff16021790555080604060006101000a81548173ffffffffffffffffffffffffffffffffffffffff021916908373ffffffffffffffffffffffffffffffffffffffff160217905550603e60009054906101000a900473ffffffffffffffffffffffffffffffffffffffff1673ffffffffffffffffffffffffffffffffffffffff1663f7c618c16040518163ffffffff1660e01b8152600401602060405180830381865afa158015610b2c573d6000803e3d6000fd5b505050506040513d601f19601f82011682018060405250810190610b5091906152fa565b603f60006101000a81548173ffffffffffffffffffffffffffffffffffffffff021916908373ffffffffffffffffffffffffffffffffffffffff160217905550610bff603f60009054906101000a900473ffffffffffffffffffffffffffffffffffffffff16604060009054906101000a900473ffffffffffffffffffffffffffffffffffffffff167fffffffffffffffffffffffffffffffffffffffffffffffffffffffffffffffff612936565b610c6e603d60009054906101000a900473ffffffffffffffffffffffffffffffffffffffff16603e60009054906101000a900473ffffffffffffffffffffffffffffffffffffffff167fffffffffffffffffffffffffffffffffffffffffffffffffffffffffffffffff612936565b50508015610c92576000600160006101000a81548160ff0219169083151502179055505b50505050505050505050505050565b6000610cac82612499565b9050919050565b600080610cbf83612a0a565b9050610d7385610ccd6123a6565b836fffffffffffffffffffffffffffffffff16603560008a73ffffffffffffffffffffffffffffffffffffffff1673ffffffffffffffffffffffffffffffffffffffff1681526020019081526020016000206000610d296123a6565b73ffffffffffffffffffffffffffffffffffffffff1673ffffffffffffffffffffffffffffffffffffffff16815260200190815260200160002054610d6e9190615356565b6123ae565b610d7e858583612a69565b60019150509392505050565b603f60009054906101000a900473ffffffffffffffffffffffffffffffffffffffff1681565b7f6e71edae12b1b97f4d1f60370fef10105fa2faae0126114a169c64845d6126c981565b6000603960009054906101000a900460ff16905090565b6000610df5612a8d565b905090565b6000610e9c610e076123a6565b848460356000610e156123a6565b73ffffffffffffffffffffffffffffffffffffffff1673ffffffffffffffffffffffffffffffffffffffff16815260200190815260200160002060008873ffffffffffffffffffffffffffffffffffffffff1673ffffffffffffffffffffffffffffffffffffffff16815260200190815260200160002054610e97919061538a565b6123ae565b6001905092915050565b604060009054906101000a900473ffffffffffffffffffffffffffffffffffffffff1681565b7f000000000000000000000000000000000000000000000000000000000000000073ffffffffffffffffffffffffffffffffffffffff16610f0b6123a6565b73ffffffffffffffffffffffffffffffffffffffff16146040518060400160405280600281526020017f323300000000000000000000000000000000000000000000000000000000000081525090610f99576040517f08c379a0000000000000000000000000000000000000000000000000000000008152600401610f909190614960565b60405180910390fd5b50610fe78282603d60009054906101000a900473ffffffffffffffffffffffffffffffffffffffff1673ffffffffffffffffffffffffffffffffffffffff16612acf9092919063ffffffff16565b5050565b60007f000000000000000000000000000000000000000000000000000000000000000073ffffffffffffffffffffffffffffffffffffffff1663707cd7166040518163ffffffff1660e01b8152600401602060405180830381865afa158015611058573d6000803e3d6000fd5b505050506040513d601f19601f8201168201806040525081019061107c91906152fa565b90508073ffffffffffffffffffffffffffffffffffffffff16637be53ca1336040518263ffffffff1660e01b81526004016110b79190614ed8565b602060405180830381865afa1580156110d4573d6000803e3d6000fd5b505050506040513d601f19601f820116820180604052508101906110f8919061540c565b6040518060400160405280600181526020017f31000000000000000000000000000000000000000000000000000000000000008152509061116f576040517f08c379a00000000000000000000000000000000000000000000000000000000081526004016111669190614960565b60405180910390fd5b5061117d8484846001612b6b565b50505050565b7f000000000000000000000000000000000000000000000000000000000000000073ffffffffffffffffffffffffffffffffffffffff166111c26123a6565b73ffffffffffffffffffffffffffffffffffffffff16146040518060400160405280600281526020017f323300000000000000000000000000000000000000000000000000000000000081525090611250576040517f08c379a00000000000000000000000000000000000000000000000000000000081526004016112479190614960565b60405180910390fd5b50505050565b600061132e7f000000000000000000000000000000000000000000000000000000000000000073ffffffffffffffffffffffffffffffffffffffff1663d15e0053603d60009054906101000a900473ffffffffffffffffffffffffffffffffffffffff166040518263ffffffff1660e01b81526004016112d69190614ed8565b602060405180830381865afa1580156112f3573d6000803e3d6000fd5b505050506040513d601f19601f8201168201806040525081019061131791906151a8565b61132084612499565b61251d90919063ffffffff16565b9050919050565b7f000000000000000000000000000000000000000000000000000000000000000081565b6000603960019054906101000a900473ffffffffffffffffffffffffffffffffffffffff16905090565b6040518060400160405280600181526020017f310000000000000000000000000000000000000000000000000000000000000081525081565b7f000000000000000000000000000000000000000000000000000000000000000073ffffffffffffffffffffffffffffffffffffffff166113fb6123a6565b73ffffffffffffffffffffffffffffffffffffffff16146040518060400160405280600281526020017f323300000000000000000000000000000000000000000000000000000000000081525090611489576040517f08c379a00000000000000000000000000000000000000000000000000000000081526004016114809190614960565b60405180910390fd5b506000821415611498576114e8565b6114e67f0000000000000000000000000000000000000000000000000000000000000000603c60009054906101000a900473ffffffffffffffffffffffffffffffffffffffff168484612d99565b505b5050565b60006114f782613063565b9050919050565b60606038805461150d90615161565b80601f016020809104026020016040519081016040528092919081815260200182805461153990615161565b80156115865780601f1061155b57610100808354040283529160200191611586565b820191906000526020600020905b81548152906001019060200180831161156957829003601f168201915b5050505050905090565b600061163261159d6123a6565b8484603560006115ab6123a6565b73ffffffffffffffffffffffffffffffffffffffff1673ffffffffffffffffffffffffffffffffffffffff16815260200190815260200160002060008873ffffffffffffffffffffffffffffffffffffffff1673ffffffffffffffffffffffffffffffffffffffff1681526020019081526020016000205461162d9190615356565b6123ae565b6001905092915050565b603e60009054906101000a900473ffffffffffffffffffffffffffffffffffffffff1681565b603e60009054906101000a900473ffffffffffffffffffffffffffffffffffffffff1673ffffffffffffffffffffffffffffffffffffffff16636e553f65603d60009054906101000a900473ffffffffffffffffffffffffffffffffffffffff1673ffffffffffffffffffffffffffffffffffffffff166370a08231306040518263ffffffff1660e01b81526004016116fb9190614ed8565b602060405180830381865afa158015611718573d6000803e3d6000fd5b505050506040513d601f19601f8201168201806040525081019061173c91906151a8565b306040518363ffffffff1660e01b815260040161175a929190615439565b600060405180830381600087803b15801561177457600080fd5b505af1158015611788573d6000803e3d6000fd5b50505050565b60008061179a83612a0a565b90506117ae6117a76123a6565b8583612a69565b600191505092915050565b603e60009054906101000a900473ffffffffffffffffffffffffffffffffffffffff1673ffffffffffffffffffffffffffffffffffffffff1663c00007b0306040518263ffffffff1660e01b81526004016118149190614ed8565b600060405180830381600087803b15801561182e57600080fd5b505af1158015611842573d6000803e3d6000fd5b50505050565b6000603c60009054906101000a900473ffffffffffffffffffffffffffffffffffffffff16905090565b6000603d60009054906101000a900473ffffffffffffffffffffffffffffffffffffffff16905090565b60006118a6612513565b905090565b60007f000000000000000000000000000000000000000000000000000000000000000073ffffffffffffffffffffffffffffffffffffffff166118ec6123a6565b73ffffffffffffffffffffffffffffffffffffffff16146040518060400160405280600281526020017f32330000000000000000000000000000000000000000000000000000000000008152509061197a576040517f08c379a00000000000000000000000000000000000000000000000000000000081526004016119719190614960565b60405180910390fd5b5061198785858585612d99565b9050949350505050565b60007f000000000000000000000000000000000000000000000000000000000000000073ffffffffffffffffffffffffffffffffffffffff1663707cd7166040518163ffffffff1660e01b8152600401602060405180830381865afa1580156119fe573d6000803e3d6000fd5b505050506040513d601f19601f82011682018060405250810190611a2291906152fa565b90508073ffffffffffffffffffffffffffffffffffffffff16637be53ca1336040518263ffffffff1660e01b8152600401611a5d9190614ed8565b602060405180830381865afa158015611a7a573d6000803e3d6000fd5b505050506040513d601f19601f82011682018060405250810190611a9e919061540c565b6040518060400160405280600181526020017f310000000000000000000000000000000000000000000000000000000000000081525090611b15576040517f08c379a0000000000000000000000000000000000000000000000000000000008152600401611b0c9190614960565b60405180910390fd5b50603d60009054906101000a900473ffffffffffffffffffffffffffffffffffffffff1673ffffffffffffffffffffffffffffffffffffffff168473ffffffffffffffffffffffffffffffffffffffff1614156040518060400160405280600281526020017f383500000000000000000000000000000000000000000000000000000000000081525090611bdf576040517f08c379a0000000000000000000000000000000000000000000000000000000008152600401611bd69190614960565b60405180910390fd5b50611c0b83838673ffffffffffffffffffffffffffffffffffffffff16612acf9092919063ffffffff16565b50505050565b7f000000000000000000000000000000000000000000000000000000000000000073ffffffffffffffffffffffffffffffffffffffff16611c506123a6565b73ffffffffffffffffffffffffffffffffffffffff16146040518060400160405280600281526020017f323300000000000000000000000000000000000000000000000000000000000081525090611cde576040517f08c379a0000000000000000000000000000000000000000000000000000000008152600401611cd59190614960565b60405180910390fd5b50611ceb848484846130ac565b3073ffffffffffffffffffffffffffffffffffffffff168373ffffffffffffffffffffffffffffffffffffffff1614611d6c57611d6b8383603d60009054906101000a900473ffffffffffffffffffffffffffffffffffffffff1673ffffffffffffffffffffffffffffffffffffffff16612acf9092919063ffffffff16565b5b50505050565b6000603560008473ffffffffffffffffffffffffffffffffffffffff1673ffffffffffffffffffffffffffffffffffffffff16815260200190815260200160002060008373ffffffffffffffffffffffffffffffffffffffff1673ffffffffffffffffffffffffffffffffffffffff16815260200190815260200160002054905092915050565b6000603460008373ffffffffffffffffffffffffffffffffffffffff1673ffffffffffffffffffffffffffffffffffffffff16815260200190815260200160002060000160109054906101000a90046fffffffffffffffffffffffffffffffff166fffffffffffffffffffffffffffffffff169050919050565b60007f000000000000000000000000000000000000000000000000000000000000000073ffffffffffffffffffffffffffffffffffffffff1663707cd7166040518163ffffffff1660e01b8152600401602060405180830381865afa158015611ee0573d6000803e3d6000fd5b505050506040513d601f19601f82011682018060405250810190611f0491906152fa565b90508073ffffffffffffffffffffffffffffffffffffffff16637be53ca1336040518263ffffffff1660e01b8152600401611f3f9190614ed8565b602060405180830381865afa158015611f5c573d6000803e3d6000fd5b505050506040513d601f19601f82011682018060405250810190611f80919061540c565b6040518060400160405280600181526020017f310000000000000000000000000000000000000000000000000000000000000081525090611ff7576040517f08c379a0000000000000000000000000000000000000000000000000000000008152600401611fee9190614960565b60405180910390fd5b5081603960016101000a81548173ffffffffffffffffffffffffffffffffffffffff021916908373ffffffffffffffffffffffffffffffffffffffff1602179055505050565b60007f000000000000000000000000000000000000000000000000000000000000000073ffffffffffffffffffffffffffffffffffffffff1663707cd7166040518163ffffffff1660e01b8152600401602060405180830381865afa1580156120aa573d6000803e3d6000fd5b505050506040513d601f19601f820116820180604052508101906120ce91906152fa565b90508073ffffffffffffffffffffffffffffffffffffffff16637be53ca1336040518263ffffffff1660e01b81526004016121099190614ed8565b602060405180830381865afa158015612126573d6000803e3d6000fd5b505050506040513d601f19601f8201168201806040525081019061214a919061540c565b6040518060400160405280600181526020017f3100000000000000000000000000000000000000000000000000000000000000815250906121c1576040517f08c379a00000000000000000000000000000000000000000000000000000000081526004016121b89190614960565b60405180910390fd5b50612212603f60009054906101000a900473ffffffffffffffffffffffffffffffffffffffff16604060009054906101000a900473ffffffffffffffffffffffffffffffffffffffff166000612936565b81604060006101000a81548173ffffffffffffffffffffffffffffffffffffffff021916908373ffffffffffffffffffffffffffffffffffffffff1602179055506122c2603f60009054906101000a900473ffffffffffffffffffffffffffffffffffffffff16604060009054906101000a900473ffffffffffffffffffffffffffffffffffffffff167fffffffffffffffffffffffffffffffffffffffffffffffffffffffffffffffff612936565b5050565b7f000000000000000000000000000000000000000000000000000000000000000073ffffffffffffffffffffffffffffffffffffffff166123056123a6565b73ffffffffffffffffffffffffffffffffffffffff16146040518060400160405280600281526020017f323300000000000000000000000000000000000000000000000000000000000081525090612393576040517f08c379a000000000000000000000000000000000000000000000000000000000815260040161238a9190614960565b60405180910390fd5b506123a18383836000612b6b565b505050565b600033905090565b80603560008573ffffffffffffffffffffffffffffffffffffffff1673ffffffffffffffffffffffffffffffffffffffff16815260200190815260200160002060008473ffffffffffffffffffffffffffffffffffffffff1673ffffffffffffffffffffffffffffffffffffffff168152602001908152602001600020819055508173ffffffffffffffffffffffffffffffffffffffff168373ffffffffffffffffffffffffffffffffffffffff167f8c5be1e5ebec7d5bd14f71427d1e84f3dd0314c0f7b2291e5b200ac8c7c3b9258360405161248c9190614afb565b60405180910390a3505050565b6000603460008373ffffffffffffffffffffffffffffffffffffffff1673ffffffffffffffffffffffffffffffffffffffff16815260200190815260200160002060000160009054906101000a90046fffffffffffffffffffffffffffffffff166fffffffffffffffffffffffffffffffff169050919050565b6000603654905090565b6000816b019d971e4fe8401e74000000600019030483111582151761254157600080fd5b6b033b2e3c9fd0803ce80000006b019d971e4fe8401e740000008385020104905092915050565b60006005905090565b600080303b90506000811491505090565b600061258c612568565b9050600160009054906101000a900460ff16806125ad57506125ac612571565b5b806125b9575060005481115b6125f8576040517f08c379a00000000000000000000000000000000000000000000000000000000081526004016125ef90615247565b60405180910390fd5b6000600160009054906101000a900460ff1615905080156126355760018060006101000a81548160ff021916908315150217905550816000819055505b7f000000000000000000000000000000000000000000000000000000000000000073ffffffffffffffffffffffffffffffffffffffff168d73ffffffffffffffffffffffffffffffffffffffff16146040518060400160405280600281526020017f3837000000000000000000000000000000000000000000000000000000000000815250906126fb576040517f08c379a00000000000000000000000000000000000000000000000000000000081526004016126f29190614960565b60405180910390fd5b5061274988888080601f016020809104026020016040519081016040528093929190818152602001838380828437600081840152601f19601f8201169050808301925050505050505061345b565b61279686868080601f016020809104026020016040519081016040528093929190818152602001838380828437600081840152601f19601f82011690508083019250505050505050613475565b61279f8961348f565b8b603c60006101000a81548173ffffffffffffffffffffffffffffffffffffffff021916908373ffffffffffffffffffffffffffffffffffffffff1602179055508a603d60006101000a81548173ffffffffffffffffffffffffffffffffffffffff021916908373ffffffffffffffffffffffffffffffffffffffff16021790555089603960016101000a81548173ffffffffffffffffffffffffffffffffffffffff021916908373ffffffffffffffffffffffffffffffffffffffff16021790555061286a6134ad565b603b819055507f000000000000000000000000000000000000000000000000000000000000000073ffffffffffffffffffffffffffffffffffffffff168b73ffffffffffffffffffffffffffffffffffffffff167fb19e051f8af41150ccccb3fc2c2d8d15f4a4cf434f32a559ba75fe73d6eea20b8e8d8d8d8d8d8d8d8d6040516128fd999897969594939291906154cb565b60405180910390a38015612927576000600160006101000a81548160ff0219169083151502179055505b50505050505050505050505050565b808373ffffffffffffffffffffffffffffffffffffffff1663dd62ed3e30856040518363ffffffff1660e01b8152600401612972929190615547565b602060405180830381865afa15801561298f573d6000803e3d6000fd5b505050506040513d601f19601f820116820180604052508101906129b391906151a8565b1015612a0557612a04827fffffffffffffffffffffffffffffffffffffffffffffffffffffffffffffffff8573ffffffffffffffffffffffffffffffffffffffff1661354d9092919063ffffffff16565b5b505050565b60006fffffffffffffffffffffffffffffffff8016821115612a61576040517f08c379a0000000000000000000000000000000000000000000000000000000008152600401612a58906155e2565b60405180910390fd5b819050919050565b612a888383836fffffffffffffffffffffffffffffffff166001612b6b565b505050565b60007f0000000000000000000000000000000000000000000000000000000000000000461415612ac157603b549050612acc565b612ac96134ad565b90505b90565b600063a9059cbb60e01b905060405181815273ffffffffffffffffffffffffffffffffffffffff841660048201528260248201526000806044836000895af1612b1c573d6000803e3d6000fd5b50612b268461366a565b612b65576040517f08c379a0000000000000000000000000000000000000000000000000000000008152600401612b5c9061564e565b60405180910390fd5b50505050565b6000603d60009054906101000a900473ffffffffffffffffffffffffffffffffffffffff16905060007f000000000000000000000000000000000000000000000000000000000000000073ffffffffffffffffffffffffffffffffffffffff1663d15e0053836040518263ffffffff1660e01b8152600401612bed9190614ed8565b602060405180830381865afa158015612c0a573d6000803e3d6000fd5b505050506040513d601f19601f82011682018060405250810190612c2e91906151a8565b90506000612c4d82612c3f89612499565b61251d90919063ffffffff16565b90506000612c6c83612c5e89612499565b61251d90919063ffffffff16565b9050612c7a88888886613737565b8415612d16577f000000000000000000000000000000000000000000000000000000000000000073ffffffffffffffffffffffffffffffffffffffff1663d5ed3933858a8a8a87876040518763ffffffff1660e01b8152600401612ce39695949392919061566e565b600060405180830381600087803b158015612cfd57600080fd5b505af1158015612d11573d6000803e3d6000fd5b505050505b8673ffffffffffffffffffffffffffffffffffffffff168873ffffffffffffffffffffffffffffffffffffffff167f4beccb90f994c31aced7a23b5611020728a23d8ec5cddd1a3e9d97b96fda8666612d78868a613c2790919063ffffffff16565b86604051612d87929190614ad2565b60405180910390a35050505050505050565b600080612daf8385613c2790919063ffffffff16565b905060008114156040518060400160405280600281526020017f323400000000000000000000000000000000000000000000000000000000000081525090612e2d576040517f08c379a0000000000000000000000000000000000000000000000000000000008152600401612e249190614960565b60405180910390fd5b506000612e3986612499565b90506000612ec0603460008973ffffffffffffffffffffffffffffffffffffffff1673ffffffffffffffffffffffffffffffffffffffff16815260200190815260200160002060000160109054906101000a90046fffffffffffffffffffffffffffffffff166fffffffffffffffffffffffffffffffff168361251d90919063ffffffff16565b612ed3868461251d90919063ffffffff16565b612edd9190615356565b9050612ee885612a0a565b603460008973ffffffffffffffffffffffffffffffffffffffff1673ffffffffffffffffffffffffffffffffffffffff16815260200190815260200160002060000160106101000a8154816fffffffffffffffffffffffffffffffff02191690836fffffffffffffffffffffffffffffffff160217905550612f7287612f6d85612a0a565b613c6e565b60008187612f80919061538a565b90508773ffffffffffffffffffffffffffffffffffffffff16600073ffffffffffffffffffffffffffffffffffffffff167fddf252ad1be2c89b69c2b068fc378daa952ba7f163c4a11628f55a4df523b3ef83604051612fe09190614afb565b60405180910390a38773ffffffffffffffffffffffffffffffffffffffff168973ffffffffffffffffffffffffffffffffffffffff167f458f5fa412d0f69b08dd84872b0215675cc67bc1d5b6fd93300a1c3878b8619683858a604051613049939291906156cf565b60405180910390a360008314945050505050949350505050565b6000603a60008373ffffffffffffffffffffffffffffffffffffffff1673ffffffffffffffffffffffffffffffffffffffff168152602001908152602001600020549050919050565b60006130c18284613c2790919063ffffffff16565b905060008114156040518060400160405280600281526020017f32350000000000000000000000000000000000000000000000000000000000008152509061313f576040517f08c379a00000000000000000000000000000000000000000000000000000000081526004016131369190614960565b60405180910390fd5b50600061314b86612499565b905060006131d2603460008973ffffffffffffffffffffffffffffffffffffffff1673ffffffffffffffffffffffffffffffffffffffff16815260200190815260200160002060000160109054906101000a90046fffffffffffffffffffffffffffffffff166fffffffffffffffffffffffffffffffff168361251d90919063ffffffff16565b6131e5858461251d90919063ffffffff16565b6131ef9190615356565b90506131fa84612a0a565b603460008973ffffffffffffffffffffffffffffffffffffffff1673ffffffffffffffffffffffffffffffffffffffff16815260200190815260200160002060000160106101000a8154816fffffffffffffffffffffffffffffffff02191690836fffffffffffffffffffffffffffffffff1602179055506132848761327f85612a0a565b613d13565b84811115613371576000858261329a9190615356565b90508773ffffffffffffffffffffffffffffffffffffffff16600073ffffffffffffffffffffffffffffffffffffffff167fddf252ad1be2c89b69c2b068fc378daa952ba7f163c4a11628f55a4df523b3ef836040516132fa9190614afb565b60405180910390a38773ffffffffffffffffffffffffffffffffffffffff168873ffffffffffffffffffffffffffffffffffffffff167f458f5fa412d0f69b08dd84872b0215675cc67bc1d5b6fd93300a1c3878b86196838589604051613363939291906156cf565b60405180910390a350613452565b6000818661337f9190615356565b9050600073ffffffffffffffffffffffffffffffffffffffff168873ffffffffffffffffffffffffffffffffffffffff167fddf252ad1be2c89b69c2b068fc378daa952ba7f163c4a11628f55a4df523b3ef836040516133df9190614afb565b60405180910390a38673ffffffffffffffffffffffffffffffffffffffff168873ffffffffffffffffffffffffffffffffffffffff167f4cf25bc1d991c17529c25213d3cc0cda295eeaad5f13f361969b12ea48015f90838589604051613448939291906156cf565b60405180910390a3505b50505050505050565b8060379080519060200190613471929190614824565b5050565b806038908051906020019061348b929190614824565b5050565b80603960006101000a81548160ff021916908360ff16021790555050565b60007f8b73c3c69bb8fe3d512ecc4cf759cc79239f7b179b0ffacaa9a75d522b39400f6134d8613db6565b805190602001206040518060400160405280600181526020017f3100000000000000000000000000000000000000000000000000000000000000815250805190602001204630604051602001613532959493929190615706565b60405160208183030381529060405280519060200120905090565b600063095ea7b360e01b838360405160240161356a929190615759565b604051602081830303815290604052907bffffffffffffffffffffffffffffffffffffffffffffffffffffffff19166020820180517bffffffffffffffffffffffffffffffffffffffffffffffffffffffff838183161783525050505090506135d38482613dc5565b613664576136598463095ea7b360e01b8560006040516024016135f79291906157bd565b604051602081830303815290604052907bffffffffffffffffffffffffffffffffffffffffffffffffffffffff19166020820180517bffffffffffffffffffffffffffffffffffffffffffffffffffffffff8381831617835250505050613e7a565b6136638482613e7a565b5b50505050565b60006136a8565b7f08c379a0000000000000000000000000000000000000000000000000000000006000526020600452806024528160445260646000fd5b3d600081146136e95760208114613724576136e47f475076323a206d616c666f726d6564207472616e7366657220726573756c7400601f613671565b613731565b823b61371b5761371a7f475076323a206e6f74206120636f6e74726163740000000000000000000000006014613671565b5b60019150613731565b3d6000803e600051151591505b50919050565b600061374285612499565b905060006137c9603460008873ffffffffffffffffffffffffffffffffffffffff1673ffffffffffffffffffffffffffffffffffffffff16815260200190815260200160002060000160109054906101000a90046fffffffffffffffffffffffffffffffff166fffffffffffffffffffffffffffffffff168361251d90919063ffffffff16565b6137dc848461251d90919063ffffffff16565b6137e69190615356565b905060006137f386612499565b9050600061387a603460008973ffffffffffffffffffffffffffffffffffffffff1673ffffffffffffffffffffffffffffffffffffffff16815260200190815260200160002060000160109054906101000a90046fffffffffffffffffffffffffffffffff166fffffffffffffffffffffffffffffffff168361251d90919063ffffffff16565b61388d868461251d90919063ffffffff16565b6138979190615356565b90506138a285612a0a565b603460008a73ffffffffffffffffffffffffffffffffffffffff1673ffffffffffffffffffffffffffffffffffffffff16815260200190815260200160002060000160106101000a8154816fffffffffffffffffffffffffffffffff02191690836fffffffffffffffffffffffffffffffff16021790555061392385612a0a565b603460008973ffffffffffffffffffffffffffffffffffffffff1673ffffffffffffffffffffffffffffffffffffffff16815260200190815260200160002060000160106101000a8154816fffffffffffffffffffffffffffffffff02191690836fffffffffffffffffffffffffffffffff1602179055506139c088886139bb6139b6898b613c2790919063ffffffff16565b612a0a565b613f42565b6000831115613aa0578773ffffffffffffffffffffffffffffffffffffffff16600073ffffffffffffffffffffffffffffffffffffffff167fddf252ad1be2c89b69c2b068fc378daa952ba7f163c4a11628f55a4df523b3ef85604051613a279190614afb565b60405180910390a38773ffffffffffffffffffffffffffffffffffffffff16613a4e6123a6565b73ffffffffffffffffffffffffffffffffffffffff167f458f5fa412d0f69b08dd84872b0215675cc67bc1d5b6fd93300a1c3878b86196858689604051613a97939291906156cf565b60405180910390a35b8673ffffffffffffffffffffffffffffffffffffffff168873ffffffffffffffffffffffffffffffffffffffff1614158015613adc5750600081115b15613bb8578673ffffffffffffffffffffffffffffffffffffffff16600073ffffffffffffffffffffffffffffffffffffffff167fddf252ad1be2c89b69c2b068fc378daa952ba7f163c4a11628f55a4df523b3ef83604051613b3f9190614afb565b60405180910390a38673ffffffffffffffffffffffffffffffffffffffff16613b666123a6565b73ffffffffffffffffffffffffffffffffffffffff167f458f5fa412d0f69b08dd84872b0215675cc67bc1d5b6fd93300a1c3878b86196838489604051613baf939291906156cf565b60405180910390a35b8673ffffffffffffffffffffffffffffffffffffffff168873ffffffffffffffffffffffffffffffffffffffff167fddf252ad1be2c89b69c2b068fc378daa952ba7f163c4a11628f55a4df523b3ef88604051613c159190614afb565b60405180910390a35050505050505050565b60006b033b2e3c9fd0803ce80000006002830460001903048311151582151715613c5057600080fd5b81600283046b033b2e3c9fd0803ce800000085020104905092915050565b613c78828261428e565b603e60009054906101000a900473ffffffffffffffffffffffffffffffffffffffff1673ffffffffffffffffffffffffffffffffffffffff16636e553f6582306040518363ffffffff1660e01b8152600401613cd5929190615833565b600060405180830381600087803b158015613cef57600080fd5b505af1158015613d03573d6000803e3d6000fd5b50505050613d0f6117b9565b5050565b613d1b6117b9565b603e60009054906101000a900473ffffffffffffffffffffffffffffffffffffffff1673ffffffffffffffffffffffffffffffffffffffff16632e1a7d4d826040518263ffffffff1660e01b8152600401613d76919061585c565b600060405180830381600087803b158015613d9057600080fd5b505af1158015613da4573d6000803e3d6000fd5b50505050613db28282614472565b5050565b6060613dc061079a565b905090565b60008060008473ffffffffffffffffffffffffffffffffffffffff1684604051613def91906158b3565b6000604051808303816000865af19150503d8060008114613e2c576040519150601f19603f3d011682016040523d82523d6000602084013e613e31565b606091505b5091509150818015613e5f5750600081511480613e5e575080806020019051810190613e5d919061540c565b5b5b8015613e705750613e6f85614656565b5b9250505092915050565b6000613edc826040518060400160405280602081526020017f5361666545524332303a206c6f772d6c6576656c2063616c6c206661696c65648152508573ffffffffffffffffffffffffffffffffffffffff166146799092919063ffffffff16565b9050600081511480613efe575080806020019051810190613efd919061540c565b5b613f3d576040517f08c379a0000000000000000000000000000000000000000000000000000000008152600401613f349061593c565b60405180910390fd5b505050565b6000603460008573ffffffffffffffffffffffffffffffffffffffff1673ffffffffffffffffffffffffffffffffffffffff16815260200190815260200160002060000160009054906101000a90046fffffffffffffffffffffffffffffffff1690508181613fb1919061595c565b603460008673ffffffffffffffffffffffffffffffffffffffff1673ffffffffffffffffffffffffffffffffffffffff16815260200190815260200160002060000160006101000a8154816fffffffffffffffffffffffffffffffff02191690836fffffffffffffffffffffffffffffffff1602179055506000603460008573ffffffffffffffffffffffffffffffffffffffff1673ffffffffffffffffffffffffffffffffffffffff16815260200190815260200160002060000160009054906101000a90046fffffffffffffffffffffffffffffffff16905082816140989190615990565b603460008673ffffffffffffffffffffffffffffffffffffffff1673ffffffffffffffffffffffffffffffffffffffff16815260200190815260200160002060000160006101000a8154816fffffffffffffffffffffffffffffffff02191690836fffffffffffffffffffffffffffffffff1602179055506000603960019054906101000a900473ffffffffffffffffffffffffffffffffffffffff169050600073ffffffffffffffffffffffffffffffffffffffff168173ffffffffffffffffffffffffffffffffffffffff161461428657600060365490508173ffffffffffffffffffffffffffffffffffffffff166331873e2e8883876040518463ffffffff1660e01b81526004016141af939291906159d6565b600060405180830381600087803b1580156141c957600080fd5b505af11580156141dd573d6000803e3d6000fd5b505050508573ffffffffffffffffffffffffffffffffffffffff168773ffffffffffffffffffffffffffffffffffffffff1614614284578173ffffffffffffffffffffffffffffffffffffffff166331873e2e8783866040518463ffffffff1660e01b8152600401614251939291906159d6565b600060405180830381600087803b15801561426b57600080fd5b505af115801561427f573d6000803e3d6000fd5b505050505b505b505050505050565b60006036549050816fffffffffffffffffffffffffffffffff16816142b3919061538a565b6036819055506000603460008573ffffffffffffffffffffffffffffffffffffffff1673ffffffffffffffffffffffffffffffffffffffff16815260200190815260200160002060000160009054906101000a90046fffffffffffffffffffffffffffffffff16905082816143289190615990565b603460008673ffffffffffffffffffffffffffffffffffffffff1673ffffffffffffffffffffffffffffffffffffffff16815260200190815260200160002060000160006101000a8154816fffffffffffffffffffffffffffffffff02191690836fffffffffffffffffffffffffffffffff1602179055506000603960019054906101000a900473ffffffffffffffffffffffffffffffffffffffff169050600073ffffffffffffffffffffffffffffffffffffffff168173ffffffffffffffffffffffffffffffffffffffff161461446b578073ffffffffffffffffffffffffffffffffffffffff166331873e2e8685856040518463ffffffff1660e01b8152600401614438939291906159d6565b600060405180830381600087803b15801561445257600080fd5b505af1158015614466573d6000803e3d6000fd5b505050505b5050505050565b60006036549050816fffffffffffffffffffffffffffffffff16816144979190615356565b6036819055506000603460008573ffffffffffffffffffffffffffffffffffffffff1673ffffffffffffffffffffffffffffffffffffffff16815260200190815260200160002060000160009054906101000a90046fffffffffffffffffffffffffffffffff169050828161450c919061595c565b603460008673ffffffffffffffffffffffffffffffffffffffff1673ffffffffffffffffffffffffffffffffffffffff16815260200190815260200160002060000160006101000a8154816fffffffffffffffffffffffffffffffff02191690836fffffffffffffffffffffffffffffffff1602179055506000603960019054906101000a900473ffffffffffffffffffffffffffffffffffffffff169050600073ffffffffffffffffffffffffffffffffffffffff168173ffffffffffffffffffffffffffffffffffffffff161461464f578073ffffffffffffffffffffffffffffffffffffffff166331873e2e8685856040518463ffffffff1660e01b815260040161461c939291906159d6565b600060405180830381600087803b15801561463657600080fd5b505af115801561464a573d6000803e3d6000fd5b505050505b5050505050565b6000808273ffffffffffffffffffffffffffffffffffffffff163b119050919050565b60606146888484600085614691565b90509392505050565b6060824710156146d6576040517f08c379a00000000000000000000000000000000000000000000000000000000081526004016146cd90615a7f565b60405180910390fd5b6000808673ffffffffffffffffffffffffffffffffffffffff1685876040516146ff91906158b3565b60006040518083038185875af1925050503d806000811461473c576040519150601f19603f3d011682016040523d82523d6000602084013e614741565b606091505b50915091506147528783838761475e565b92505050949350505050565b606083156147c1576000835114156147b95761477985614656565b6147b8576040517f08c379a00000000000000000000000000000000000000000000000000000000081526004016147af90615aeb565b60405180910390fd5b5b8290506147cc565b6147cb83836147d4565b5b949350505050565b6000825111156147e75781518083602001fd5b806040517f08c379a000000000000000000000000000000000000000000000000000000000815260040161481b9190614960565b60405180910390fd5b82805461483090615161565b90600052602060002090601f0160209004810192826148525760008555614899565b82601f1061486b57805160ff1916838001178555614899565b82800160010185558215614899579182015b8281111561489857825182559160200191906001019061487d565b5b5090506148a691906148aa565b5090565b5b808211156148c35760008160009055506001016148ab565b5090565b600081519050919050565b600082825260208201905092915050565b60005b838110156149015780820151818401526020810190506148e6565b83811115614910576000848401525b50505050565b6000601f19601f8301169050919050565b6000614932826148c7565b61493c81856148d2565b935061494c8185602086016148e3565b61495581614916565b840191505092915050565b6000602082019050818103600083015261497a8184614927565b905092915050565b600080fd5b600080fd5b600073ffffffffffffffffffffffffffffffffffffffff82169050919050565b60006149b78261498c565b9050919050565b6149c7816149ac565b81146149d257600080fd5b50565b6000813590506149e4816149be565b92915050565b6000819050919050565b6149fd816149ea565b8114614a0857600080fd5b50565b600081359050614a1a816149f4565b92915050565b60008060408385031215614a3757614a36614982565b5b6000614a45858286016149d5565b9250506020614a5685828601614a0b565b9150509250929050565b60008115159050919050565b614a7581614a60565b82525050565b6000602082019050614a906000830184614a6c565b92915050565b600060208284031215614aac57614aab614982565b5b6000614aba848285016149d5565b91505092915050565b614acc816149ea565b82525050565b6000604082019050614ae76000830185614ac3565b614af46020830184614ac3565b9392505050565b6000602082019050614b106000830184614ac3565b92915050565b6000614b21826149ac565b9050919050565b614b3181614b16565b8114614b3c57600080fd5b50565b600081359050614b4e81614b28565b92915050565b6000614b5f826149ac565b9050919050565b614b6f81614b54565b8114614b7a57600080fd5b50565b600081359050614b8c81614b66565b92915050565b600060ff82169050919050565b614ba881614b92565b8114614bb357600080fd5b50565b600081359050614bc581614b9f565b92915050565b600080fd5b600080fd5b600080fd5b60008083601f840112614bf057614bef614bcb565b5b8235905067ffffffffffffffff811115614c0d57614c0c614bd0565b5b602083019150836001820283011115614c2957614c28614bd5565b5b9250929050565b60008083601f840112614c4657614c45614bcb565b5b8235905067ffffffffffffffff811115614c6357614c62614bd0565b5b602083019150836001820283011115614c7f57614c7e614bd5565b5b9250929050565b60008060008060008060008060008060006101008c8e031215614cac57614cab614982565b5b6000614cba8e828f01614b3f565b9b50506020614ccb8e828f016149d5565b9a50506040614cdc8e828f016149d5565b9950506060614ced8e828f01614b7d565b9850506080614cfe8e828f01614bb6565b97505060a08c013567ffffffffffffffff811115614d1f57614d1e614987565b5b614d2b8e828f01614bda565b965096505060c08c013567ffffffffffffffff811115614d4e57614d4d614987565b5b614d5a8e828f01614bda565b945094505060e08c013567ffffffffffffffff811115614d7d57614d7c614987565b5b614d898e828f01614c30565b92509250509295989b509295989b9093969950565b600080600060608486031215614db757614db6614982565b5b6000614dc5868287016149d5565b9350506020614dd6868287016149d5565b9250506040614de786828701614a0b565b9150509250925092565b6000819050919050565b6000614e16614e11614e0c8461498c565b614df1565b61498c565b9050919050565b6000614e2882614dfb565b9050919050565b6000614e3a82614e1d565b9050919050565b614e4a81614e2f565b82525050565b6000602082019050614e656000830184614e41565b92915050565b6000819050919050565b614e7e81614e6b565b82525050565b6000602082019050614e996000830184614e75565b92915050565b614ea881614b92565b82525050565b6000602082019050614ec36000830184614e9f565b92915050565b614ed2816149ac565b82525050565b6000602082019050614eed6000830184614ec9565b92915050565b6000614efe82614e1d565b9050919050565b614f0e81614ef3565b82525050565b6000602082019050614f296000830184614f05565b92915050565b6000614f3a82614e1d565b9050919050565b614f4a81614f2f565b82525050565b6000602082019050614f656000830184614f41565b92915050565b600081519050919050565b600082825260208201905092915050565b6000614f9282614f6b565b614f9c8185614f76565b9350614fac8185602086016148e3565b614fb581614916565b840191505092915050565b60006020820190508181036000830152614fda8184614f87565b905092915050565b60008060408385031215614ff957614ff8614982565b5b600061500785828601614a0b565b925050602061501885828601614a0b565b9150509250929050565b600061502d82614e1d565b9050919050565b61503d81615022565b82525050565b60006020820190506150586000830184615034565b92915050565b6000806000806080858703121561507857615077614982565b5b6000615086878288016149d5565b9450506020615097878288016149d5565b93505060406150a887828801614a0b565b92505060606150b987828801614a0b565b91505092959194509250565b600080604083850312156150dc576150db614982565b5b60006150ea858286016149d5565b92505060206150fb858286016149d5565b9150509250929050565b60006020828403121561511b5761511a614982565b5b600061512984828501614b7d565b91505092915050565b7f4e487b7100000000000000000000000000000000000000000000000000000000600052602260045260246000fd5b6000600282049050600182168061517957607f821691505b6020821081141561518d5761518c615132565b5b50919050565b6000815190506151a2816149f4565b92915050565b6000602082840312156151be576151bd614982565b5b60006151cc84828501615193565b91505092915050565b7f436f6e747261637420696e7374616e63652068617320616c726561647920626560008201527f656e20696e697469616c697a6564000000000000000000000000000000000000602082015250565b6000615231602e836148d2565b915061523c826151d5565b604082019050919050565b6000602082019050818103600083015261526081615224565b9050919050565b60006152728261498c565b9050919050565b61528281615267565b811461528d57600080fd5b50565b60008135905061529f81615279565b92915050565b600080604083850312156152bc576152bb614982565b5b60006152ca85828601615290565b92505060206152db85828601615290565b9150509250929050565b6000815190506152f4816149be565b92915050565b6000602082840312156153105761530f614982565b5b600061531e848285016152e5565b91505092915050565b7f4e487b7100000000000000000000000000000000000000000000000000000000600052601160045260246000fd5b6000615361826149ea565b915061536c836149ea565b92508282101561537f5761537e615327565b5b828203905092915050565b6000615395826149ea565b91506153a0836149ea565b9250827fffffffffffffffffffffffffffffffffffffffffffffffffffffffffffffffff038211156153d5576153d4615327565b5b828201905092915050565b6153e981614a60565b81146153f457600080fd5b50565b600081519050615406816153e0565b92915050565b60006020828403121561542257615421614982565b5b6000615430848285016153f7565b91505092915050565b600060408201905061544e6000830185614ac3565b61545b6020830184614ec9565b9392505050565b82818337600083830152505050565b600061547d83856148d2565b935061548a838584615462565b61549383614916565b840190509392505050565b60006154aa8385614f76565b93506154b7838584615462565b6154c083614916565b840190509392505050565b600060c0820190506154e0600083018c614ec9565b6154ed602083018b614ec9565b6154fa604083018a614e9f565b818103606083015261550d81888a615471565b90508181036080830152615522818688615471565b905081810360a083015261553781848661549e565b90509a9950505050505050505050565b600060408201905061555c6000830185614ec9565b6155696020830184614ec9565b9392505050565b7f53616665436173743a2076616c756520646f65736e27742066697420696e203160008201527f3238206269747300000000000000000000000000000000000000000000000000602082015250565b60006155cc6027836148d2565b91506155d782615570565b604082019050919050565b600060208201905081810360008301526155fb816155bf565b9050919050565b7f475076323a206661696c6564207472616e736665720000000000000000000000600082015250565b60006156386015836148d2565b915061564382615602565b602082019050919050565b600060208201905081810360008301526156678161562b565b9050919050565b600060c0820190506156836000830189614ec9565b6156906020830188614ec9565b61569d6040830187614ec9565b6156aa6060830186614ac3565b6156b76080830185614ac3565b6156c460a0830184614ac3565b979650505050505050565b60006060820190506156e46000830186614ac3565b6156f16020830185614ac3565b6156fe6040830184614ac3565b949350505050565b600060a08201905061571b6000830188614e75565b6157286020830187614e75565b6157356040830186614e75565b6157426060830185614ac3565b61574f6080830184614ec9565b9695505050505050565b600060408201905061576e6000830185614ec9565b61577b6020830184614ac3565b9392505050565b6000819050919050565b60006157a76157a261579d84615782565b614df1565b614b92565b9050919050565b6157b78161578c565b82525050565b60006040820190506157d26000830185614ec9565b6157df60208301846157ae565b9392505050565b60006fffffffffffffffffffffffffffffffff82169050919050565b600061581d615818615813846157e6565b614df1565b6149ea565b9050919050565b61582d81615802565b82525050565b60006040820190506158486000830185615824565b6158556020830184614ec9565b9392505050565b60006020820190506158716000830184615824565b92915050565b600081905092915050565b600061588d82614f6b565b6158978185615877565b93506158a78185602086016148e3565b80840191505092915050565b60006158bf8284615882565b915081905092915050565b7f5361666545524332303a204552433230206f7065726174696f6e20646964206e60008201527f6f74207375636365656400000000000000000000000000000000000000000000602082015250565b6000615926602a836148d2565b9150615931826158ca565b604082019050919050565b6000602082019050818103600083015261595581615919565b9050919050565b6000615967826157e6565b9150615972836157e6565b92508282101561598557615984615327565b5b828203905092915050565b600061599b826157e6565b91506159a6836157e6565b9250826fffffffffffffffffffffffffffffffff038211156159cb576159ca615327565b5b828201905092915050565b60006060820190506159eb6000830186614ec9565b6159f86020830185614ac3565b615a056040830184615824565b949350505050565b7f416464726573733a20696e73756666696369656e742062616c616e636520666f60008201527f722063616c6c0000000000000000000000000000000000000000000000000000602082015250565b6000615a696026836148d2565b9150615a7482615a0d565b604082019050919050565b60006020820190508181036000830152615a9881615a5c565b9050919050565b7f416464726573733a2063616c6c20746f206e6f6e2d636f6e7472616374000000600082015250565b6000615ad5601d836148d2565b9150615ae082615a9f565b602082019050919050565b60006020820190508181036000830152615b0481615ac8565b905091905056fea2646970667358221220825b31f7ce0e63cb6b6d3947a911607f0d2a6913002b74c57fd377a5b67e0ba564736f6c634300080c0033",
  "devdoc": {
    "details": "NOTE That ATokenAerodromeLP should not be made borrowable",
    "kind": "dev",
    "methods": {
      "DOMAIN_SEPARATOR()": {
        "details": "Overrides the base function to fully implement IATokensee `EIP712Base.DOMAIN_SEPARATOR()` for more detailed documentation"
      },
      "RESERVE_TREASURY_ADDRESS()": {
        "returns": {
          "_0": "Address of the Aave treasury"
        }
      },
      "UNDERLYING_ASSET_ADDRESS()": {
        "returns": {
          "_0": "The address of the underlying asset"
        }
      },
      "allowance(address,address)": {
        "details": "Returns the remaining number of tokens that `spender` will be allowed to spend on behalf of `owner` through {transferFrom}. This is zero by default. This value changes when {approve} or {transferFrom} are called."
      },
      "approve(address,uint256)": {
        "details": "Sets `amount` as the allowance of `spender` over the caller's tokens. Returns a boolean value indicating whether the operation succeeded. IMPORTANT: Beware that changing an allowance with this method brings the risk that someone may use both the old and the new allowance by unfortunate transaction ordering. One possible solution to mitigate this race condition is to first reduce the spender's allowance to 0 and set the desired value afterwards: https://github.com/ethereum/EIPs/issues/20#issuecomment-263524729 Emits an {Approval} event."
      },
      "balanceOf(address)": {
        "details": "Returns the amount of tokens owned by `account`."
      },
      "burn(address,address,uint256,uint256)": {
        "details": "In some instances, the mint event could be emitted from a burn transaction if the amount to burn is less than the interest that the user accrued",
        "params": {
          "amount": "The amount being burned",
          "from": "The address from which the aTokens will be burned",
          "index": "The next liquidity index of the reserve",
          "receiverOfUnderlying": "The address that will receive the underlying"
        }
      },
      "decreaseAllowance(address,uint256)": {
        "params": {
          "spender": "The user allowed to spend on behalf of _msgSender()",
          "subtractedValue": "The amount being subtracted to the allowance"
        },
        "returns": {
          "_0": "`true`"
        }
      },
      "depositToGauge()": {
        "details": "Used to deposit any remaining balance in the contract to the gauge"
      },
      "getIncentivesController()": {
        "returns": {
          "_0": "The address of the Incentives Controller"
        }
      },
      "getPreviousIndex(address)": {
        "params": {
          "user": "The address of the user"
        },
        "returns": {
          "_0": "The last index interest was accrued to the user's balance, expressed in ray"
        }
      },
      "getScaledUserBalanceAndSupply(address)": {
        "params": {
          "user": "The address of the user"
        },
        "returns": {
          "_0": "The scaled balance of the user",
          "_1": "The scaled total supply"
        }
      },
      "handleRepayment(address,address,uint256)": {
        "details": "The default implementation is empty as with standard ERC20 tokens, nothing needs to be done after the transfer is concluded. However in the future there may be aTokens that allow for example to stake the underlying to receive LM rewards. In that case, `handleRepayment()` would perform the staking of the underlying asset.",
        "params": {
          "amount": "The amount getting repaid",
          "onBehalfOf": "The address of the user who will get his debt reduced/removed",
          "user": "The user executing the repayment"
        }
      },
      "increaseAllowance(address,uint256)": {
        "params": {
          "addedValue": "The amount being added to the allowance",
          "spender": "The user allowed to spend on behalf of _msgSender()"
        },
        "returns": {
          "_0": "`true`"
        }
      },
      "initialize(address,address,address,address,uint8,string,string,bytes)": {
        "params": {
          "aTokenDecimals": "The decimals of the aToken, same as the underlying asset's",
          "aTokenName": "The name of the aToken",
          "aTokenSymbol": "The symbol of the aToken",
          "incentivesController": "The smart contract managing potential incentives distribution",
          "params": "A set of encoded parameters for additional initialization",
          "pool": "The pool contract that is initializing this contract",
          "treasury": "The address of the Aave treasury, receiving the fees on this aToken",
          "underlyingAsset": "The address of the underlying asset of this aToken (E.g. WETH for aWETH)"
        }
      },
      "mint(address,address,uint256,uint256)": {
        "params": {
          "amount": "The amount of tokens getting minted",
          "caller": "The address performing the mint",
          "index": "The next liquidity index of the reserve",
          "onBehalfOf": "The address of the user that will receive the minted aTokens"
        },
        "returns": {
          "_0": "`true` if the the previous balance of the user was 0"
        }
      },
      "mintToTreasury(uint256,uint256)": {
        "params": {
          "amount": "The amount of tokens getting minted",
          "index": "The next liquidity index of the reserve"
        }
      },
      "nonces(address)": {
        "details": "Overrides the base function to fully implement IATokensee `EIP712Base.nonces()` for more detailed documentation"
      },
      "refreshRewards()": {
        "details": "Used to fetch any remaining rewards in the gauge to the contract"
      },
      "rescueTokens(address,address,uint256)": {
        "params": {
          "amount": "The amount of token to transfer",
          "to": "The address of the recipient",
          "token": "The address of the token"
        }
      },
      "scaledBalanceOf(address)": {
        "details": "The scaled balance is the sum of all the updated stored balance divided by the reserve's liquidity index at the moment of the update",
        "params": {
          "user": "The user whose balance is calculated"
        },
        "returns": {
          "_0": "The scaled balance of the user"
        }
      },
      "scaledTotalSupply()": {
        "returns": {
          "_0": "The scaled total supply"
        }
      },
      "setEmissionsManager(address)": {
        "details": "Used to set the emissions manager"
      },
      "setIncentivesController(address)": {
        "params": {
          "controller": "the new Incentives controller"
        }
      },
      "totalSupply()": {
        "details": "Returns the amount of tokens in existence."
      },
      "transfer(address,uint256)": {
        "details": "Moves `amount` tokens from the caller's account to `recipient`. Returns a boolean value indicating whether the operation succeeded. Emits a {Transfer} event."
      },
      "transferFrom(address,address,uint256)": {
        "details": "Moves `amount` tokens from `sender` to `recipient` using the allowance mechanism. `amount` is then deducted from the caller's allowance. Returns a boolean value indicating whether the operation succeeded. Emits a {Transfer} event."
      },
      "transferOnLiquidation(address,address,uint256)": {
        "params": {
          "from": "The address getting liquidated, current owner of the aTokens",
          "to": "The recipient",
          "value": "The amount of tokens getting transferred"
        }
      },
      "transferUnderlyingTo(address,uint256)": {
        "details": "Used by the Pool to transfer assets in borrow(), withdraw() and flashLoan()",
        "params": {
          "amount": "The amount getting transferred",
          "target": "The recipient of the underlying"
        }
      }
    },
    "version": 1
  },
  "userdoc": {
    "kind": "user",
    "methods": {
      "RESERVE_TREASURY_ADDRESS()": {
        "notice": "Returns the address of the Aave treasury, receiving the fees on this aToken."
      },
      "UNDERLYING_ASSET_ADDRESS()": {
        "notice": "Returns the address of the underlying asset of this aToken (E.g. WETH for aWETH)"
      },
      "burn(address,address,uint256,uint256)": {
        "notice": "Burns aTokens from `user` and sends the equivalent amount of underlying to `receiverOfUnderlying`"
      },
      "decreaseAllowance(address,uint256)": {
        "notice": "Decreases the allowance of spender to spend _msgSender() tokens"
      },
      "getIncentivesController()": {
        "notice": "Returns the address of the Incentives Controller contract"
      },
      "getPreviousIndex(address)": {
        "notice": "Returns last index interest was accrued to the user's balance"
      },
      "getScaledUserBalanceAndSupply(address)": {
        "notice": "Returns the scaled balance of the user and the scaled total supply."
      },
      "handleRepayment(address,address,uint256)": {
        "notice": "Handles the underlying received by the aToken after the transfer has been completed."
      },
      "increaseAllowance(address,uint256)": {
        "notice": "Increases the allowance of spender to spend _msgSender() tokens"
      },
      "initialize(address,address,address,address,uint8,string,string,bytes)": {
        "notice": "Initializes the aToken"
      },
      "mint(address,address,uint256,uint256)": {
        "notice": "Mints `amount` aTokens to `user`"
      },
      "mintToTreasury(uint256,uint256)": {
        "notice": "Mints aTokens to the reserve treasury"
      },
      "rescueTokens(address,address,uint256)": {
        "notice": "Rescue and transfer tokens locked in this contract"
      },
      "scaledBalanceOf(address)": {
        "notice": "Returns the scaled balance of the user."
      },
      "scaledTotalSupply()": {
        "notice": "Returns the scaled total supply of the scaled balance token. Represents sum(debt/index)"
      },
      "setIncentivesController(address)": {
        "notice": "Sets a new Incentives Controller"
      },
      "transferOnLiquidation(address,address,uint256)": {
        "notice": "Transfers aTokens in the event of a borrow being liquidated, in case the liquidators reclaims the aToken"
      },
      "transferUnderlyingTo(address,uint256)": {
        "notice": "Transfers the underlying asset to `target`."
      }
    },
    "notice": "ATokenAerodromeLP is a custom AToken for Aerodrome LP tokens",
    "version": 1
  },
  "storageLayout": {
    "storage": [
      {
        "astId": 8835,
        "contract": "contracts/aerodrome/ATokenAerodromeLP.sol:ATokenAerodromeLP",
        "label": "lastInitializedRevision",
        "offset": 0,
        "slot": "0",
        "type": "t_uint256"
      },
      {
        "astId": 8838,
        "contract": "contracts/aerodrome/ATokenAerodromeLP.sol:ATokenAerodromeLP",
        "label": "initializing",
        "offset": 0,
        "slot": "1",
        "type": "t_bool"
      },
      {
        "astId": 8908,
        "contract": "contracts/aerodrome/ATokenAerodromeLP.sol:ATokenAerodromeLP",
        "label": "______gap",
        "offset": 0,
        "slot": "2",
        "type": "t_array(t_uint256)50_storage"
      },
      {
        "astId": 10382,
        "contract": "contracts/aerodrome/ATokenAerodromeLP.sol:ATokenAerodromeLP",
        "label": "_userState",
        "offset": 0,
        "slot": "52",
        "type": "t_mapping(t_address,t_struct(UserState)10377_storage)"
      },
      {
        "astId": 10388,
        "contract": "contracts/aerodrome/ATokenAerodromeLP.sol:ATokenAerodromeLP",
        "label": "_allowances",
        "offset": 0,
        "slot": "53",
        "type": "t_mapping(t_address,t_mapping(t_address,t_uint256))"
      },
      {
        "astId": 10390,
        "contract": "contracts/aerodrome/ATokenAerodromeLP.sol:ATokenAerodromeLP",
        "label": "_totalSupply",
        "offset": 0,
        "slot": "54",
        "type": "t_uint256"
      },
      {
        "astId": 10392,
        "contract": "contracts/aerodrome/ATokenAerodromeLP.sol:ATokenAerodromeLP",
        "label": "_name",
        "offset": 0,
        "slot": "55",
        "type": "t_string_storage"
      },
      {
        "astId": 10394,
        "contract": "contracts/aerodrome/ATokenAerodromeLP.sol:ATokenAerodromeLP",
        "label": "_symbol",
        "offset": 0,
        "slot": "56",
        "type": "t_string_storage"
      },
      {
        "astId": 10396,
        "contract": "contracts/aerodrome/ATokenAerodromeLP.sol:ATokenAerodromeLP",
        "label": "_decimals",
        "offset": 0,
        "slot": "57",
        "type": "t_uint8"
      },
      {
        "astId": 10399,
        "contract": "contracts/aerodrome/ATokenAerodromeLP.sol:ATokenAerodromeLP",
        "label": "_incentivesController",
        "offset": 1,
        "slot": "57",
        "type": "t_contract(IAaveIncentivesController)7854"
      },
      {
        "astId": 10216,
        "contract": "contracts/aerodrome/ATokenAerodromeLP.sol:ATokenAerodromeLP",
        "label": "_nonces",
        "offset": 0,
        "slot": "58",
        "type": "t_mapping(t_address,t_uint256)"
      },
      {
        "astId": 10218,
        "contract": "contracts/aerodrome/ATokenAerodromeLP.sol:ATokenAerodromeLP",
        "label": "_domainSeparator",
        "offset": 0,
        "slot": "59",
        "type": "t_bytes32"
      },
      {
        "astId": 9681,
        "contract": "contracts/aerodrome/ATokenAerodromeLP.sol:ATokenAerodromeLP",
        "label": "_treasury",
        "offset": 0,
        "slot": "60",
        "type": "t_address"
      },
      {
        "astId": 9683,
        "contract": "contracts/aerodrome/ATokenAerodromeLP.sol:ATokenAerodromeLP",
        "label": "_underlyingAsset",
        "offset": 0,
        "slot": "61",
        "type": "t_address"
      },
      {
        "astId": 12120,
        "contract": "contracts/aerodrome/ATokenAerodromeLP.sol:ATokenAerodromeLP",
        "label": "gauge",
        "offset": 0,
        "slot": "62",
        "type": "t_contract(IAerodromeGauge)13307"
      },
      {
        "astId": 12123,
        "contract": "contracts/aerodrome/ATokenAerodromeLP.sol:ATokenAerodromeLP",
        "label": "aero",
        "offset": 0,
        "slot": "63",
        "type": "t_contract(IERC20)1252"
      },
      {
        "astId": 12125,
        "contract": "contracts/aerodrome/ATokenAerodromeLP.sol:ATokenAerodromeLP",
        "label": "aeroEmissionReceiver",
        "offset": 0,
        "slot": "64",
        "type": "t_address"
      }
    ],
    "types": {
      "t_address": {
        "encoding": "inplace",
        "label": "address",
        "numberOfBytes": "20"
      },
      "t_array(t_uint256)50_storage": {
        "base": "t_uint256",
        "encoding": "inplace",
        "label": "uint256[50]",
        "numberOfBytes": "1600"
      },
      "t_bool": {
        "encoding": "inplace",
        "label": "bool",
        "numberOfBytes": "1"
      },
      "t_bytes32": {
        "encoding": "inplace",
        "label": "bytes32",
        "numberOfBytes": "32"
      },
      "t_contract(IAaveIncentivesController)7854": {
        "encoding": "inplace",
        "label": "contract IAaveIncentivesController",
        "numberOfBytes": "20"
      },
      "t_contract(IAerodromeGauge)13307": {
        "encoding": "inplace",
        "label": "contract IAerodromeGauge",
        "numberOfBytes": "20"
      },
      "t_contract(IERC20)1252": {
        "encoding": "inplace",
        "label": "contract IERC20",
        "numberOfBytes": "20"
      },
      "t_mapping(t_address,t_mapping(t_address,t_uint256))": {
        "encoding": "mapping",
        "key": "t_address",
        "label": "mapping(address => mapping(address => uint256))",
        "numberOfBytes": "32",
        "value": "t_mapping(t_address,t_uint256)"
      },
      "t_mapping(t_address,t_struct(UserState)10377_storage)": {
        "encoding": "mapping",
        "key": "t_address",
        "label": "mapping(address => struct IncentivizedERC20.UserState)",
        "numberOfBytes": "32",
        "value": "t_struct(UserState)10377_storage"
      },
      "t_mapping(t_address,t_uint256)": {
        "encoding": "mapping",
        "key": "t_address",
        "label": "mapping(address => uint256)",
        "numberOfBytes": "32",
        "value": "t_uint256"
      },
      "t_string_storage": {
        "encoding": "bytes",
        "label": "string",
        "numberOfBytes": "32"
      },
      "t_struct(UserState)10377_storage": {
        "encoding": "inplace",
        "label": "struct IncentivizedERC20.UserState",
        "members": [
          {
            "astId": 10374,
            "contract": "contracts/aerodrome/ATokenAerodromeLP.sol:ATokenAerodromeLP",
            "label": "balance",
            "offset": 0,
            "slot": "0",
            "type": "t_uint128"
          },
          {
            "astId": 10376,
            "contract": "contracts/aerodrome/ATokenAerodromeLP.sol:ATokenAerodromeLP",
            "label": "additionalData",
            "offset": 16,
            "slot": "0",
            "type": "t_uint128"
          }
        ],
        "numberOfBytes": "32"
      },
      "t_uint128": {
        "encoding": "inplace",
        "label": "uint128",
        "numberOfBytes": "16"
      },
      "t_uint256": {
        "encoding": "inplace",
        "label": "uint256",
        "numberOfBytes": "32"
      },
      "t_uint8": {
        "encoding": "inplace",
        "label": "uint8",
        "numberOfBytes": "1"
      }
    }
  }
}