{
  "address": "0x89E309d075bb479C3dd3B9CA5d6a89B7a249Be4d",
  "abi": [
    {
      "anonymous": false,
      "inputs": [
        {
          "indexed": true,
          "internalType": "address",
          "name": "caller",
          "type": "address"
        },
        {
          "indexed": true,
          "internalType": "address",
          "name": "token",
          "type": "address"
        },
        {
          "indexed": true,
          "internalType": "address",
          "name": "to",
          "type": "address"
        },
        {
          "indexed": false,
          "internalType": "uint256",
          "name": "amount",
          "type": "uint256"
        }
      ],
      "name": "EmergencyWithdrawal",
      "type": "event"
    },
    {
      "anonymous": false,
      "inputs": [
        {
          "indexed": false,
          "internalType": "uint8",
          "name": "version",
          "type": "uint8"
        }
      ],
      "name": "Initialized",
      "type": "event"
    },
    {
      "anonymous": false,
      "inputs": [
        {
          "indexed": true,
          "internalType": "address",
          "name": "previousOwner",
          "type": "address"
        },
        {
          "indexed": true,
          "internalType": "address",
          "name": "newOwner",
          "type": "address"
        }
      ],
      "name": "OwnershipTransferred",
      "type": "event"
    },
    {
      "anonymous": false,
      "inputs": [
        {
          "indexed": true,
          "internalType": "address",
          "name": "who",
          "type": "address"
        },
        {
          "indexed": false,
          "internalType": "bool",
          "name": "isWhitelisted",
          "type": "bool"
        }
      ],
      "name": "Whitelisted",
      "type": "event"
    },
    {
      "inputs": [
        {
          "internalType": "address",
          "name": "token",
          "type": "address"
        },
        {
          "internalType": "address",
          "name": "to",
          "type": "address"
        },
        {
          "internalType": "uint256",
          "name": "amount",
          "type": "uint256"
        }
      ],
      "name": "emergencyWithdrawal",
      "outputs": [],
      "stateMutability": "nonpayable",
      "type": "function"
    },
    {
      "inputs": [],
      "name": "emissionManager",
      "outputs": [
        {
          "internalType": "contract IEmissionManager",
          "name": "",
          "type": "address"
        }
      ],
      "stateMutability": "view",
      "type": "function"
    },
    {
      "inputs": [
        {
          "internalType": "address",
          "name": "",
          "type": "address"
        },
        {
          "internalType": "contract IERC20",
          "name": "",
          "type": "address"
        }
      ],
      "name": "emissionsReceived",
      "outputs": [
        {
          "internalType": "uint256",
          "name": "",
          "type": "uint256"
        }
      ],
      "stateMutability": "view",
      "type": "function"
    },
    {
      "inputs": [
        {
          "internalType": "address",
          "name": "_reserve",
          "type": "address"
        }
      ],
      "name": "getAToken",
      "outputs": [
        {
          "internalType": "address",
          "name": "",
          "type": "address"
        }
      ],
      "stateMutability": "view",
      "type": "function"
    },
    {
      "inputs": [],
      "name": "getIncentivesController",
      "outputs": [
        {
          "internalType": "address",
          "name": "",
          "type": "address"
        }
      ],
      "stateMutability": "view",
      "type": "function"
    },
    {
      "inputs": [],
      "name": "getRewardsAdmin",
      "outputs": [
        {
          "internalType": "address",
          "name": "",
          "type": "address"
        }
      ],
      "stateMutability": "view",
      "type": "function"
    },
    {
      "inputs": [],
      "name": "incentiveController",
      "outputs": [
        {
          "internalType": "address",
          "name": "",
          "type": "address"
        }
      ],
      "stateMutability": "view",
      "type": "function"
    },
    {
      "inputs": [
        {
          "internalType": "address",
          "name": "_owner",
          "type": "address"
        },
        {
          "internalType": "address",
          "name": "_pool",
          "type": "address"
        },
        {
          "internalType": "address",
          "name": "_emissionManager",
          "type": "address"
        },
        {
          "internalType": "address",
          "name": "_incentiveController",
          "type": "address"
        }
      ],
      "name": "initialize",
      "outputs": [],
      "stateMutability": "nonpayable",
      "type": "function"
    },
    {
      "inputs": [
        {
          "internalType": "address",
          "name": "",
          "type": "address"
        }
      ],
      "name": "lastNotified",
      "outputs": [
        {
          "internalType": "uint256",
          "name": "",
          "type": "uint256"
        }
      ],
      "stateMutability": "view",
      "type": "function"
    },
    {
      "inputs": [
        {
          "internalType": "address",
          "name": "_reserve",
          "type": "address"
        },
        {
          "internalType": "contract IERC20",
          "name": "_token",
          "type": "address"
        },
        {
          "internalType": "address",
          "name": "_oracle",
          "type": "address"
        }
      ],
      "name": "notifyEmissionManager",
      "outputs": [],
      "stateMutability": "nonpayable",
      "type": "function"
    },
    {
      "inputs": [],
      "name": "owner",
      "outputs": [
        {
          "internalType": "address",
          "name": "",
          "type": "address"
        }
      ],
      "stateMutability": "view",
      "type": "function"
    },
    {
      "inputs": [
        {
          "internalType": "address",
          "name": "to",
          "type": "address"
        },
        {
          "internalType": "address",
          "name": "reward",
          "type": "address"
        },
        {
          "internalType": "uint256",
          "name": "amount",
          "type": "uint256"
        }
      ],
      "name": "performTransfer",
      "outputs": [
        {
          "internalType": "bool",
          "name": "",
          "type": "bool"
        }
      ],
      "stateMutability": "nonpayable",
      "type": "function"
    },
    {
      "inputs": [],
      "name": "pool",
      "outputs": [
        {
          "internalType": "contract IPool",
          "name": "",
          "type": "address"
        }
      ],
      "stateMutability": "view",
      "type": "function"
    },
    {
      "inputs": [],
      "name": "renounceOwnership",
      "outputs": [],
      "stateMutability": "nonpayable",
      "type": "function"
    },
    {
      "inputs": [
        {
          "internalType": "address",
          "name": "newOwner",
          "type": "address"
        }
      ],
      "name": "transferOwnership",
      "outputs": [],
      "stateMutability": "nonpayable",
      "type": "function"
    },
    {
      "inputs": [
        {
          "internalType": "address",
          "name": "_reserve",
          "type": "address"
        },
        {
          "internalType": "bool",
          "name": "_what",
          "type": "bool"
        }
      ],
      "name": "whitelist",
      "outputs": [],
      "stateMutability": "nonpayable",
      "type": "function"
    },
    {
      "inputs": [
        {
          "internalType": "address",
          "name": "",
          "type": "address"
        }
      ],
      "name": "whitelisted",
      "outputs": [
        {
          "internalType": "bool",
          "name": "",
          "type": "bool"
        }
      ],
      "stateMutability": "view",
      "type": "function"
    }
  ],
  "transactionHash": "0x05df7dafbfe1871a3f15d6458795e2e0f3ce31cb75c48e5e46dd8171d867f3cc",
  "args": [],
  "numDeployments": 1,
  "solcInputHash": "169d251f3a135c95a38cac77822a1aca",
  "bytecode": "0x60806040523480156200001157600080fd5b5062000032620000266200003860201b60201c565b6200004060201b60201c565b62000105565b600033905090565b60008060029054906101000a900473ffffffffffffffffffffffffffffffffffffffff16905081600060026101000a81548173ffffffffffffffffffffffffffffffffffffffff021916908373ffffffffffffffffffffffffffffffffffffffff1602179055508173ffffffffffffffffffffffffffffffffffffffff168173ffffffffffffffffffffffffffffffffffffffff167f8be0079c531659141344cd1fd0a4f28419497f9722a3daafe3b4186f6b6457e060405160405180910390a35050565b612a2180620001156000396000f3fe608060405234801561001057600080fd5b506004361061010b5760003560e01c80638d8e5da7116100a2578063d936547e11610071578063d936547e146102a8578063e307c952146102d8578063f2fde38b146102f6578063f59c370814610312578063f8c8765e1461032e5761010b565b80638d8e5da7146102205780638da5cb5b1461023c578063c62554431461025a578063c7223591146102785761010b565b80635b9fe37f116100de5780635b9fe37f146101aa578063715018a6146101c8578063732a52ee146101d257806375d26413146102025761010b565b80630833a6941461011057806316beb9821461012c57806316f0115b1461015c5780632f1f138b1461017a575b600080fd5b61012a600480360381019061012591906117ad565b61034a565b005b61014660048036038101906101419190611836565b6107df565b60405161015391906118a4565b60405180910390f35b6101646108a7565b604051610171919061191e565b60405180910390f35b610194600480360381019061018f9190611939565b6108cd565b6040516101a19190611975565b60405180910390f35b6101b26108e5565b6040516101bf919061199f565b60405180910390f35b6101d061090b565b005b6101ec60048036038101906101e79190611939565b61091f565b6040516101f9919061199f565b60405180910390f35b61020a6109ca565b604051610217919061199f565b60405180910390f35b61023a60048036038101906102359190611836565b6109f4565b005b610244610aa8565b604051610251919061199f565b60405180910390f35b610262610ad1565b60405161026f919061199f565b60405180910390f35b610292600480360381019061028d91906119ba565b610ae0565b60405161029f9190611975565b60405180910390f35b6102c260048036038101906102bd9190611939565b610b05565b6040516102cf91906118a4565b60405180910390f35b6102e0610b25565b6040516102ed9190611a1b565b60405180910390f35b610310600480360381019061030b9190611939565b610b4b565b005b61032c60048036038101906103279190611a62565b610bcf565b005b61034860048036038101906103439190611aa2565b610c80565b005b600660008473ffffffffffffffffffffffffffffffffffffffff1673ffffffffffffffffffffffffffffffffffffffff16815260200190815260200160002060009054906101000a900460ff166103d6576040517f08c379a00000000000000000000000000000000000000000000000000000000081526004016103cd90611b66565b60405180910390fd5b600660003373ffffffffffffffffffffffffffffffffffffffff1673ffffffffffffffffffffffffffffffffffffffff16815260200190815260200160002060009054906101000a900460ff16610462576040517f08c379a000000000000000000000000000000000000000000000000000000000815260040161045990611bd2565b60405180910390fd5b600660008373ffffffffffffffffffffffffffffffffffffffff1673ffffffffffffffffffffffffffffffffffffffff16815260200190815260200160002060009054906101000a900460ff166104ee576040517f08c379a00000000000000000000000000000000000000000000000000000000081526004016104e590611c3e565b60405180910390fd5b600660008273ffffffffffffffffffffffffffffffffffffffff1673ffffffffffffffffffffffffffffffffffffffff16815260200190815260200160002060009054906101000a900460ff1661057a576040517f08c379a000000000000000000000000000000000000000000000000000000000815260040161057190611caa565b60405180910390fd5b60006105858461091f565b90508073ffffffffffffffffffffffffffffffffffffffff1663adad3a746040518163ffffffff1660e01b8152600401600060405180830381600087803b1580156105cf57600080fd5b505af11580156105e3573d6000803e3d6000fd5b505050504261025862015180600560008873ffffffffffffffffffffffffffffffffffffffff1673ffffffffffffffffffffffffffffffffffffffff168152602001908152602001600020546106399190611cf9565b6106439190611d4f565b1115610684576040517f08c379a000000000000000000000000000000000000000000000000000000000815260040161067b90611dcf565b60405180910390fd5b6000600167ffffffffffffffff8111156106a1576106a0611def565b5b6040519080825280602002602001820160405280156106da57816020015b6106c761165a565b8152602001906001900390816106bf5790505b5090506106e8828585610ede565b816000815181106106fc576106fb611e1e565b5b6020026020010181905250600260009054906101000a900473ffffffffffffffffffffffffffffffffffffffff1673ffffffffffffffffffffffffffffffffffffffff1663955c2ad7826040518263ffffffff1660e01b8152600401610762919061202f565b600060405180830381600087803b15801561077c57600080fd5b505af1158015610790573d6000803e3d6000fd5b5050505042600560008773ffffffffffffffffffffffffffffffffffffffff1673ffffffffffffffffffffffffffffffffffffffff168152602001908152602001600020819055505050505050565b60003373ffffffffffffffffffffffffffffffffffffffff16600160009054906101000a900473ffffffffffffffffffffffffffffffffffffffff1673ffffffffffffffffffffffffffffffffffffffff1614610871576040517f08c379a00000000000000000000000000000000000000000000000000000000081526004016108689061209d565b60405180910390fd5b61089c84838573ffffffffffffffffffffffffffffffffffffffff166111f39092919063ffffffff16565b600190509392505050565b600360009054906101000a900473ffffffffffffffffffffffffffffffffffffffff1681565b60056020528060005260406000206000915090505481565b600160009054906101000a900473ffffffffffffffffffffffffffffffffffffffff1681565b610913611279565b61091d60006112f7565b565b6000600360009054906101000a900473ffffffffffffffffffffffffffffffffffffffff1673ffffffffffffffffffffffffffffffffffffffff166335ea6a75836040518263ffffffff1660e01b815260040161097c919061199f565b6101e060405180830381865afa15801561099a573d6000803e3d6000fd5b505050506040513d601f19601f820116820180604052508101906109be91906123a8565b61010001519050919050565b6000600160009054906101000a900473ffffffffffffffffffffffffffffffffffffffff16905090565b6109fc611279565b610a2782828573ffffffffffffffffffffffffffffffffffffffff166111f39092919063ffffffff16565b8173ffffffffffffffffffffffffffffffffffffffff168373ffffffffffffffffffffffffffffffffffffffff163373ffffffffffffffffffffffffffffffffffffffff167f7dc4ea712e6400e67a5abca1a983e5c420c386c19936dc120cd860b50b8e257984604051610a9b9190611975565b60405180910390a4505050565b60008060029054906101000a900473ffffffffffffffffffffffffffffffffffffffff16905090565b6000610adb610aa8565b905090565b6004602052816000526040600020602052806000526040600020600091509150505481565b60066020528060005260406000206000915054906101000a900460ff1681565b600260009054906101000a900473ffffffffffffffffffffffffffffffffffffffff1681565b610b53611279565b600073ffffffffffffffffffffffffffffffffffffffff168173ffffffffffffffffffffffffffffffffffffffff161415610bc3576040517f08c379a0000000000000000000000000000000000000000000000000000000008152600401610bba90612448565b60405180910390fd5b610bcc816112f7565b50565b610bd7611279565b80600660008473ffffffffffffffffffffffffffffffffffffffff1673ffffffffffffffffffffffffffffffffffffffff16815260200190815260200160002060006101000a81548160ff0219169083151502179055508173ffffffffffffffffffffffffffffffffffffffff167fa54714518c5d275fdcd3d2a461e4858e4e8cb04fb93cd0bca9d6d34115f2644082604051610c7491906118a4565b60405180910390a25050565b60008060019054906101000a900460ff16159050808015610cb15750600160008054906101000a900460ff1660ff16105b80610cde5750610cc0306113bc565b158015610cdd5750600160008054906101000a900460ff1660ff16145b5b610d1d576040517f08c379a0000000000000000000000000000000000000000000000000000000008152600401610d14906124da565b60405180910390fd5b60016000806101000a81548160ff021916908360ff1602179055508015610d5a576001600060016101000a81548160ff0219169083151502179055505b82600260006101000a81548173ffffffffffffffffffffffffffffffffffffffff021916908373ffffffffffffffffffffffffffffffffffffffff16021790555081600160006101000a81548173ffffffffffffffffffffffffffffffffffffffff021916908373ffffffffffffffffffffffffffffffffffffffff1602179055506001600660008773ffffffffffffffffffffffffffffffffffffffff1673ffffffffffffffffffffffffffffffffffffffff16815260200190815260200160002060006101000a81548160ff02191690831515021790555083600360006101000a81548173ffffffffffffffffffffffffffffffffffffffff021916908373ffffffffffffffffffffffffffffffffffffffff160217905550610e7e856112f7565b8015610ed75760008060016101000a81548160ff0219169083151502179055507f7f26b83ff96e1f2b6a682f133852f6798a09c465da95921460cefb38474024986001604051610ece9190612542565b60405180910390a15b5050505050565b610ee661165a565b60008373ffffffffffffffffffffffffffffffffffffffff166370a08231866040518263ffffffff1660e01b8152600401610f21919061199f565b602060405180830381865afa158015610f3e573d6000803e3d6000fd5b505050506040513d601f19601f82011682018060405250810190610f62919061255d565b905060008111610fa7576040517f08c379a0000000000000000000000000000000000000000000000000000000008152600401610f9e906125d6565b60405180910390fd5b8373ffffffffffffffffffffffffffffffffffffffff166323b872dd8630846040518463ffffffff1660e01b8152600401610fe4939291906125f6565b6020604051808303816000875af1158015611003573d6000803e3d6000fd5b505050506040513d601f19601f820116820180604052508101906110279190612642565b5080600460008773ffffffffffffffffffffffffffffffffffffffff1673ffffffffffffffffffffffffffffffffffffffff16815260200190815260200160002060008673ffffffffffffffffffffffffffffffffffffffff1673ffffffffffffffffffffffffffffffffffffffff16815260200190815260200160002060008282546110b49190611cf9565b9250508190555060006040518060e0016040528062015180846110d7919061269e565b6affffffffffffffffffffff1681526020018773ffffffffffffffffffffffffffffffffffffffff166318160ddd6040518163ffffffff1660e01b8152600401602060405180830381865afa158015611134573d6000803e3d6000fd5b505050506040513d601f19601f82011682018060405250810190611158919061255d565b8152602001620151804261116c9190611cf9565b63ffffffff1681526020018773ffffffffffffffffffffffffffffffffffffffff1681526020018673ffffffffffffffffffffffffffffffffffffffff1681526020013073ffffffffffffffffffffffffffffffffffffffff1681526020018573ffffffffffffffffffffffffffffffffffffffff16815250905080925050509392505050565b6112748363a9059cbb60e01b84846040516024016112129291906126cf565b604051602081830303815290604052907bffffffffffffffffffffffffffffffffffffffffffffffffffffffff19166020820180517bffffffffffffffffffffffffffffffffffffffffffffffffffffffff83818316178352505050506113df565b505050565b6112816114a7565b73ffffffffffffffffffffffffffffffffffffffff1661129f610aa8565b73ffffffffffffffffffffffffffffffffffffffff16146112f5576040517f08c379a00000000000000000000000000000000000000000000000000000000081526004016112ec90612744565b60405180910390fd5b565b60008060029054906101000a900473ffffffffffffffffffffffffffffffffffffffff16905081600060026101000a81548173ffffffffffffffffffffffffffffffffffffffff021916908373ffffffffffffffffffffffffffffffffffffffff1602179055508173ffffffffffffffffffffffffffffffffffffffff168173ffffffffffffffffffffffffffffffffffffffff167f8be0079c531659141344cd1fd0a4f28419497f9722a3daafe3b4186f6b6457e060405160405180910390a35050565b6000808273ffffffffffffffffffffffffffffffffffffffff163b119050919050565b6000611441826040518060400160405280602081526020017f5361666545524332303a206c6f772d6c6576656c2063616c6c206661696c65648152508573ffffffffffffffffffffffffffffffffffffffff166114af9092919063ffffffff16565b90506000815114806114635750808060200190518101906114629190612642565b5b6114a2576040517f08c379a0000000000000000000000000000000000000000000000000000000008152600401611499906127d6565b60405180910390fd5b505050565b600033905090565b60606114be84846000856114c7565b90509392505050565b60608247101561150c576040517f08c379a000000000000000000000000000000000000000000000000000000000815260040161150390612868565b60405180910390fd5b6000808673ffffffffffffffffffffffffffffffffffffffff1685876040516115359190612902565b60006040518083038185875af1925050503d8060008114611572576040519150601f19603f3d011682016040523d82523d6000602084013e611577565b606091505b509150915061158887838387611594565b92505050949350505050565b606083156115f7576000835114156115ef576115af856113bc565b6115ee576040517f08c379a00000000000000000000000000000000000000000000000000000000081526004016115e590612965565b60405180910390fd5b5b829050611602565b611601838361160a565b5b949350505050565b60008251111561161d5781518083602001fd5b806040517f08c379a000000000000000000000000000000000000000000000000000000000815260040161165191906129c9565b60405180910390fd5b6040518060e0016040528060006affffffffffffffffffffff16815260200160008152602001600063ffffffff168152602001600073ffffffffffffffffffffffffffffffffffffffff168152602001600073ffffffffffffffffffffffffffffffffffffffff168152602001600073ffffffffffffffffffffffffffffffffffffffff168152602001600073ffffffffffffffffffffffffffffffffffffffff1681525090565b6000604051905090565b600080fd5b600073ffffffffffffffffffffffffffffffffffffffff82169050919050565b600061173c82611711565b9050919050565b61174c81611731565b811461175757600080fd5b50565b60008135905061176981611743565b92915050565b600061177a82611731565b9050919050565b61178a8161176f565b811461179557600080fd5b50565b6000813590506117a781611781565b92915050565b6000806000606084860312156117c6576117c561170c565b5b60006117d48682870161175a565b93505060206117e586828701611798565b92505060406117f68682870161175a565b9150509250925092565b6000819050919050565b61181381611800565b811461181e57600080fd5b50565b6000813590506118308161180a565b92915050565b60008060006060848603121561184f5761184e61170c565b5b600061185d8682870161175a565b935050602061186e8682870161175a565b925050604061187f86828701611821565b9150509250925092565b60008115159050919050565b61189e81611889565b82525050565b60006020820190506118b96000830184611895565b92915050565b6000819050919050565b60006118e46118df6118da84611711565b6118bf565b611711565b9050919050565b60006118f6826118c9565b9050919050565b6000611908826118eb565b9050919050565b611918816118fd565b82525050565b6000602082019050611933600083018461190f565b92915050565b60006020828403121561194f5761194e61170c565b5b600061195d8482850161175a565b91505092915050565b61196f81611800565b82525050565b600060208201905061198a6000830184611966565b92915050565b61199981611731565b82525050565b60006020820190506119b46000830184611990565b92915050565b600080604083850312156119d1576119d061170c565b5b60006119df8582860161175a565b92505060206119f085828601611798565b9150509250929050565b6000611a05826118eb565b9050919050565b611a15816119fa565b82525050565b6000602082019050611a306000830184611a0c565b92915050565b611a3f81611889565b8114611a4a57600080fd5b50565b600081359050611a5c81611a36565b92915050565b60008060408385031215611a7957611a7861170c565b5b6000611a878582860161175a565b9250506020611a9885828601611a4d565b9150509250929050565b60008060008060808587031215611abc57611abb61170c565b5b6000611aca8782880161175a565b9450506020611adb8782880161175a565b9350506040611aec8782880161175a565b9250506060611afd8782880161175a565b91505092959194509250565b600082825260208201905092915050565b7f2177686974656c69737420726573657276650000000000000000000000000000600082015250565b6000611b50601283611b09565b9150611b5b82611b1a565b602082019050919050565b60006020820190508181036000830152611b7f81611b43565b9050919050565b7f2177686974656c6973742073656e646572000000000000000000000000000000600082015250565b6000611bbc601183611b09565b9150611bc782611b86565b602082019050919050565b60006020820190508181036000830152611beb81611baf565b9050919050565b7f2177686974656c69737420746f6b656e00000000000000000000000000000000600082015250565b6000611c28601083611b09565b9150611c3382611bf2565b602082019050919050565b60006020820190508181036000830152611c5781611c1b565b9050919050565b7f2177686974656c697374206f7261636c65000000000000000000000000000000600082015250565b6000611c94601183611b09565b9150611c9f82611c5e565b602082019050919050565b60006020820190508181036000830152611cc381611c87565b9050919050565b7f4e487b7100000000000000000000000000000000000000000000000000000000600052601160045260246000fd5b6000611d0482611800565b9150611d0f83611800565b9250827fffffffffffffffffffffffffffffffffffffffffffffffffffffffffffffffff03821115611d4457611d43611cca565b5b828201905092915050565b6000611d5a82611800565b9150611d6583611800565b925082821015611d7857611d77611cca565b5b828203905092915050565b7f746f6f20736f6f6e20746f206e6f746966790000000000000000000000000000600082015250565b6000611db9601283611b09565b9150611dc482611d83565b602082019050919050565b60006020820190508181036000830152611de881611dac565b9050919050565b7f4e487b7100000000000000000000000000000000000000000000000000000000600052604160045260246000fd5b7f4e487b7100000000000000000000000000000000000000000000000000000000600052603260045260246000fd5b600081519050919050565b600082825260208201905092915050565b6000819050602082019050919050565b60006affffffffffffffffffffff82169050919050565b611e9981611e79565b82525050565b611ea881611800565b82525050565b600063ffffffff82169050919050565b611ec781611eae565b82525050565b611ed681611731565b82525050565b6000611ee7826118eb565b9050919050565b611ef781611edc565b82525050565b6000611f08826118eb565b9050919050565b611f1881611efd565b82525050565b60e082016000820151611f346000850182611e90565b506020820151611f476020850182611e9f565b506040820151611f5a6040850182611ebe565b506060820151611f6d6060850182611ecd565b506080820151611f806080850182611ecd565b5060a0820151611f9360a0850182611eee565b5060c0820151611fa660c0850182611f0f565b50505050565b6000611fb88383611f1e565b60e08301905092915050565b6000602082019050919050565b6000611fdc82611e4d565b611fe68185611e58565b9350611ff183611e69565b8060005b838110156120225781516120098882611fac565b975061201483611fc4565b925050600181019050611ff5565b5085935050505092915050565b600060208201905081810360008301526120498184611fd1565b905092915050565b7f43414c4c45525f4e4f545f494e43454e54495645535f434f4e54524f4c4c4552600082015250565b6000612087602083611b09565b915061209282612051565b602082019050919050565b600060208201905081810360008301526120b68161207a565b9050919050565b600080fd5b6000601f19601f8301169050919050565b6120dc826120c2565b810181811067ffffffffffffffff821117156120fb576120fa611def565b5b80604052505050565b600061210e611702565b905061211a82826120d3565b919050565b60008151905061212e8161180a565b92915050565b60006020828403121561214a576121496120bd565b5b6121546020612104565b905060006121648482850161211f565b60008301525092915050565b60006fffffffffffffffffffffffffffffffff82169050919050565b61219581612170565b81146121a057600080fd5b50565b6000815190506121b28161218c565b92915050565b600064ffffffffff82169050919050565b6121d2816121b8565b81146121dd57600080fd5b50565b6000815190506121ef816121c9565b92915050565b600061ffff82169050919050565b61220c816121f5565b811461221757600080fd5b50565b60008151905061222981612203565b92915050565b60008151905061223e81611743565b92915050565b60006101e0828403121561225b5761225a6120bd565b5b6122666101e0612104565b9050600061227684828501612134565b600083015250602061228a848285016121a3565b602083015250604061229e848285016121a3565b60408301525060606122b2848285016121a3565b60608301525060806122c6848285016121a3565b60808301525060a06122da848285016121a3565b60a08301525060c06122ee848285016121e0565b60c08301525060e06123028482850161221a565b60e0830152506101006123178482850161222f565b6101008301525061012061232d8482850161222f565b610120830152506101406123438482850161222f565b610140830152506101606123598482850161222f565b6101608301525061018061236f848285016121a3565b610180830152506101a0612385848285016121a3565b6101a0830152506101c061239b848285016121a3565b6101c08301525092915050565b60006101e082840312156123bf576123be61170c565b5b60006123cd84828501612244565b91505092915050565b7f4f776e61626c653a206e6577206f776e657220697320746865207a65726f206160008201527f6464726573730000000000000000000000000000000000000000000000000000602082015250565b6000612432602683611b09565b915061243d826123d6565b604082019050919050565b6000602082019050818103600083015261246181612425565b9050919050565b7f496e697469616c697a61626c653a20636f6e747261637420697320616c72656160008201527f647920696e697469616c697a6564000000000000000000000000000000000000602082015250565b60006124c4602e83611b09565b91506124cf82612468565b604082019050919050565b600060208201905081810360008301526124f3816124b7565b9050919050565b6000819050919050565b600060ff82169050919050565b600061252c612527612522846124fa565b6118bf565b612504565b9050919050565b61253c81612511565b82525050565b60006020820190506125576000830184612533565b92915050565b6000602082840312156125735761257261170c565b5b60006125818482850161211f565b91505092915050565b7f6e6f20656d697373696f6e7320746f206e6f7469667900000000000000000000600082015250565b60006125c0601683611b09565b91506125cb8261258a565b602082019050919050565b600060208201905081810360008301526125ef816125b3565b9050919050565b600060608201905061260b6000830186611990565b6126186020830185611990565b6126256040830184611966565b949350505050565b60008151905061263c81611a36565b92915050565b6000602082840312156126585761265761170c565b5b60006126668482850161262d565b91505092915050565b7f4e487b7100000000000000000000000000000000000000000000000000000000600052601260045260246000fd5b60006126a982611800565b91506126b483611800565b9250826126c4576126c361266f565b5b828204905092915050565b60006040820190506126e46000830185611990565b6126f16020830184611966565b9392505050565b7f4f776e61626c653a2063616c6c6572206973206e6f7420746865206f776e6572600082015250565b600061272e602083611b09565b9150612739826126f8565b602082019050919050565b6000602082019050818103600083015261275d81612721565b9050919050565b7f5361666545524332303a204552433230206f7065726174696f6e20646964206e60008201527f6f74207375636365656400000000000000000000000000000000000000000000602082015250565b60006127c0602a83611b09565b91506127cb82612764565b604082019050919050565b600060208201905081810360008301526127ef816127b3565b9050919050565b7f416464726573733a20696e73756666696369656e742062616c616e636520666f60008201527f722063616c6c0000000000000000000000000000000000000000000000000000602082015250565b6000612852602683611b09565b915061285d826127f6565b604082019050919050565b6000602082019050818103600083015261288181612845565b9050919050565b600081519050919050565b600081905092915050565b60005b838110156128bc5780820151818401526020810190506128a1565b838111156128cb576000848401525b50505050565b60006128dc82612888565b6128e68185612893565b93506128f681856020860161289e565b80840191505092915050565b600061290e82846128d1565b915081905092915050565b7f416464726573733a2063616c6c20746f206e6f6e2d636f6e7472616374000000600082015250565b600061294f601d83611b09565b915061295a82612919565b602082019050919050565b6000602082019050818103600083015261297e81612942565b9050919050565b600081519050919050565b600061299b82612985565b6129a58185611b09565b93506129b581856020860161289e565b6129be816120c2565b840191505092915050565b600060208201905081810360008301526129e38184612990565b90509291505056fea2646970667358221220d1f9c5be59caef12e3d0b188541082d8a74438a94fb38da4b931da6ecc2a0a2464736f6c634300080c0033",
  "devdoc": {
    "details": "This contract should be the emission admin of the reward tokens to be notifiedThe aTokens need to give approval to this contract to claim the rewards",
    "kind": "dev",
    "methods": {
      "emergencyWithdrawal(address,address,uint256)": {
        "details": "Perform an emergency token withdrawal only callable by the Rewards admin",
        "params": {
          "amount": "Amount of the withdrawal",
          "to": "Address of the recipient of the withdrawal",
          "token": "Address of the token to withdraw funds from this contract"
        }
      },
      "getAToken(address)": {
        "details": "Helper function to get the aToken address for a reserve"
      },
      "getIncentivesController()": {
        "returns": {
          "_0": "Returns the address of the Incentives Controller"
        }
      },
      "getRewardsAdmin()": {
        "returns": {
          "_0": "Returns the address of the Rewards admin"
        }
      },
      "notifyEmissionManager(address,address,address)": {
        "details": "can only be called by a whitelisted address",
        "params": {
          "_oracle": "The oracle that will be used to calculate the USD value of the rewards",
          "_reserve": "The reserve for which the rewards are being notified",
          "_token": "The reward token that is being notified"
        }
      },
      "owner()": {
        "details": "Returns the address of the current owner."
      },
      "performTransfer(address,address,uint256)": {
        "details": "Perform custom transfer logic via delegate call from source contract to a TransferStrategy implementation",
        "params": {
          "amount": "Amount to transfer to the \"to\" address parameter",
          "reward": "Address of the reward token",
          "to": "Account to transfer rewards"
        },
        "returns": {
          "_0": "Returns true bool if transfer logic succeeds"
        }
      },
      "renounceOwnership()": {
        "details": "Leaves the contract without owner. It will not be possible to call `onlyOwner` functions. Can only be called by the current owner. NOTE: Renouncing ownership will leave the contract without an owner, thereby disabling any functionality that is only available to the owner."
      },
      "transferOwnership(address)": {
        "details": "Transfers ownership of the contract to a new account (`newOwner`). Can only be called by the current owner."
      },
      "whitelist(address,bool)": {
        "details": "Whitelists an address to be used by the EmissionManager"
      }
    },
    "stateVariables": {
      "__gap": {
        "details": "storage gap to avoid future storage layout conflicts"
      },
      "emissionManager": {
        "details": "The emission manager contract used to allocate emissions"
      },
      "emissionsReceived": {
        "details": "Mapping to keep track of the rewards that have been received"
      },
      "incentiveController": {
        "details": "The incentive controller contract used to transfer the rewards"
      },
      "lastNotified": {
        "details": "Mapping to keep track of the last time the EmissionManager was notified"
      },
      "pool": {
        "details": "The lending pool contract"
      },
      "whitelisted": {
        "details": "Mapping to keep track of the whitelisted addresses"
      }
    },
    "version": 1
  },
  "userdoc": {
    "kind": "user",
    "methods": {
      "notifyEmissionManager(address,address,address)": {
        "notice": "Notifies the EmissionManager of the rewards that are available for a specific reserve"
      }
    },
    "notice": "TokenEmissionsStrategy is a contract that allows the emission of rewards to be notified to the EmissionManager",
    "version": 1
  },
  "storageLayout": {
    "storage": [
      {
        "astId": 1012,
        "contract": "contracts/core/TokenEmissionsStrategy.sol:TokenEmissionsStrategy",
        "label": "_initialized",
        "offset": 0,
        "slot": "0",
        "type": "t_uint8"
      },
      {
        "astId": 1015,
        "contract": "contracts/core/TokenEmissionsStrategy.sol:TokenEmissionsStrategy",
        "label": "_initializing",
        "offset": 1,
        "slot": "0",
        "type": "t_bool"
      },
      {
        "astId": 7,
        "contract": "contracts/core/TokenEmissionsStrategy.sol:TokenEmissionsStrategy",
        "label": "_owner",
        "offset": 2,
        "slot": "0",
        "type": "t_address"
      },
      {
        "astId": 12660,
        "contract": "contracts/core/TokenEmissionsStrategy.sol:TokenEmissionsStrategy",
        "label": "incentiveController",
        "offset": 0,
        "slot": "1",
        "type": "t_address"
      },
      {
        "astId": 12664,
        "contract": "contracts/core/TokenEmissionsStrategy.sol:TokenEmissionsStrategy",
        "label": "emissionManager",
        "offset": 0,
        "slot": "2",
        "type": "t_contract(IEmissionManager)11599"
      },
      {
        "astId": 12668,
        "contract": "contracts/core/TokenEmissionsStrategy.sol:TokenEmissionsStrategy",
        "label": "pool",
        "offset": 0,
        "slot": "3",
        "type": "t_contract(IPool)8557"
      },
      {
        "astId": 12682,
        "contract": "contracts/core/TokenEmissionsStrategy.sol:TokenEmissionsStrategy",
        "label": "emissionsReceived",
        "offset": 0,
        "slot": "4",
        "type": "t_mapping(t_address,t_mapping(t_contract(IERC20)1252,t_uint256))"
      },
      {
        "astId": 12687,
        "contract": "contracts/core/TokenEmissionsStrategy.sol:TokenEmissionsStrategy",
        "label": "lastNotified",
        "offset": 0,
        "slot": "5",
        "type": "t_mapping(t_address,t_uint256)"
      },
      {
        "astId": 12692,
        "contract": "contracts/core/TokenEmissionsStrategy.sol:TokenEmissionsStrategy",
        "label": "whitelisted",
        "offset": 0,
        "slot": "6",
        "type": "t_mapping(t_address,t_bool)"
      },
      {
        "astId": 12697,
        "contract": "contracts/core/TokenEmissionsStrategy.sol:TokenEmissionsStrategy",
        "label": "__gap",
        "offset": 0,
        "slot": "7",
        "type": "t_array(t_uint256)50_storage"
      }
    ],
    "types": {
      "t_address": {
        "encoding": "inplace",
        "label": "address",
        "numberOfBytes": "20"
      },
      "t_array(t_uint256)50_storage": {
        "base": "t_uint256",
        "encoding": "inplace",
        "label": "uint256[50]",
        "numberOfBytes": "1600"
      },
      "t_bool": {
        "encoding": "inplace",
        "label": "bool",
        "numberOfBytes": "1"
      },
      "t_contract(IERC20)1252": {
        "encoding": "inplace",
        "label": "contract IERC20",
        "numberOfBytes": "20"
      },
      "t_contract(IEmissionManager)11599": {
        "encoding": "inplace",
        "label": "contract IEmissionManager",
        "numberOfBytes": "20"
      },
      "t_contract(IPool)8557": {
        "encoding": "inplace",
        "label": "contract IPool",
        "numberOfBytes": "20"
      },
      "t_mapping(t_address,t_bool)": {
        "encoding": "mapping",
        "key": "t_address",
        "label": "mapping(address => bool)",
        "numberOfBytes": "32",
        "value": "t_bool"
      },
      "t_mapping(t_address,t_mapping(t_contract(IERC20)1252,t_uint256))": {
        "encoding": "mapping",
        "key": "t_address",
        "label": "mapping(address => mapping(contract IERC20 => uint256))",
        "numberOfBytes": "32",
        "value": "t_mapping(t_contract(IERC20)1252,t_uint256)"
      },
      "t_mapping(t_address,t_uint256)": {
        "encoding": "mapping",
        "key": "t_address",
        "label": "mapping(address => uint256)",
        "numberOfBytes": "32",
        "value": "t_uint256"
      },
      "t_mapping(t_contract(IERC20)1252,t_uint256)": {
        "encoding": "mapping",
        "key": "t_contract(IERC20)1252",
        "label": "mapping(contract IERC20 => uint256)",
        "numberOfBytes": "32",
        "value": "t_uint256"
      },
      "t_uint256": {
        "encoding": "inplace",
        "label": "uint256",
        "numberOfBytes": "32"
      },
      "t_uint8": {
        "encoding": "inplace",
        "label": "uint8",
        "numberOfBytes": "1"
      }
    }
  }
}