{
  "address": "0x2C2E2fC8A721d59F35d284446cACBDb6e7Ad582C",
  "abi": [
    {
      "inputs": [
        {
          "internalType": "contract IPool",
          "name": "pool",
          "type": "address"
        }
      ],
      "stateMutability": "nonpayable",
      "type": "constructor"
    },
    {
      "anonymous": false,
      "inputs": [
        {
          "indexed": true,
          "internalType": "address",
          "name": "owner",
          "type": "address"
        },
        {
          "indexed": true,
          "internalType": "address",
          "name": "spender",
          "type": "address"
        },
        {
          "indexed": false,
          "internalType": "uint256",
          "name": "value",
          "type": "uint256"
        }
      ],
      "name": "Approval",
      "type": "event"
    },
    {
      "anonymous": false,
      "inputs": [
        {
          "indexed": true,
          "internalType": "address",
          "name": "from",
          "type": "address"
        },
        {
          "indexed": true,
          "internalType": "address",
          "name": "to",
          "type": "address"
        },
        {
          "indexed": false,
          "internalType": "uint256",
          "name": "value",
          "type": "uint256"
        },
        {
          "indexed": false,
          "internalType": "uint256",
          "name": "index",
          "type": "uint256"
        }
      ],
      "name": "BalanceTransfer",
      "type": "event"
    },
    {
      "anonymous": false,
      "inputs": [
        {
          "indexed": true,
          "internalType": "address",
          "name": "from",
          "type": "address"
        },
        {
          "indexed": true,
          "internalType": "address",
          "name": "target",
          "type": "address"
        },
        {
          "indexed": false,
          "internalType": "uint256",
          "name": "value",
          "type": "uint256"
        },
        {
          "indexed": false,
          "internalType": "uint256",
          "name": "balanceIncrease",
          "type": "uint256"
        },
        {
          "indexed": false,
          "internalType": "uint256",
          "name": "index",
          "type": "uint256"
        }
      ],
      "name": "Burn",
      "type": "event"
    },
    {
      "anonymous": false,
      "inputs": [
        {
          "indexed": true,
          "internalType": "address",
          "name": "underlyingAsset",
          "type": "address"
        },
        {
          "indexed": true,
          "internalType": "address",
          "name": "pool",
          "type": "address"
        },
        {
          "indexed": false,
          "internalType": "address",
          "name": "treasury",
          "type": "address"
        },
        {
          "indexed": false,
          "internalType": "address",
          "name": "incentivesController",
          "type": "address"
        },
        {
          "indexed": false,
          "internalType": "uint8",
          "name": "aTokenDecimals",
          "type": "uint8"
        },
        {
          "indexed": false,
          "internalType": "string",
          "name": "aTokenName",
          "type": "string"
        },
        {
          "indexed": false,
          "internalType": "string",
          "name": "aTokenSymbol",
          "type": "string"
        },
        {
          "indexed": false,
          "internalType": "bytes",
          "name": "params",
          "type": "bytes"
        }
      ],
      "name": "Initialized",
      "type": "event"
    },
    {
      "anonymous": false,
      "inputs": [
        {
          "indexed": true,
          "internalType": "address",
          "name": "caller",
          "type": "address"
        },
        {
          "indexed": true,
          "internalType": "address",
          "name": "onBehalfOf",
          "type": "address"
        },
        {
          "indexed": false,
          "internalType": "uint256",
          "name": "value",
          "type": "uint256"
        },
        {
          "indexed": false,
          "internalType": "uint256",
          "name": "balanceIncrease",
          "type": "uint256"
        },
        {
          "indexed": false,
          "internalType": "uint256",
          "name": "index",
          "type": "uint256"
        }
      ],
      "name": "Mint",
      "type": "event"
    },
    {
      "anonymous": false,
      "inputs": [
        {
          "indexed": true,
          "internalType": "address",
          "name": "from",
          "type": "address"
        },
        {
          "indexed": true,
          "internalType": "address",
          "name": "to",
          "type": "address"
        },
        {
          "indexed": false,
          "internalType": "uint256",
          "name": "value",
          "type": "uint256"
        }
      ],
      "name": "Transfer",
      "type": "event"
    },
    {
      "inputs": [],
      "name": "ATOKEN_REVISION",
      "outputs": [
        {
          "internalType": "uint256",
          "name": "",
          "type": "uint256"
        }
      ],
      "stateMutability": "view",
      "type": "function"
    },
    {
      "inputs": [],
      "name": "DOMAIN_SEPARATOR",
      "outputs": [
        {
          "internalType": "bytes32",
          "name": "",
          "type": "bytes32"
        }
      ],
      "stateMutability": "view",
      "type": "function"
    },
    {
      "inputs": [],
      "name": "EIP712_REVISION",
      "outputs": [
        {
          "internalType": "bytes",
          "name": "",
          "type": "bytes"
        }
      ],
      "stateMutability": "view",
      "type": "function"
    },
    {
      "inputs": [],
      "name": "PERMIT_TYPEHASH",
      "outputs": [
        {
          "internalType": "bytes32",
          "name": "",
          "type": "bytes32"
        }
      ],
      "stateMutability": "view",
      "type": "function"
    },
    {
      "inputs": [],
      "name": "POOL",
      "outputs": [
        {
          "internalType": "contract IPool",
          "name": "",
          "type": "address"
        }
      ],
      "stateMutability": "view",
      "type": "function"
    },
    {
      "inputs": [],
      "name": "RESERVE_TREASURY_ADDRESS",
      "outputs": [
        {
          "internalType": "address",
          "name": "",
          "type": "address"
        }
      ],
      "stateMutability": "view",
      "type": "function"
    },
    {
      "inputs": [],
      "name": "UNDERLYING_ASSET_ADDRESS",
      "outputs": [
        {
          "internalType": "address",
          "name": "",
          "type": "address"
        }
      ],
      "stateMutability": "view",
      "type": "function"
    },
    {
      "inputs": [
        {
          "internalType": "address",
          "name": "owner",
          "type": "address"
        },
        {
          "internalType": "address",
          "name": "spender",
          "type": "address"
        }
      ],
      "name": "allowance",
      "outputs": [
        {
          "internalType": "uint256",
          "name": "",
          "type": "uint256"
        }
      ],
      "stateMutability": "view",
      "type": "function"
    },
    {
      "inputs": [
        {
          "internalType": "address",
          "name": "spender",
          "type": "address"
        },
        {
          "internalType": "uint256",
          "name": "amount",
          "type": "uint256"
        }
      ],
      "name": "approve",
      "outputs": [
        {
          "internalType": "bool",
          "name": "",
          "type": "bool"
        }
      ],
      "stateMutability": "nonpayable",
      "type": "function"
    },
    {
      "inputs": [
        {
          "internalType": "address",
          "name": "user",
          "type": "address"
        }
      ],
      "name": "balanceOf",
      "outputs": [
        {
          "internalType": "uint256",
          "name": "",
          "type": "uint256"
        }
      ],
      "stateMutability": "view",
      "type": "function"
    },
    {
      "inputs": [
        {
          "internalType": "address",
          "name": "from",
          "type": "address"
        },
        {
          "internalType": "address",
          "name": "receiverOfUnderlying",
          "type": "address"
        },
        {
          "internalType": "uint256",
          "name": "amount",
          "type": "uint256"
        },
        {
          "internalType": "uint256",
          "name": "index",
          "type": "uint256"
        }
      ],
      "name": "burn",
      "outputs": [],
      "stateMutability": "nonpayable",
      "type": "function"
    },
    {
      "inputs": [],
      "name": "decimals",
      "outputs": [
        {
          "internalType": "uint8",
          "name": "",
          "type": "uint8"
        }
      ],
      "stateMutability": "view",
      "type": "function"
    },
    {
      "inputs": [
        {
          "internalType": "address",
          "name": "spender",
          "type": "address"
        },
        {
          "internalType": "uint256",
          "name": "subtractedValue",
          "type": "uint256"
        }
      ],
      "name": "decreaseAllowance",
      "outputs": [
        {
          "internalType": "bool",
          "name": "",
          "type": "bool"
        }
      ],
      "stateMutability": "nonpayable",
      "type": "function"
    },
    {
      "inputs": [],
      "name": "getIncentivesController",
      "outputs": [
        {
          "internalType": "contract IAaveIncentivesController",
          "name": "",
          "type": "address"
        }
      ],
      "stateMutability": "view",
      "type": "function"
    },
    {
      "inputs": [
        {
          "internalType": "address",
          "name": "user",
          "type": "address"
        }
      ],
      "name": "getPreviousIndex",
      "outputs": [
        {
          "internalType": "uint256",
          "name": "",
          "type": "uint256"
        }
      ],
      "stateMutability": "view",
      "type": "function"
    },
    {
      "inputs": [
        {
          "internalType": "address",
          "name": "user",
          "type": "address"
        }
      ],
      "name": "getScaledUserBalanceAndSupply",
      "outputs": [
        {
          "internalType": "uint256",
          "name": "",
          "type": "uint256"
        },
        {
          "internalType": "uint256",
          "name": "",
          "type": "uint256"
        }
      ],
      "stateMutability": "view",
      "type": "function"
    },
    {
      "inputs": [
        {
          "internalType": "address",
          "name": "user",
          "type": "address"
        },
        {
          "internalType": "address",
          "name": "onBehalfOf",
          "type": "address"
        },
        {
          "internalType": "uint256",
          "name": "amount",
          "type": "uint256"
        }
      ],
      "name": "handleRepayment",
      "outputs": [],
      "stateMutability": "nonpayable",
      "type": "function"
    },
    {
      "inputs": [
        {
          "internalType": "address",
          "name": "spender",
          "type": "address"
        },
        {
          "internalType": "uint256",
          "name": "addedValue",
          "type": "uint256"
        }
      ],
      "name": "increaseAllowance",
      "outputs": [
        {
          "internalType": "bool",
          "name": "",
          "type": "bool"
        }
      ],
      "stateMutability": "nonpayable",
      "type": "function"
    },
    {
      "inputs": [
        {
          "internalType": "contract IPool",
          "name": "initializingPool",
          "type": "address"
        },
        {
          "internalType": "address",
          "name": "treasury",
          "type": "address"
        },
        {
          "internalType": "address",
          "name": "underlyingAsset",
          "type": "address"
        },
        {
          "internalType": "contract IAaveIncentivesController",
          "name": "incentivesController",
          "type": "address"
        },
        {
          "internalType": "uint8",
          "name": "aTokenDecimals",
          "type": "uint8"
        },
        {
          "internalType": "string",
          "name": "aTokenName",
          "type": "string"
        },
        {
          "internalType": "string",
          "name": "aTokenSymbol",
          "type": "string"
        },
        {
          "internalType": "bytes",
          "name": "params",
          "type": "bytes"
        }
      ],
      "name": "initialize",
      "outputs": [],
      "stateMutability": "nonpayable",
      "type": "function"
    },
    {
      "inputs": [
        {
          "internalType": "address",
          "name": "caller",
          "type": "address"
        },
        {
          "internalType": "address",
          "name": "onBehalfOf",
          "type": "address"
        },
        {
          "internalType": "uint256",
          "name": "amount",
          "type": "uint256"
        },
        {
          "internalType": "uint256",
          "name": "index",
          "type": "uint256"
        }
      ],
      "name": "mint",
      "outputs": [
        {
          "internalType": "bool",
          "name": "",
          "type": "bool"
        }
      ],
      "stateMutability": "nonpayable",
      "type": "function"
    },
    {
      "inputs": [
        {
          "internalType": "uint256",
          "name": "amount",
          "type": "uint256"
        },
        {
          "internalType": "uint256",
          "name": "index",
          "type": "uint256"
        }
      ],
      "name": "mintToTreasury",
      "outputs": [],
      "stateMutability": "nonpayable",
      "type": "function"
    },
    {
      "inputs": [],
      "name": "name",
      "outputs": [
        {
          "internalType": "string",
          "name": "",
          "type": "string"
        }
      ],
      "stateMutability": "view",
      "type": "function"
    },
    {
      "inputs": [
        {
          "internalType": "address",
          "name": "owner",
          "type": "address"
        }
      ],
      "name": "nonces",
      "outputs": [
        {
          "internalType": "uint256",
          "name": "",
          "type": "uint256"
        }
      ],
      "stateMutability": "view",
      "type": "function"
    },
    {
      "inputs": [
        {
          "internalType": "address",
          "name": "from",
          "type": "address"
        },
        {
          "internalType": "address",
          "name": "to",
          "type": "address"
        },
        {
          "internalType": "uint256",
          "name": "amount",
          "type": "uint256"
        }
      ],
      "name": "recall",
      "outputs": [],
      "stateMutability": "nonpayable",
      "type": "function"
    },
    {
      "inputs": [
        {
          "internalType": "address",
          "name": "token",
          "type": "address"
        },
        {
          "internalType": "address",
          "name": "to",
          "type": "address"
        },
        {
          "internalType": "uint256",
          "name": "amount",
          "type": "uint256"
        }
      ],
      "name": "rescueTokens",
      "outputs": [],
      "stateMutability": "nonpayable",
      "type": "function"
    },
    {
      "inputs": [],
      "name": "rewardsVault",
      "outputs": [
        {
          "internalType": "contract IBerachainRewardsVault",
          "name": "",
          "type": "address"
        }
      ],
      "stateMutability": "view",
      "type": "function"
    },
    {
      "inputs": [
        {
          "internalType": "address",
          "name": "user",
          "type": "address"
        }
      ],
      "name": "scaledBalanceOf",
      "outputs": [
        {
          "internalType": "uint256",
          "name": "",
          "type": "uint256"
        }
      ],
      "stateMutability": "view",
      "type": "function"
    },
    {
      "inputs": [],
      "name": "scaledTotalSupply",
      "outputs": [
        {
          "internalType": "uint256",
          "name": "",
          "type": "uint256"
        }
      ],
      "stateMutability": "view",
      "type": "function"
    },
    {
      "inputs": [
        {
          "internalType": "contract IAaveIncentivesController",
          "name": "controller",
          "type": "address"
        }
      ],
      "name": "setIncentivesController",
      "outputs": [],
      "stateMutability": "nonpayable",
      "type": "function"
    },
    {
      "inputs": [
        {
          "internalType": "address",
          "name": "_rewardsVault",
          "type": "address"
        }
      ],
      "name": "setRewardsVault",
      "outputs": [],
      "stateMutability": "nonpayable",
      "type": "function"
    },
    {
      "inputs": [],
      "name": "symbol",
      "outputs": [
        {
          "internalType": "string",
          "name": "",
          "type": "string"
        }
      ],
      "stateMutability": "view",
      "type": "function"
    },
    {
      "inputs": [],
      "name": "totalSupply",
      "outputs": [
        {
          "internalType": "uint256",
          "name": "",
          "type": "uint256"
        }
      ],
      "stateMutability": "view",
      "type": "function"
    },
    {
      "inputs": [
        {
          "internalType": "address",
          "name": "recipient",
          "type": "address"
        },
        {
          "internalType": "uint256",
          "name": "amount",
          "type": "uint256"
        }
      ],
      "name": "transfer",
      "outputs": [
        {
          "internalType": "bool",
          "name": "",
          "type": "bool"
        }
      ],
      "stateMutability": "nonpayable",
      "type": "function"
    },
    {
      "inputs": [
        {
          "internalType": "address",
          "name": "sender",
          "type": "address"
        },
        {
          "internalType": "address",
          "name": "recipient",
          "type": "address"
        },
        {
          "internalType": "uint256",
          "name": "amount",
          "type": "uint256"
        }
      ],
      "name": "transferFrom",
      "outputs": [
        {
          "internalType": "bool",
          "name": "",
          "type": "bool"
        }
      ],
      "stateMutability": "nonpayable",
      "type": "function"
    },
    {
      "inputs": [
        {
          "internalType": "address",
          "name": "from",
          "type": "address"
        },
        {
          "internalType": "address",
          "name": "to",
          "type": "address"
        },
        {
          "internalType": "uint256",
          "name": "value",
          "type": "uint256"
        }
      ],
      "name": "transferOnLiquidation",
      "outputs": [],
      "stateMutability": "nonpayable",
      "type": "function"
    },
    {
      "inputs": [
        {
          "internalType": "address",
          "name": "target",
          "type": "address"
        },
        {
          "internalType": "uint256",
          "name": "amount",
          "type": "uint256"
        }
      ],
      "name": "transferUnderlyingTo",
      "outputs": [],
      "stateMutability": "nonpayable",
      "type": "function"
    }
  ],
  "transactionHash": "0x364d4aabc1a609d4f4b9699a1d3963a323d3a63f521d6f25224bba25c22550d1",
  "args": [
    "0x431B8680f2BbDEB51ee366C51Db3aC60d58a3789"
  ],
  "numDeployments": 2,
  "solcInputHash": "c8c44f9f795016d2bae43afb8cdb71ea",
  "bytecode": "0x60e0604052600080553480156200001557600080fd5b50604051620056763803806200567683398181016040528101906200003b919062000323565b80806040518060400160405280600b81526020017f41544f4b454e5f494d504c0000000000000000000000000000000000000000008152506040518060400160405280600b81526020017f41544f4b454e5f494d504c000000000000000000000000000000000000000000815250600083838383838383838373ffffffffffffffffffffffffffffffffffffffff16630542975c6040518163ffffffff1660e01b8152600401602060405180830381865afa158015620000ff573d6000803e3d6000fd5b505050506040513d601f19601f820116820180604052508101906200012591906200039a565b73ffffffffffffffffffffffffffffffffffffffff1660808173ffffffffffffffffffffffffffffffffffffffff1681525050826037908051906020019062000170929190620001f5565b50816038908051906020019062000189929190620001f5565b5080603960006101000a81548160ff021916908360ff1602179055508373ffffffffffffffffffffffffffffffffffffffff1660a08173ffffffffffffffffffffffffffffffffffffffff16815250505050505050505050505050504660c08181525050505062000431565b8280546200020390620003fb565b90600052602060002090601f01602090048101928262000227576000855562000273565b82601f106200024257805160ff191683800117855562000273565b8280016001018555821562000273579182015b828111156200027257825182559160200191906001019062000255565b5b50905062000282919062000286565b5090565b5b80821115620002a157600081600090555060010162000287565b5090565b600080fd5b600073ffffffffffffffffffffffffffffffffffffffff82169050919050565b6000620002d782620002aa565b9050919050565b6000620002eb82620002ca565b9050919050565b620002fd81620002de565b81146200030957600080fd5b50565b6000815190506200031d81620002f2565b92915050565b6000602082840312156200033c576200033b620002a5565b5b60006200034c848285016200030c565b91505092915050565b60006200036282620002ca565b9050919050565b620003748162000355565b81146200038057600080fd5b50565b600081519050620003948162000369565b92915050565b600060208284031215620003b357620003b2620002a5565b5b6000620003c38482850162000383565b91505092915050565b7f4e487b7100000000000000000000000000000000000000000000000000000000600052602260045260246000fd5b600060028204905060018216806200041457607f821691505b602082108114156200042b576200042a620003cc565b5b50919050565b60805160a05160c0516151ac620004ca600039600061266e01526000818161081501528181610c5301528181610f3001528181611008015281816110e2015281816111690152818161124801528181611479015281816117dd01528181611cdd0152818161204c0152818161228701528181612773015261285f015260008181610d9a0152818161155f0152611a4101526151ac6000f3fe608060405234801561001057600080fd5b506004361061021c5760003560e01c806375d2641311610125578063b1bf962d116100ad578063dd62ed3e1161007c578063dd62ed3e1461066a578063e07539861461069a578063e655dbd8146106ca578063f5bb3e02146106e6578063f866c319146107025761021c565b8063b1bf962d146105e4578063b3f1c93d14610602578063cea9d26f14610632578063d7020d0a1461064e5761021c565b806395d89b41116100f457806395d89b411461052a578063a457c2d714610548578063a9059cbb14610578578063ae167335146105a8578063b16a19de146105c65761021c565b806375d26413146104a257806378160376146104c05780637df5bd3b146104de5780637ecebe00146104fa5761021c565b8063313ce567116101a85780635579ed01116101775780635579ed01146103fe57806367b481551461041c5780636fd976761461043857806370a08231146104545780637535d246146104845761021c565b8063313ce567146103765780633644e5151461039457806339509351146103b25780634efecaa5146103e25761021c565b806318160ddd116101ef57806318160ddd146102be578063183fb413146102dc5780631da24f3e146102f857806323b872dd1461032857806330adf81f146103585761021c565b806306fdde0314610221578063095ea7b31461023f5780630afbcdc91461026f5780630bd7ad3b146102a0575b600080fd5b61022961071e565b604051610236919061427d565b60405180910390f35b6102596004803603810190610254919061433d565b6107b0565b6040516102669190614398565b60405180910390f35b610289600480360381019061028491906143b3565b6107ce565b6040516102979291906143ef565b60405180910390f35b6102a86107eb565b6040516102b59190614418565b60405180910390f35b6102c66107f0565b6040516102d39190614418565b60405180910390f35b6102f660048036038101906102f191906145a3565b6108e5565b005b610312600480360381019061030d91906143b3565b610a72565b60405161031f9190614418565b60405180910390f35b610342600480360381019061033d91906146bb565b610a84565b60405161034f9190614398565b60405180910390f35b610360610b5b565b60405161036d9190614727565b60405180910390f35b61037e610b7f565b60405161038b9190614751565b60405180910390f35b61039c610b96565b6040516103a99190614727565b60405180910390f35b6103cc60048036038101906103c7919061433d565b610ba5565b6040516103d99190614398565b60405180910390f35b6103fc60048036038101906103f7919061433d565b610c51565b005b610406610d70565b60405161041391906147cb565b60405180910390f35b610436600480360381019061043191906146bb565b610d96565b005b610452600480360381019061044d91906146bb565b610f2e565b005b61046e600480360381019061046991906143b3565b611001565b60405161047b9190614418565b60405180910390f35b61048c6110e0565b6040516104999190614807565b60405180910390f35b6104aa611104565b6040516104b79190614843565b60405180910390f35b6104c861112e565b6040516104d591906148b3565b60405180910390f35b6104f860048036038101906104f391906148d5565b611167565b005b610514600480360381019061050f91906143b3565b611297565b6040516105219190614418565b60405180910390f35b6105326112a9565b60405161053f919061427d565b60405180910390f35b610562600480360381019061055d919061433d565b61133b565b60405161056f9190614398565b60405180910390f35b610592600480360381019061058d919061433d565b6113e7565b60405161059f9190614398565b60405180910390f35b6105b0611412565b6040516105bd9190614924565b60405180910390f35b6105ce61143c565b6040516105db9190614924565b60405180910390f35b6105ec611466565b6040516105f99190614418565b60405180910390f35b61061c6004803603810190610617919061493f565b611475565b6040516106299190614398565b60405180910390f35b61064c600480360381019061064791906146bb565b61155b565b005b6106686004803603810190610663919061493f565b6117db565b005b610684600480360381019061067f91906149a6565b61193c565b6040516106919190614418565b60405180910390f35b6106b460048036038101906106af91906143b3565b6119c3565b6040516106c19190614418565b60405180910390f35b6106e460048036038101906106df91906149e6565b611a3d565b005b61070060048036038101906106fb91906143b3565b611c07565b005b61071c600480360381019061071791906146bb565b611cdb565b005b60606037805461072d90614a42565b80601f016020809104026020016040519081016040528092919081815260200182805461075990614a42565b80156107a65780601f1061077b576101008083540402835291602001916107a6565b820191906000526020600020905b81548152906001019060200180831161078957829003601f168201915b5050505050905090565b60006107c46107bd611dbb565b8484611dc3565b6001905092915050565b6000806107da83611eae565b6107e2611f28565b91509150915091565b600281565b6000806107fb611f28565b905060008114156108105760009150506108e2565b6108de7f000000000000000000000000000000000000000000000000000000000000000073ffffffffffffffffffffffffffffffffffffffff1663d15e0053603d60009054906101000a900473ffffffffffffffffffffffffffffffffffffffff166040518263ffffffff1660e01b815260040161088e9190614924565b602060405180830381865afa1580156108ab573d6000803e3d6000fd5b505050506040513d601f19601f820116820180604052508101906108cf9190614a89565b82611f3290919063ffffffff16565b9150505b90565b60006108ef611f7d565b9050600160009054906101000a900460ff1680610910575061090f611f86565b5b8061091c575060005481115b61095b576040517f08c379a000000000000000000000000000000000000000000000000000000000815260040161095290614b28565b60405180910390fd5b6000600160009054906101000a900460ff1615905080156109985760018060006101000a81548160ff021916908315150217905550816000819055505b6109ab8d8d8d8d8d8d8d8d8d8d8d611f97565b33603f60006101000a81548173ffffffffffffffffffffffffffffffffffffffff021916908373ffffffffffffffffffffffffffffffffffffffff160217905550600084848101906109fd9190614b86565b905080603e60006101000a81548173ffffffffffffffffffffffffffffffffffffffff021916908373ffffffffffffffffffffffffffffffffffffffff160217905550508015610a63576000600160006101000a81548160ff0219169083151502179055505b50505050505050505050505050565b6000610a7d82611eae565b9050919050565b600080610a908361234b565b9050610b4485610a9e611dbb565b836fffffffffffffffffffffffffffffffff16603560008a73ffffffffffffffffffffffffffffffffffffffff1673ffffffffffffffffffffffffffffffffffffffff1681526020019081526020016000206000610afa611dbb565b73ffffffffffffffffffffffffffffffffffffffff1673ffffffffffffffffffffffffffffffffffffffff16815260200190815260200160002054610b3f9190614be2565b611dc3565b610b4f8585836123aa565b60019150509392505050565b7f6e71edae12b1b97f4d1f60370fef10105fa2faae0126114a169c64845d6126c981565b6000603960009054906101000a900460ff16905090565b6000610ba061266a565b905090565b6000610c47610bb2611dbb565b848460356000610bc0611dbb565b73ffffffffffffffffffffffffffffffffffffffff1673ffffffffffffffffffffffffffffffffffffffff16815260200190815260200160002060008873ffffffffffffffffffffffffffffffffffffffff1673ffffffffffffffffffffffffffffffffffffffff16815260200190815260200160002054610c429190614c16565b611dc3565b6001905092915050565b7f000000000000000000000000000000000000000000000000000000000000000073ffffffffffffffffffffffffffffffffffffffff16610c90611dbb565b73ffffffffffffffffffffffffffffffffffffffff16146040518060400160405280600281526020017f323300000000000000000000000000000000000000000000000000000000000081525090610d1e576040517f08c379a0000000000000000000000000000000000000000000000000000000008152600401610d15919061427d565b60405180910390fd5b50610d6c8282603d60009054906101000a900473ffffffffffffffffffffffffffffffffffffffff1673ffffffffffffffffffffffffffffffffffffffff166126ac9092919063ffffffff16565b5050565b603e60009054906101000a900473ffffffffffffffffffffffffffffffffffffffff1681565b60007f000000000000000000000000000000000000000000000000000000000000000073ffffffffffffffffffffffffffffffffffffffff1663707cd7166040518163ffffffff1660e01b8152600401602060405180830381865afa158015610e03573d6000803e3d6000fd5b505050506040513d601f19601f82011682018060405250810190610e279190614c81565b90508073ffffffffffffffffffffffffffffffffffffffff16637be53ca1336040518263ffffffff1660e01b8152600401610e629190614924565b602060405180830381865afa158015610e7f573d6000803e3d6000fd5b505050506040513d601f19601f82011682018060405250810190610ea39190614cda565b6040518060400160405280600181526020017f310000000000000000000000000000000000000000000000000000000000000081525090610f1a576040517f08c379a0000000000000000000000000000000000000000000000000000000008152600401610f11919061427d565b60405180910390fd5b50610f288484846001612748565b50505050565b7f000000000000000000000000000000000000000000000000000000000000000073ffffffffffffffffffffffffffffffffffffffff16610f6d611dbb565b73ffffffffffffffffffffffffffffffffffffffff16146040518060400160405280600281526020017f323300000000000000000000000000000000000000000000000000000000000081525090610ffb576040517f08c379a0000000000000000000000000000000000000000000000000000000008152600401610ff2919061427d565b60405180910390fd5b50505050565b60006110d97f000000000000000000000000000000000000000000000000000000000000000073ffffffffffffffffffffffffffffffffffffffff1663d15e0053603d60009054906101000a900473ffffffffffffffffffffffffffffffffffffffff166040518263ffffffff1660e01b81526004016110819190614924565b602060405180830381865afa15801561109e573d6000803e3d6000fd5b505050506040513d601f19601f820116820180604052508101906110c29190614a89565b6110cb84611eae565b611f3290919063ffffffff16565b9050919050565b7f000000000000000000000000000000000000000000000000000000000000000081565b6000603960019054906101000a900473ffffffffffffffffffffffffffffffffffffffff16905090565b6040518060400160405280600181526020017f310000000000000000000000000000000000000000000000000000000000000081525081565b7f000000000000000000000000000000000000000000000000000000000000000073ffffffffffffffffffffffffffffffffffffffff166111a6611dbb565b73ffffffffffffffffffffffffffffffffffffffff16146040518060400160405280600281526020017f323300000000000000000000000000000000000000000000000000000000000081525090611234576040517f08c379a000000000000000000000000000000000000000000000000000000000815260040161122b919061427d565b60405180910390fd5b50600082141561124357611293565b6112917f0000000000000000000000000000000000000000000000000000000000000000603c60009054906101000a900473ffffffffffffffffffffffffffffffffffffffff168484612976565b505b5050565b60006112a282612c40565b9050919050565b6060603880546112b890614a42565b80601f01602080910402602001604051908101604052809291908181526020018280546112e490614a42565b80156113315780601f1061130657610100808354040283529160200191611331565b820191906000526020600020905b81548152906001019060200180831161131457829003601f168201915b5050505050905090565b60006113dd611348611dbb565b848460356000611356611dbb565b73ffffffffffffffffffffffffffffffffffffffff1673ffffffffffffffffffffffffffffffffffffffff16815260200190815260200160002060008873ffffffffffffffffffffffffffffffffffffffff1673ffffffffffffffffffffffffffffffffffffffff168152602001908152602001600020546113d89190614be2565b611dc3565b6001905092915050565b6000806113f38361234b565b9050611407611400611dbb565b85836123aa565b600191505092915050565b6000603c60009054906101000a900473ffffffffffffffffffffffffffffffffffffffff16905090565b6000603d60009054906101000a900473ffffffffffffffffffffffffffffffffffffffff16905090565b6000611470611f28565b905090565b60007f000000000000000000000000000000000000000000000000000000000000000073ffffffffffffffffffffffffffffffffffffffff166114b6611dbb565b73ffffffffffffffffffffffffffffffffffffffff16146040518060400160405280600281526020017f323300000000000000000000000000000000000000000000000000000000000081525090611544576040517f08c379a000000000000000000000000000000000000000000000000000000000815260040161153b919061427d565b60405180910390fd5b5061155185858585612976565b9050949350505050565b60007f000000000000000000000000000000000000000000000000000000000000000073ffffffffffffffffffffffffffffffffffffffff1663707cd7166040518163ffffffff1660e01b8152600401602060405180830381865afa1580156115c8573d6000803e3d6000fd5b505050506040513d601f19601f820116820180604052508101906115ec9190614c81565b90508073ffffffffffffffffffffffffffffffffffffffff16637be53ca1336040518263ffffffff1660e01b81526004016116279190614924565b602060405180830381865afa158015611644573d6000803e3d6000fd5b505050506040513d601f19601f820116820180604052508101906116689190614cda565b6040518060400160405280600181526020017f3100000000000000000000000000000000000000000000000000000000000000815250906116df576040517f08c379a00000000000000000000000000000000000000000000000000000000081526004016116d6919061427d565b60405180910390fd5b50603d60009054906101000a900473ffffffffffffffffffffffffffffffffffffffff1673ffffffffffffffffffffffffffffffffffffffff168473ffffffffffffffffffffffffffffffffffffffff1614156040518060400160405280600281526020017f3835000000000000000000000000000000000000000000000000000000000000815250906117a9576040517f08c379a00000000000000000000000000000000000000000000000000000000081526004016117a0919061427d565b60405180910390fd5b506117d583838673ffffffffffffffffffffffffffffffffffffffff166126ac9092919063ffffffff16565b50505050565b7f000000000000000000000000000000000000000000000000000000000000000073ffffffffffffffffffffffffffffffffffffffff1661181a611dbb565b73ffffffffffffffffffffffffffffffffffffffff16146040518060400160405280600281526020017f3233000000000000000000000000000000000000000000000000000000000000815250906118a8576040517f08c379a000000000000000000000000000000000000000000000000000000000815260040161189f919061427d565b60405180910390fd5b506118b584848484612c89565b3073ffffffffffffffffffffffffffffffffffffffff168373ffffffffffffffffffffffffffffffffffffffff1614611936576119358383603d60009054906101000a900473ffffffffffffffffffffffffffffffffffffffff1673ffffffffffffffffffffffffffffffffffffffff166126ac9092919063ffffffff16565b5b50505050565b6000603560008473ffffffffffffffffffffffffffffffffffffffff1673ffffffffffffffffffffffffffffffffffffffff16815260200190815260200160002060008373ffffffffffffffffffffffffffffffffffffffff1673ffffffffffffffffffffffffffffffffffffffff16815260200190815260200160002054905092915050565b6000603460008373ffffffffffffffffffffffffffffffffffffffff1673ffffffffffffffffffffffffffffffffffffffff16815260200190815260200160002060000160109054906101000a90046fffffffffffffffffffffffffffffffff166fffffffffffffffffffffffffffffffff169050919050565b60007f000000000000000000000000000000000000000000000000000000000000000073ffffffffffffffffffffffffffffffffffffffff1663707cd7166040518163ffffffff1660e01b8152600401602060405180830381865afa158015611aaa573d6000803e3d6000fd5b505050506040513d601f19601f82011682018060405250810190611ace9190614c81565b90508073ffffffffffffffffffffffffffffffffffffffff16637be53ca1336040518263ffffffff1660e01b8152600401611b099190614924565b602060405180830381865afa158015611b26573d6000803e3d6000fd5b505050506040513d601f19601f82011682018060405250810190611b4a9190614cda565b6040518060400160405280600181526020017f310000000000000000000000000000000000000000000000000000000000000081525090611bc1576040517f08c379a0000000000000000000000000000000000000000000000000000000008152600401611bb8919061427d565b60405180910390fd5b5081603960016101000a81548173ffffffffffffffffffffffffffffffffffffffff021916908373ffffffffffffffffffffffffffffffffffffffff1602179055505050565b603f60009054906101000a900473ffffffffffffffffffffffffffffffffffffffff1673ffffffffffffffffffffffffffffffffffffffff163373ffffffffffffffffffffffffffffffffffffffff1614611c97576040517f08c379a0000000000000000000000000000000000000000000000000000000008152600401611c8e90614d53565b60405180910390fd5b80603e60006101000a81548173ffffffffffffffffffffffffffffffffffffffff021916908373ffffffffffffffffffffffffffffffffffffffff16021790555050565b7f000000000000000000000000000000000000000000000000000000000000000073ffffffffffffffffffffffffffffffffffffffff16611d1a611dbb565b73ffffffffffffffffffffffffffffffffffffffff16146040518060400160405280600281526020017f323300000000000000000000000000000000000000000000000000000000000081525090611da8576040517f08c379a0000000000000000000000000000000000000000000000000000000008152600401611d9f919061427d565b60405180910390fd5b50611db68383836000612748565b505050565b600033905090565b80603560008573ffffffffffffffffffffffffffffffffffffffff1673ffffffffffffffffffffffffffffffffffffffff16815260200190815260200160002060008473ffffffffffffffffffffffffffffffffffffffff1673ffffffffffffffffffffffffffffffffffffffff168152602001908152602001600020819055508173ffffffffffffffffffffffffffffffffffffffff168373ffffffffffffffffffffffffffffffffffffffff167f8c5be1e5ebec7d5bd14f71427d1e84f3dd0314c0f7b2291e5b200ac8c7c3b92583604051611ea19190614418565b60405180910390a3505050565b6000603460008373ffffffffffffffffffffffffffffffffffffffff1673ffffffffffffffffffffffffffffffffffffffff16815260200190815260200160002060000160009054906101000a90046fffffffffffffffffffffffffffffffff166fffffffffffffffffffffffffffffffff169050919050565b6000603654905090565b6000816b019d971e4fe8401e740000006000190304831115821517611f5657600080fd5b6b033b2e3c9fd0803ce80000006b019d971e4fe8401e740000008385020104905092915050565b60006007905090565b600080303b90506000811491505090565b6000611fa1611f7d565b9050600160009054906101000a900460ff1680611fc25750611fc1611f86565b5b80611fce575060005481115b61200d576040517f08c379a000000000000000000000000000000000000000000000000000000000815260040161200490614b28565b60405180910390fd5b6000600160009054906101000a900460ff16159050801561204a5760018060006101000a81548160ff021916908315150217905550816000819055505b7f000000000000000000000000000000000000000000000000000000000000000073ffffffffffffffffffffffffffffffffffffffff168d73ffffffffffffffffffffffffffffffffffffffff16146040518060400160405280600281526020017f383700000000000000000000000000000000000000000000000000000000000081525090612110576040517f08c379a0000000000000000000000000000000000000000000000000000000008152600401612107919061427d565b60405180910390fd5b5061215e88888080601f016020809104026020016040519081016040528093929190818152602001838380828437600081840152601f19601f82011690508083019250505050505050613038565b6121ab86868080601f016020809104026020016040519081016040528093929190818152602001838380828437600081840152601f19601f82011690508083019250505050505050613052565b6121b48961306c565b8b603c60006101000a81548173ffffffffffffffffffffffffffffffffffffffff021916908373ffffffffffffffffffffffffffffffffffffffff1602179055508a603d60006101000a81548173ffffffffffffffffffffffffffffffffffffffff021916908373ffffffffffffffffffffffffffffffffffffffff16021790555089603960016101000a81548173ffffffffffffffffffffffffffffffffffffffff021916908373ffffffffffffffffffffffffffffffffffffffff16021790555061227f61308a565b603b819055507f000000000000000000000000000000000000000000000000000000000000000073ffffffffffffffffffffffffffffffffffffffff168b73ffffffffffffffffffffffffffffffffffffffff167fb19e051f8af41150ccccb3fc2c2d8d15f4a4cf434f32a559ba75fe73d6eea20b8e8d8d8d8d8d8d8d8d60405161231299989796959493929190614ddc565b60405180910390a3801561233c576000600160006101000a81548160ff0219169083151502179055505b50505050505050505050505050565b60006fffffffffffffffffffffffffffffffff80168211156123a2576040517f08c379a000000000000000000000000000000000000000000000000000000000815260040161239990614eca565b60405180910390fd5b819050919050565b603e60009054906101000a900473ffffffffffffffffffffffffffffffffffffffff1673ffffffffffffffffffffffffffffffffffffffff16631ba6951e84603460008773ffffffffffffffffffffffffffffffffffffffff1673ffffffffffffffffffffffffffffffffffffffff16815260200190815260200160002060000160009054906101000a90046fffffffffffffffffffffffffffffffff1684603460008973ffffffffffffffffffffffffffffffffffffffff1673ffffffffffffffffffffffffffffffffffffffff16815260200190815260200160002060000160009054906101000a90046fffffffffffffffffffffffffffffffff166124b29190614f06565b6040518463ffffffff1660e01b81526004016124d093929190614f6b565b600060405180830381600087803b1580156124ea57600080fd5b505af11580156124fe573d6000803e3d6000fd5b50505050603e60009054906101000a900473ffffffffffffffffffffffffffffffffffffffff1673ffffffffffffffffffffffffffffffffffffffff16631ba6951e83603460008673ffffffffffffffffffffffffffffffffffffffff1673ffffffffffffffffffffffffffffffffffffffff16815260200190815260200160002060000160009054906101000a90046fffffffffffffffffffffffffffffffff1684603460008873ffffffffffffffffffffffffffffffffffffffff1673ffffffffffffffffffffffffffffffffffffffff16815260200190815260200160002060000160009054906101000a90046fffffffffffffffffffffffffffffffff1661260a9190614fa2565b6040518463ffffffff1660e01b815260040161262893929190614f6b565b600060405180830381600087803b15801561264257600080fd5b505af1158015612656573d6000803e3d6000fd5b5050505061266583838361312a565b505050565b60007f000000000000000000000000000000000000000000000000000000000000000046141561269e57603b5490506126a9565b6126a661308a565b90505b90565b600063a9059cbb60e01b905060405181815273ffffffffffffffffffffffffffffffffffffffff841660048201528260248201526000806044836000895af16126f9573d6000803e3d6000fd5b506127038461314e565b612742576040517f08c379a000000000000000000000000000000000000000000000000000000000815260040161273990615034565b60405180910390fd5b50505050565b6000603d60009054906101000a900473ffffffffffffffffffffffffffffffffffffffff16905060007f000000000000000000000000000000000000000000000000000000000000000073ffffffffffffffffffffffffffffffffffffffff1663d15e0053836040518263ffffffff1660e01b81526004016127ca9190614924565b602060405180830381865afa1580156127e7573d6000803e3d6000fd5b505050506040513d601f19601f8201168201806040525081019061280b9190614a89565b9050600061282a8261281c89611eae565b611f3290919063ffffffff16565b905060006128498361283b89611eae565b611f3290919063ffffffff16565b90506128578888888661321b565b84156128f3577f000000000000000000000000000000000000000000000000000000000000000073ffffffffffffffffffffffffffffffffffffffff1663d5ed3933858a8a8a87876040518763ffffffff1660e01b81526004016128c096959493929190615054565b600060405180830381600087803b1580156128da57600080fd5b505af11580156128ee573d6000803e3d6000fd5b505050505b8673ffffffffffffffffffffffffffffffffffffffff168873ffffffffffffffffffffffffffffffffffffffff167f4beccb90f994c31aced7a23b5611020728a23d8ec5cddd1a3e9d97b96fda8666612955868a61370b90919063ffffffff16565b866040516129649291906143ef565b60405180910390a35050505050505050565b60008061298c838561370b90919063ffffffff16565b905060008114156040518060400160405280600281526020017f323400000000000000000000000000000000000000000000000000000000000081525090612a0a576040517f08c379a0000000000000000000000000000000000000000000000000000000008152600401612a01919061427d565b60405180910390fd5b506000612a1686611eae565b90506000612a9d603460008973ffffffffffffffffffffffffffffffffffffffff1673ffffffffffffffffffffffffffffffffffffffff16815260200190815260200160002060000160109054906101000a90046fffffffffffffffffffffffffffffffff166fffffffffffffffffffffffffffffffff1683611f3290919063ffffffff16565b612ab08684611f3290919063ffffffff16565b612aba9190614be2565b9050612ac58561234b565b603460008973ffffffffffffffffffffffffffffffffffffffff1673ffffffffffffffffffffffffffffffffffffffff16815260200190815260200160002060000160106101000a8154816fffffffffffffffffffffffffffffffff02191690836fffffffffffffffffffffffffffffffff160217905550612b4f87612b4a8561234b565b613752565b60008187612b5d9190614c16565b90508773ffffffffffffffffffffffffffffffffffffffff16600073ffffffffffffffffffffffffffffffffffffffff167fddf252ad1be2c89b69c2b068fc378daa952ba7f163c4a11628f55a4df523b3ef83604051612bbd9190614418565b60405180910390a38773ffffffffffffffffffffffffffffffffffffffff168973ffffffffffffffffffffffffffffffffffffffff167f458f5fa412d0f69b08dd84872b0215675cc67bc1d5b6fd93300a1c3878b8619683858a604051612c26939291906150b5565b60405180910390a360008314945050505050949350505050565b6000603a60008373ffffffffffffffffffffffffffffffffffffffff1673ffffffffffffffffffffffffffffffffffffffff168152602001908152602001600020549050919050565b6000612c9e828461370b90919063ffffffff16565b905060008114156040518060400160405280600281526020017f323500000000000000000000000000000000000000000000000000000000000081525090612d1c576040517f08c379a0000000000000000000000000000000000000000000000000000000008152600401612d13919061427d565b60405180910390fd5b506000612d2886611eae565b90506000612daf603460008973ffffffffffffffffffffffffffffffffffffffff1673ffffffffffffffffffffffffffffffffffffffff16815260200190815260200160002060000160109054906101000a90046fffffffffffffffffffffffffffffffff166fffffffffffffffffffffffffffffffff1683611f3290919063ffffffff16565b612dc28584611f3290919063ffffffff16565b612dcc9190614be2565b9050612dd78461234b565b603460008973ffffffffffffffffffffffffffffffffffffffff1673ffffffffffffffffffffffffffffffffffffffff16815260200190815260200160002060000160106101000a8154816fffffffffffffffffffffffffffffffff02191690836fffffffffffffffffffffffffffffffff160217905550612e6187612e5c8561234b565b6138b8565b84811115612f4e5760008582612e779190614be2565b90508773ffffffffffffffffffffffffffffffffffffffff16600073ffffffffffffffffffffffffffffffffffffffff167fddf252ad1be2c89b69c2b068fc378daa952ba7f163c4a11628f55a4df523b3ef83604051612ed79190614418565b60405180910390a38773ffffffffffffffffffffffffffffffffffffffff168873ffffffffffffffffffffffffffffffffffffffff167f458f5fa412d0f69b08dd84872b0215675cc67bc1d5b6fd93300a1c3878b86196838589604051612f40939291906150b5565b60405180910390a35061302f565b60008186612f5c9190614be2565b9050600073ffffffffffffffffffffffffffffffffffffffff168873ffffffffffffffffffffffffffffffffffffffff167fddf252ad1be2c89b69c2b068fc378daa952ba7f163c4a11628f55a4df523b3ef83604051612fbc9190614418565b60405180910390a38673ffffffffffffffffffffffffffffffffffffffff168873ffffffffffffffffffffffffffffffffffffffff167f4cf25bc1d991c17529c25213d3cc0cda295eeaad5f13f361969b12ea48015f90838589604051613025939291906150b5565b60405180910390a3505b50505050505050565b806037908051906020019061304e929190614141565b5050565b8060389080519060200190613068929190614141565b5050565b80603960006101000a81548160ff021916908360ff16021790555050565b60007f8b73c3c69bb8fe3d512ecc4cf759cc79239f7b179b0ffacaa9a75d522b39400f6130b5613a1e565b805190602001206040518060400160405280600181526020017f310000000000000000000000000000000000000000000000000000000000000081525080519060200120463060405160200161310f9594939291906150ec565b60405160208183030381529060405280519060200120905090565b6131498383836fffffffffffffffffffffffffffffffff166001612748565b505050565b600061318c565b7f08c379a0000000000000000000000000000000000000000000000000000000006000526020600452806024528160445260646000fd5b3d600081146131cd5760208114613208576131c87f475076323a206d616c666f726d6564207472616e7366657220726573756c7400601f613155565b613215565b823b6131ff576131fe7f475076323a206e6f74206120636f6e74726163740000000000000000000000006014613155565b5b60019150613215565b3d6000803e600051151591505b50919050565b600061322685611eae565b905060006132ad603460008873ffffffffffffffffffffffffffffffffffffffff1673ffffffffffffffffffffffffffffffffffffffff16815260200190815260200160002060000160109054906101000a90046fffffffffffffffffffffffffffffffff166fffffffffffffffffffffffffffffffff1683611f3290919063ffffffff16565b6132c08484611f3290919063ffffffff16565b6132ca9190614be2565b905060006132d786611eae565b9050600061335e603460008973ffffffffffffffffffffffffffffffffffffffff1673ffffffffffffffffffffffffffffffffffffffff16815260200190815260200160002060000160109054906101000a90046fffffffffffffffffffffffffffffffff166fffffffffffffffffffffffffffffffff1683611f3290919063ffffffff16565b6133718684611f3290919063ffffffff16565b61337b9190614be2565b90506133868561234b565b603460008a73ffffffffffffffffffffffffffffffffffffffff1673ffffffffffffffffffffffffffffffffffffffff16815260200190815260200160002060000160106101000a8154816fffffffffffffffffffffffffffffffff02191690836fffffffffffffffffffffffffffffffff1602179055506134078561234b565b603460008973ffffffffffffffffffffffffffffffffffffffff1673ffffffffffffffffffffffffffffffffffffffff16815260200190815260200160002060000160106101000a8154816fffffffffffffffffffffffffffffffff02191690836fffffffffffffffffffffffffffffffff1602179055506134a4888861349f61349a898b61370b90919063ffffffff16565b61234b565b613a2d565b6000831115613584578773ffffffffffffffffffffffffffffffffffffffff16600073ffffffffffffffffffffffffffffffffffffffff167fddf252ad1be2c89b69c2b068fc378daa952ba7f163c4a11628f55a4df523b3ef8560405161350b9190614418565b60405180910390a38773ffffffffffffffffffffffffffffffffffffffff16613532611dbb565b73ffffffffffffffffffffffffffffffffffffffff167f458f5fa412d0f69b08dd84872b0215675cc67bc1d5b6fd93300a1c3878b8619685868960405161357b939291906150b5565b60405180910390a35b8673ffffffffffffffffffffffffffffffffffffffff168873ffffffffffffffffffffffffffffffffffffffff16141580156135c05750600081115b1561369c578673ffffffffffffffffffffffffffffffffffffffff16600073ffffffffffffffffffffffffffffffffffffffff167fddf252ad1be2c89b69c2b068fc378daa952ba7f163c4a11628f55a4df523b3ef836040516136239190614418565b60405180910390a38673ffffffffffffffffffffffffffffffffffffffff1661364a611dbb565b73ffffffffffffffffffffffffffffffffffffffff167f458f5fa412d0f69b08dd84872b0215675cc67bc1d5b6fd93300a1c3878b86196838489604051613693939291906150b5565b60405180910390a35b8673ffffffffffffffffffffffffffffffffffffffff168873ffffffffffffffffffffffffffffffffffffffff167fddf252ad1be2c89b69c2b068fc378daa952ba7f163c4a11628f55a4df523b3ef886040516136f99190614418565b60405180910390a35050505050505050565b60006b033b2e3c9fd0803ce8000000600283046000190304831115158215171561373457600080fd5b81600283046b033b2e3c9fd0803ce800000085020104905092915050565b603e60009054906101000a900473ffffffffffffffffffffffffffffffffffffffff1673ffffffffffffffffffffffffffffffffffffffff16631ba6951e83603460008673ffffffffffffffffffffffffffffffffffffffff1673ffffffffffffffffffffffffffffffffffffffff16815260200190815260200160002060000160009054906101000a90046fffffffffffffffffffffffffffffffff1684603460008873ffffffffffffffffffffffffffffffffffffffff1673ffffffffffffffffffffffffffffffffffffffff16815260200190815260200160002060000160009054906101000a90046fffffffffffffffffffffffffffffffff1661385a9190614fa2565b6040518463ffffffff1660e01b815260040161387893929190614f6b565b600060405180830381600087803b15801561389257600080fd5b505af11580156138a6573d6000803e3d6000fd5b505050506138b48282613d79565b5050565b603e60009054906101000a900473ffffffffffffffffffffffffffffffffffffffff1673ffffffffffffffffffffffffffffffffffffffff16631ba6951e83603460008673ffffffffffffffffffffffffffffffffffffffff1673ffffffffffffffffffffffffffffffffffffffff16815260200190815260200160002060000160009054906101000a90046fffffffffffffffffffffffffffffffff1684603460008873ffffffffffffffffffffffffffffffffffffffff1673ffffffffffffffffffffffffffffffffffffffff16815260200190815260200160002060000160009054906101000a90046fffffffffffffffffffffffffffffffff166139c09190614f06565b6040518463ffffffff1660e01b81526004016139de93929190614f6b565b600060405180830381600087803b1580156139f857600080fd5b505af1158015613a0c573d6000803e3d6000fd5b50505050613a1a8282613f5d565b5050565b6060613a2861071e565b905090565b6000603460008573ffffffffffffffffffffffffffffffffffffffff1673ffffffffffffffffffffffffffffffffffffffff16815260200190815260200160002060000160009054906101000a90046fffffffffffffffffffffffffffffffff1690508181613a9c9190614f06565b603460008673ffffffffffffffffffffffffffffffffffffffff1673ffffffffffffffffffffffffffffffffffffffff16815260200190815260200160002060000160006101000a8154816fffffffffffffffffffffffffffffffff02191690836fffffffffffffffffffffffffffffffff1602179055506000603460008573ffffffffffffffffffffffffffffffffffffffff1673ffffffffffffffffffffffffffffffffffffffff16815260200190815260200160002060000160009054906101000a90046fffffffffffffffffffffffffffffffff1690508281613b839190614fa2565b603460008673ffffffffffffffffffffffffffffffffffffffff1673ffffffffffffffffffffffffffffffffffffffff16815260200190815260200160002060000160006101000a8154816fffffffffffffffffffffffffffffffff02191690836fffffffffffffffffffffffffffffffff1602179055506000603960019054906101000a900473ffffffffffffffffffffffffffffffffffffffff169050600073ffffffffffffffffffffffffffffffffffffffff168173ffffffffffffffffffffffffffffffffffffffff1614613d7157600060365490508173ffffffffffffffffffffffffffffffffffffffff166331873e2e8883876040518463ffffffff1660e01b8152600401613c9a9392919061513f565b600060405180830381600087803b158015613cb457600080fd5b505af1158015613cc8573d6000803e3d6000fd5b505050508573ffffffffffffffffffffffffffffffffffffffff168773ffffffffffffffffffffffffffffffffffffffff1614613d6f578173ffffffffffffffffffffffffffffffffffffffff166331873e2e8783866040518463ffffffff1660e01b8152600401613d3c9392919061513f565b600060405180830381600087803b158015613d5657600080fd5b505af1158015613d6a573d6000803e3d6000fd5b505050505b505b505050505050565b60006036549050816fffffffffffffffffffffffffffffffff1681613d9e9190614c16565b6036819055506000603460008573ffffffffffffffffffffffffffffffffffffffff1673ffffffffffffffffffffffffffffffffffffffff16815260200190815260200160002060000160009054906101000a90046fffffffffffffffffffffffffffffffff1690508281613e139190614fa2565b603460008673ffffffffffffffffffffffffffffffffffffffff1673ffffffffffffffffffffffffffffffffffffffff16815260200190815260200160002060000160006101000a8154816fffffffffffffffffffffffffffffffff02191690836fffffffffffffffffffffffffffffffff1602179055506000603960019054906101000a900473ffffffffffffffffffffffffffffffffffffffff169050600073ffffffffffffffffffffffffffffffffffffffff168173ffffffffffffffffffffffffffffffffffffffff1614613f56578073ffffffffffffffffffffffffffffffffffffffff166331873e2e8685856040518463ffffffff1660e01b8152600401613f239392919061513f565b600060405180830381600087803b158015613f3d57600080fd5b505af1158015613f51573d6000803e3d6000fd5b505050505b5050505050565b60006036549050816fffffffffffffffffffffffffffffffff1681613f829190614be2565b6036819055506000603460008573ffffffffffffffffffffffffffffffffffffffff1673ffffffffffffffffffffffffffffffffffffffff16815260200190815260200160002060000160009054906101000a90046fffffffffffffffffffffffffffffffff1690508281613ff79190614f06565b603460008673ffffffffffffffffffffffffffffffffffffffff1673ffffffffffffffffffffffffffffffffffffffff16815260200190815260200160002060000160006101000a8154816fffffffffffffffffffffffffffffffff02191690836fffffffffffffffffffffffffffffffff1602179055506000603960019054906101000a900473ffffffffffffffffffffffffffffffffffffffff169050600073ffffffffffffffffffffffffffffffffffffffff168173ffffffffffffffffffffffffffffffffffffffff161461413a578073ffffffffffffffffffffffffffffffffffffffff166331873e2e8685856040518463ffffffff1660e01b81526004016141079392919061513f565b600060405180830381600087803b15801561412157600080fd5b505af1158015614135573d6000803e3d6000fd5b505050505b5050505050565b82805461414d90614a42565b90600052602060002090601f01602090048101928261416f57600085556141b6565b82601f1061418857805160ff19168380011785556141b6565b828001600101855582156141b6579182015b828111156141b557825182559160200191906001019061419a565b5b5090506141c391906141c7565b5090565b5b808211156141e05760008160009055506001016141c8565b5090565b600081519050919050565b600082825260208201905092915050565b60005b8381101561421e578082015181840152602081019050614203565b8381111561422d576000848401525b50505050565b6000601f19601f8301169050919050565b600061424f826141e4565b61425981856141ef565b9350614269818560208601614200565b61427281614233565b840191505092915050565b600060208201905081810360008301526142978184614244565b905092915050565b600080fd5b600080fd5b600073ffffffffffffffffffffffffffffffffffffffff82169050919050565b60006142d4826142a9565b9050919050565b6142e4816142c9565b81146142ef57600080fd5b50565b600081359050614301816142db565b92915050565b6000819050919050565b61431a81614307565b811461432557600080fd5b50565b60008135905061433781614311565b92915050565b600080604083850312156143545761435361429f565b5b6000614362858286016142f2565b925050602061437385828601614328565b9150509250929050565b60008115159050919050565b6143928161437d565b82525050565b60006020820190506143ad6000830184614389565b92915050565b6000602082840312156143c9576143c861429f565b5b60006143d7848285016142f2565b91505092915050565b6143e981614307565b82525050565b600060408201905061440460008301856143e0565b61441160208301846143e0565b9392505050565b600060208201905061442d60008301846143e0565b92915050565b600061443e826142c9565b9050919050565b61444e81614433565b811461445957600080fd5b50565b60008135905061446b81614445565b92915050565b600061447c826142c9565b9050919050565b61448c81614471565b811461449757600080fd5b50565b6000813590506144a981614483565b92915050565b600060ff82169050919050565b6144c5816144af565b81146144d057600080fd5b50565b6000813590506144e2816144bc565b92915050565b600080fd5b600080fd5b600080fd5b60008083601f84011261450d5761450c6144e8565b5b8235905067ffffffffffffffff81111561452a576145296144ed565b5b602083019150836001820283011115614546576145456144f2565b5b9250929050565b60008083601f840112614563576145626144e8565b5b8235905067ffffffffffffffff8111156145805761457f6144ed565b5b60208301915083600182028301111561459c5761459b6144f2565b5b9250929050565b60008060008060008060008060008060006101008c8e0312156145c9576145c861429f565b5b60006145d78e828f0161445c565b9b505060206145e88e828f016142f2565b9a505060406145f98e828f016142f2565b995050606061460a8e828f0161449a565b985050608061461b8e828f016144d3565b97505060a08c013567ffffffffffffffff81111561463c5761463b6142a4565b5b6146488e828f016144f7565b965096505060c08c013567ffffffffffffffff81111561466b5761466a6142a4565b5b6146778e828f016144f7565b945094505060e08c013567ffffffffffffffff81111561469a576146996142a4565b5b6146a68e828f0161454d565b92509250509295989b509295989b9093969950565b6000806000606084860312156146d4576146d361429f565b5b60006146e2868287016142f2565b93505060206146f3868287016142f2565b925050604061470486828701614328565b9150509250925092565b6000819050919050565b6147218161470e565b82525050565b600060208201905061473c6000830184614718565b92915050565b61474b816144af565b82525050565b60006020820190506147666000830184614742565b92915050565b6000819050919050565b600061479161478c614787846142a9565b61476c565b6142a9565b9050919050565b60006147a382614776565b9050919050565b60006147b582614798565b9050919050565b6147c5816147aa565b82525050565b60006020820190506147e060008301846147bc565b92915050565b60006147f182614798565b9050919050565b614801816147e6565b82525050565b600060208201905061481c60008301846147f8565b92915050565b600061482d82614798565b9050919050565b61483d81614822565b82525050565b60006020820190506148586000830184614834565b92915050565b600081519050919050565b600082825260208201905092915050565b60006148858261485e565b61488f8185614869565b935061489f818560208601614200565b6148a881614233565b840191505092915050565b600060208201905081810360008301526148cd818461487a565b905092915050565b600080604083850312156148ec576148eb61429f565b5b60006148fa85828601614328565b925050602061490b85828601614328565b9150509250929050565b61491e816142c9565b82525050565b60006020820190506149396000830184614915565b92915050565b600080600080608085870312156149595761495861429f565b5b6000614967878288016142f2565b9450506020614978878288016142f2565b935050604061498987828801614328565b925050606061499a87828801614328565b91505092959194509250565b600080604083850312156149bd576149bc61429f565b5b60006149cb858286016142f2565b92505060206149dc858286016142f2565b9150509250929050565b6000602082840312156149fc576149fb61429f565b5b6000614a0a8482850161449a565b91505092915050565b7f4e487b7100000000000000000000000000000000000000000000000000000000600052602260045260246000fd5b60006002820490506001821680614a5a57607f821691505b60208210811415614a6e57614a6d614a13565b5b50919050565b600081519050614a8381614311565b92915050565b600060208284031215614a9f57614a9e61429f565b5b6000614aad84828501614a74565b91505092915050565b7f436f6e747261637420696e7374616e63652068617320616c726561647920626560008201527f656e20696e697469616c697a6564000000000000000000000000000000000000602082015250565b6000614b12602e836141ef565b9150614b1d82614ab6565b604082019050919050565b60006020820190508181036000830152614b4181614b05565b9050919050565b6000614b53826142a9565b9050919050565b614b6381614b48565b8114614b6e57600080fd5b50565b600081359050614b8081614b5a565b92915050565b600060208284031215614b9c57614b9b61429f565b5b6000614baa84828501614b71565b91505092915050565b7f4e487b7100000000000000000000000000000000000000000000000000000000600052601160045260246000fd5b6000614bed82614307565b9150614bf883614307565b925082821015614c0b57614c0a614bb3565b5b828203905092915050565b6000614c2182614307565b9150614c2c83614307565b9250827fffffffffffffffffffffffffffffffffffffffffffffffffffffffffffffffff03821115614c6157614c60614bb3565b5b828201905092915050565b600081519050614c7b816142db565b92915050565b600060208284031215614c9757614c9661429f565b5b6000614ca584828501614c6c565b91505092915050565b614cb78161437d565b8114614cc257600080fd5b50565b600081519050614cd481614cae565b92915050565b600060208284031215614cf057614cef61429f565b5b6000614cfe84828501614cc5565b91505092915050565b7f6e6f74206f776e65720000000000000000000000000000000000000000000000600082015250565b6000614d3d6009836141ef565b9150614d4882614d07565b602082019050919050565b60006020820190508181036000830152614d6c81614d30565b9050919050565b82818337600083830152505050565b6000614d8e83856141ef565b9350614d9b838584614d73565b614da483614233565b840190509392505050565b6000614dbb8385614869565b9350614dc8838584614d73565b614dd183614233565b840190509392505050565b600060c082019050614df1600083018c614915565b614dfe602083018b614915565b614e0b604083018a614742565b8181036060830152614e1e81888a614d82565b90508181036080830152614e33818688614d82565b905081810360a0830152614e48818486614daf565b90509a9950505050505050505050565b7f53616665436173743a2076616c756520646f65736e27742066697420696e203160008201527f3238206269747300000000000000000000000000000000000000000000000000602082015250565b6000614eb46027836141ef565b9150614ebf82614e58565b604082019050919050565b60006020820190508181036000830152614ee381614ea7565b9050919050565b60006fffffffffffffffffffffffffffffffff82169050919050565b6000614f1182614eea565b9150614f1c83614eea565b925082821015614f2f57614f2e614bb3565b5b828203905092915050565b6000614f55614f50614f4b84614eea565b61476c565b614307565b9050919050565b614f6581614f3a565b82525050565b6000606082019050614f806000830186614915565b614f8d6020830185614f5c565b614f9a6040830184614f5c565b949350505050565b6000614fad82614eea565b9150614fb883614eea565b9250826fffffffffffffffffffffffffffffffff03821115614fdd57614fdc614bb3565b5b828201905092915050565b7f475076323a206661696c6564207472616e736665720000000000000000000000600082015250565b600061501e6015836141ef565b915061502982614fe8565b602082019050919050565b6000602082019050818103600083015261504d81615011565b9050919050565b600060c0820190506150696000830189614915565b6150766020830188614915565b6150836040830187614915565b61509060608301866143e0565b61509d60808301856143e0565b6150aa60a08301846143e0565b979650505050505050565b60006060820190506150ca60008301866143e0565b6150d760208301856143e0565b6150e460408301846143e0565b949350505050565b600060a0820190506151016000830188614718565b61510e6020830187614718565b61511b6040830186614718565b61512860608301856143e0565b6151356080830184614915565b9695505050505050565b60006060820190506151546000830186614915565b61516160208301856143e0565b61516e6040830184614f5c565b94935050505056fea26469706673582212209f1aabd567280233467d2fbf0fbb2834b0707cd155b8810e45791068f31a0d6364736f6c634300080c0033",
  "devdoc": {
    "kind": "dev",
    "methods": {
      "DOMAIN_SEPARATOR()": {
        "details": "Overrides the base function to fully implement IATokensee `EIP712Base.DOMAIN_SEPARATOR()` for more detailed documentation"
      },
      "RESERVE_TREASURY_ADDRESS()": {
        "returns": {
          "_0": "Address of the Aave treasury"
        }
      },
      "UNDERLYING_ASSET_ADDRESS()": {
        "returns": {
          "_0": "The address of the underlying asset"
        }
      },
      "allowance(address,address)": {
        "details": "Returns the remaining number of tokens that `spender` will be allowed to spend on behalf of `owner` through {transferFrom}. This is zero by default. This value changes when {approve} or {transferFrom} are called."
      },
      "approve(address,uint256)": {
        "details": "Sets `amount` as the allowance of `spender` over the caller's tokens. Returns a boolean value indicating whether the operation succeeded. IMPORTANT: Beware that changing an allowance with this method brings the risk that someone may use both the old and the new allowance by unfortunate transaction ordering. One possible solution to mitigate this race condition is to first reduce the spender's allowance to 0 and set the desired value afterwards: https://github.com/ethereum/EIPs/issues/20#issuecomment-263524729 Emits an {Approval} event."
      },
      "balanceOf(address)": {
        "details": "Returns the amount of tokens owned by `account`."
      },
      "burn(address,address,uint256,uint256)": {
        "details": "In some instances, the mint event could be emitted from a burn transaction if the amount to burn is less than the interest that the user accrued",
        "params": {
          "amount": "The amount being burned",
          "from": "The address from which the aTokens will be burned",
          "index": "The next liquidity index of the reserve",
          "receiverOfUnderlying": "The address that will receive the underlying"
        }
      },
      "decreaseAllowance(address,uint256)": {
        "params": {
          "spender": "The user allowed to spend on behalf of _msgSender()",
          "subtractedValue": "The amount being subtracted to the allowance"
        },
        "returns": {
          "_0": "`true`"
        }
      },
      "getIncentivesController()": {
        "returns": {
          "_0": "The address of the Incentives Controller"
        }
      },
      "getPreviousIndex(address)": {
        "params": {
          "user": "The address of the user"
        },
        "returns": {
          "_0": "The last index interest was accrued to the user's balance, expressed in ray"
        }
      },
      "getScaledUserBalanceAndSupply(address)": {
        "params": {
          "user": "The address of the user"
        },
        "returns": {
          "_0": "The scaled balance of the user",
          "_1": "The scaled total supply"
        }
      },
      "handleRepayment(address,address,uint256)": {
        "details": "The default implementation is empty as with standard ERC20 tokens, nothing needs to be done after the transfer is concluded. However in the future there may be aTokens that allow for example to stake the underlying to receive LM rewards. In that case, `handleRepayment()` would perform the staking of the underlying asset.",
        "params": {
          "amount": "The amount getting repaid",
          "onBehalfOf": "The address of the user who will get his debt reduced/removed",
          "user": "The user executing the repayment"
        }
      },
      "increaseAllowance(address,uint256)": {
        "params": {
          "addedValue": "The amount being added to the allowance",
          "spender": "The user allowed to spend on behalf of _msgSender()"
        },
        "returns": {
          "_0": "`true`"
        }
      },
      "initialize(address,address,address,address,uint8,string,string,bytes)": {
        "params": {
          "aTokenDecimals": "The decimals of the aToken, same as the underlying asset's",
          "aTokenName": "The name of the aToken",
          "aTokenSymbol": "The symbol of the aToken",
          "incentivesController": "The smart contract managing potential incentives distribution",
          "params": "A set of encoded parameters for additional initialization",
          "pool": "The pool contract that is initializing this contract",
          "treasury": "The address of the Aave treasury, receiving the fees on this aToken",
          "underlyingAsset": "The address of the underlying asset of this aToken (E.g. WETH for aWETH)"
        }
      },
      "mint(address,address,uint256,uint256)": {
        "params": {
          "amount": "The amount of tokens getting minted",
          "caller": "The address performing the mint",
          "index": "The next liquidity index of the reserve",
          "onBehalfOf": "The address of the user that will receive the minted aTokens"
        },
        "returns": {
          "_0": "`true` if the the previous balance of the user was 0"
        }
      },
      "mintToTreasury(uint256,uint256)": {
        "params": {
          "amount": "The amount of tokens getting minted",
          "index": "The next liquidity index of the reserve"
        }
      },
      "nonces(address)": {
        "details": "Overrides the base function to fully implement IATokensee `EIP712Base.nonces()` for more detailed documentation"
      },
      "rescueTokens(address,address,uint256)": {
        "params": {
          "amount": "The amount of token to transfer",
          "to": "The address of the recipient",
          "token": "The address of the token"
        }
      },
      "scaledBalanceOf(address)": {
        "details": "The scaled balance is the sum of all the updated stored balance divided by the reserve's liquidity index at the moment of the update",
        "params": {
          "user": "The user whose balance is calculated"
        },
        "returns": {
          "_0": "The scaled balance of the user"
        }
      },
      "scaledTotalSupply()": {
        "returns": {
          "_0": "The scaled total supply"
        }
      },
      "setIncentivesController(address)": {
        "params": {
          "controller": "the new Incentives controller"
        }
      },
      "totalSupply()": {
        "details": "Returns the amount of tokens in existence."
      },
      "transfer(address,uint256)": {
        "details": "Moves `amount` tokens from the caller's account to `recipient`. Returns a boolean value indicating whether the operation succeeded. Emits a {Transfer} event."
      },
      "transferFrom(address,address,uint256)": {
        "details": "Moves `amount` tokens from `sender` to `recipient` using the allowance mechanism. `amount` is then deducted from the caller's allowance. Returns a boolean value indicating whether the operation succeeded. Emits a {Transfer} event."
      },
      "transferOnLiquidation(address,address,uint256)": {
        "params": {
          "from": "The address getting liquidated, current owner of the aTokens",
          "to": "The recipient",
          "value": "The amount of tokens getting transferred"
        }
      },
      "transferUnderlyingTo(address,uint256)": {
        "details": "Used by the Pool to transfer assets in borrow(), withdraw() and flashLoan()",
        "params": {
          "amount": "The amount getting transferred",
          "target": "The recipient of the underlying"
        }
      }
    },
    "version": 1
  },
  "userdoc": {
    "kind": "user",
    "methods": {
      "RESERVE_TREASURY_ADDRESS()": {
        "notice": "Returns the address of the Aave treasury, receiving the fees on this aToken."
      },
      "UNDERLYING_ASSET_ADDRESS()": {
        "notice": "Returns the address of the underlying asset of this aToken (E.g. WETH for aWETH)"
      },
      "burn(address,address,uint256,uint256)": {
        "notice": "Burns aTokens from `user` and sends the equivalent amount of underlying to `receiverOfUnderlying`"
      },
      "decreaseAllowance(address,uint256)": {
        "notice": "Decreases the allowance of spender to spend _msgSender() tokens"
      },
      "getIncentivesController()": {
        "notice": "Returns the address of the Incentives Controller contract"
      },
      "getPreviousIndex(address)": {
        "notice": "Returns last index interest was accrued to the user's balance"
      },
      "getScaledUserBalanceAndSupply(address)": {
        "notice": "Returns the scaled balance of the user and the scaled total supply."
      },
      "handleRepayment(address,address,uint256)": {
        "notice": "Handles the underlying received by the aToken after the transfer has been completed."
      },
      "increaseAllowance(address,uint256)": {
        "notice": "Increases the allowance of spender to spend _msgSender() tokens"
      },
      "initialize(address,address,address,address,uint8,string,string,bytes)": {
        "notice": "Initializes the aToken"
      },
      "mint(address,address,uint256,uint256)": {
        "notice": "Mints `amount` aTokens to `user`"
      },
      "mintToTreasury(uint256,uint256)": {
        "notice": "Mints aTokens to the reserve treasury"
      },
      "rescueTokens(address,address,uint256)": {
        "notice": "Rescue and transfer tokens locked in this contract"
      },
      "scaledBalanceOf(address)": {
        "notice": "Returns the scaled balance of the user."
      },
      "scaledTotalSupply()": {
        "notice": "Returns the scaled total supply of the scaled balance token. Represents sum(debt/index)"
      },
      "setIncentivesController(address)": {
        "notice": "Sets a new Incentives Controller"
      },
      "transferOnLiquidation(address,address,uint256)": {
        "notice": "Transfers aTokens in the event of a borrow being liquidated, in case the liquidators reclaims the aToken"
      },
      "transferUnderlyingTo(address,uint256)": {
        "notice": "Transfers the underlying asset to `target`."
      }
    },
    "version": 1
  },
  "storageLayout": {
    "storage": [
      {
        "astId": 1886,
        "contract": "contracts/berachain/ATokenBerachain.sol:ATokenBerachain",
        "label": "lastInitializedRevision",
        "offset": 0,
        "slot": "0",
        "type": "t_uint256"
      },
      {
        "astId": 1889,
        "contract": "contracts/berachain/ATokenBerachain.sol:ATokenBerachain",
        "label": "initializing",
        "offset": 0,
        "slot": "1",
        "type": "t_bool"
      },
      {
        "astId": 1959,
        "contract": "contracts/berachain/ATokenBerachain.sol:ATokenBerachain",
        "label": "______gap",
        "offset": 0,
        "slot": "2",
        "type": "t_array(t_uint256)50_storage"
      },
      {
        "astId": 3433,
        "contract": "contracts/berachain/ATokenBerachain.sol:ATokenBerachain",
        "label": "_userState",
        "offset": 0,
        "slot": "52",
        "type": "t_mapping(t_address,t_struct(UserState)3428_storage)"
      },
      {
        "astId": 3439,
        "contract": "contracts/berachain/ATokenBerachain.sol:ATokenBerachain",
        "label": "_allowances",
        "offset": 0,
        "slot": "53",
        "type": "t_mapping(t_address,t_mapping(t_address,t_uint256))"
      },
      {
        "astId": 3441,
        "contract": "contracts/berachain/ATokenBerachain.sol:ATokenBerachain",
        "label": "_totalSupply",
        "offset": 0,
        "slot": "54",
        "type": "t_uint256"
      },
      {
        "astId": 3443,
        "contract": "contracts/berachain/ATokenBerachain.sol:ATokenBerachain",
        "label": "_name",
        "offset": 0,
        "slot": "55",
        "type": "t_string_storage"
      },
      {
        "astId": 3445,
        "contract": "contracts/berachain/ATokenBerachain.sol:ATokenBerachain",
        "label": "_symbol",
        "offset": 0,
        "slot": "56",
        "type": "t_string_storage"
      },
      {
        "astId": 3447,
        "contract": "contracts/berachain/ATokenBerachain.sol:ATokenBerachain",
        "label": "_decimals",
        "offset": 0,
        "slot": "57",
        "type": "t_uint8"
      },
      {
        "astId": 3450,
        "contract": "contracts/berachain/ATokenBerachain.sol:ATokenBerachain",
        "label": "_incentivesController",
        "offset": 1,
        "slot": "57",
        "type": "t_contract(IAaveIncentivesController)905"
      },
      {
        "astId": 3267,
        "contract": "contracts/berachain/ATokenBerachain.sol:ATokenBerachain",
        "label": "_nonces",
        "offset": 0,
        "slot": "58",
        "type": "t_mapping(t_address,t_uint256)"
      },
      {
        "astId": 3269,
        "contract": "contracts/berachain/ATokenBerachain.sol:ATokenBerachain",
        "label": "_domainSeparator",
        "offset": 0,
        "slot": "59",
        "type": "t_bytes32"
      },
      {
        "astId": 2732,
        "contract": "contracts/berachain/ATokenBerachain.sol:ATokenBerachain",
        "label": "_treasury",
        "offset": 0,
        "slot": "60",
        "type": "t_address"
      },
      {
        "astId": 2734,
        "contract": "contracts/berachain/ATokenBerachain.sol:ATokenBerachain",
        "label": "_underlyingAsset",
        "offset": 0,
        "slot": "61",
        "type": "t_address"
      },
      {
        "astId": 4517,
        "contract": "contracts/berachain/ATokenBerachain.sol:ATokenBerachain",
        "label": "rewardsVault",
        "offset": 0,
        "slot": "62",
        "type": "t_contract(IBerachainRewardsVault)4746"
      },
      {
        "astId": 4519,
        "contract": "contracts/berachain/ATokenBerachain.sol:ATokenBerachain",
        "label": "owner",
        "offset": 0,
        "slot": "63",
        "type": "t_address"
      }
    ],
    "types": {
      "t_address": {
        "encoding": "inplace",
        "label": "address",
        "numberOfBytes": "20"
      },
      "t_array(t_uint256)50_storage": {
        "base": "t_uint256",
        "encoding": "inplace",
        "label": "uint256[50]",
        "numberOfBytes": "1600"
      },
      "t_bool": {
        "encoding": "inplace",
        "label": "bool",
        "numberOfBytes": "1"
      },
      "t_bytes32": {
        "encoding": "inplace",
        "label": "bytes32",
        "numberOfBytes": "32"
      },
      "t_contract(IAaveIncentivesController)905": {
        "encoding": "inplace",
        "label": "contract IAaveIncentivesController",
        "numberOfBytes": "20"
      },
      "t_contract(IBerachainRewardsVault)4746": {
        "encoding": "inplace",
        "label": "contract IBerachainRewardsVault",
        "numberOfBytes": "20"
      },
      "t_mapping(t_address,t_mapping(t_address,t_uint256))": {
        "encoding": "mapping",
        "key": "t_address",
        "label": "mapping(address => mapping(address => uint256))",
        "numberOfBytes": "32",
        "value": "t_mapping(t_address,t_uint256)"
      },
      "t_mapping(t_address,t_struct(UserState)3428_storage)": {
        "encoding": "mapping",
        "key": "t_address",
        "label": "mapping(address => struct IncentivizedERC20.UserState)",
        "numberOfBytes": "32",
        "value": "t_struct(UserState)3428_storage"
      },
      "t_mapping(t_address,t_uint256)": {
        "encoding": "mapping",
        "key": "t_address",
        "label": "mapping(address => uint256)",
        "numberOfBytes": "32",
        "value": "t_uint256"
      },
      "t_string_storage": {
        "encoding": "bytes",
        "label": "string",
        "numberOfBytes": "32"
      },
      "t_struct(UserState)3428_storage": {
        "encoding": "inplace",
        "label": "struct IncentivizedERC20.UserState",
        "members": [
          {
            "astId": 3425,
            "contract": "contracts/berachain/ATokenBerachain.sol:ATokenBerachain",
            "label": "balance",
            "offset": 0,
            "slot": "0",
            "type": "t_uint128"
          },
          {
            "astId": 3427,
            "contract": "contracts/berachain/ATokenBerachain.sol:ATokenBerachain",
            "label": "additionalData",
            "offset": 16,
            "slot": "0",
            "type": "t_uint128"
          }
        ],
        "numberOfBytes": "32"
      },
      "t_uint128": {
        "encoding": "inplace",
        "label": "uint128",
        "numberOfBytes": "16"
      },
      "t_uint256": {
        "encoding": "inplace",
        "label": "uint256",
        "numberOfBytes": "32"
      },
      "t_uint8": {
        "encoding": "inplace",
        "label": "uint8",
        "numberOfBytes": "1"
      }
    }
  }
}